:020000040800F2
:10000000000004205176000841750008437500087F
:100010004575000847750008497500080000000094
:100020000000000000000000000000004B75000808
:100030004D750008000000004F750008517500085C
:10004000A1760008A1760008A1760008A176000834
:10005000A1760008A1760008A1760008A176000824
:10006000A1760008A1760008A1760008A176000814
:10007000A1760008A1760008A1760008A176000804
:10008000A1760008A1760008A1760008A1760008F4
:100090005975000869750008A1760008A176000866
:1000A000A1760008A1760008A1760008A1760008D4
:1000B000A1760008A1760008A1760008A1760008C4
:1000C000A1760008A1760008A1760008A1760008B4
:1000D000A1760008797500088975000899750008EF
:1000E000A1760008A1760008A1760008A176000894
:1000F000A1760008A1760008A1760008A176000884
:1001000000000000A9750008A1760008A17600088B
:100110000000000000000000A1760008A1760008A1
:10012000A1760008A1760008A1760008B97500083C
:10013000A1760008A1760008A1760008A176000843
:10014000C9750008D9750008A1760008A1760008D5
:10015000A1760008E9750008A1760008A1760008DC
:10016000A1760008A1760008000000000000000051
:10017000000000000000000000000000000000007F
:10018000A1760008A1760008000000000000000031
:10019000A1760008A1760008000000000000000021
:1001A000000000000000000000000000000000004F
:1001B000A17600080000000000000000A176000801
:0401C000A17600081C
:1001D00010B5054C237833B9044B13B10448AFF381
:1001E00000800123237010BD3C02002000000000AD
:1001F000409F000808B5034B1BB103490348AFF308
:10020000008008BD0000000040020020409F000860
:1002100081F0004102E000BF83F0004330B54FEAB7
:1002200041044FEA430594EA050F08BF90EA020F24
:100230001FBF54EA000C55EA020C7FEA645C7FEAB7
:10024000655C00F0E2804FEA5454D4EB5555B8BFDA
:100250006D420CDD2C4480EA020281EA030382EA4B
:10026000000083EA010180EA020281EA0303362DDD
:1002700088BF30BD11F0004F4FEA01314FF4801CB0
:100280004CEA113102D0404261EB410113F0004FC2
:100290004FEA03334CEA133302D0524263EB430379
:1002A00094EA050F00F0A780A4F10104D5F1200E17
:1002B0000DDB02FA0EFC22FA05F2801841F1000172
:1002C00003FA0EF2801843FA05F359410EE0A5F146
:1002D00020050EF1200E012A03FA0EFC28BF4CF077
:1002E000020C43FA05F3C01851EBE37101F000452D
:1002F00007D54FF0000EDCF1000C7EEB00006EEB3A
:100300000101B1F5801F1BD3B1F5001F0CD34908C3
:100310005FEA30004FEA3C0C04F101044FEA44521A
:1003200012F5800F80F09A80BCF1004F08BF5FEAA1
:10033000500C50F1000041EB045141EA050130BD81
:100340005FEA4C0C404141EB010111F4801FA4F124
:100350000104E9D191F0000F04BF01460020B1FA79
:1003600081F308BF2033A3F10B03B3F120020CDAB1
:100370000C3208DD02F1140CC2F10C0201FA0CF08F
:1003800021FA02F10CE002F11402D8BFC2F1200CF4
:1003900001FA02F120FA0CFCDCBF41EA0C019040AA
:1003A000E41AA2BF01EB0451294330BD6FEA0404F3
:1003B0001F3C1CDA0C340EDC04F11404C4F12002DE
:1003C00020FA04F001FA02F340EA030021FA04F3F0
:1003D00045EA030130BDC4F10C04C4F1200220FA47
:1003E00002F001FA04F340EA0300294630BD21FA85
:1003F00004F0294630BD94F0000F83F4801306BF4B
:1004000081F480110134013D4EE77FEA645C18BF3E
:100410007FEA655C29D094EA050F08BF90EA020FD5
:1004200005D054EA000C04BF1946104630BD91EACD
:10043000030F1EBF0021002030BD5FEA545C05D1D0
:100440004000494128BF41F0004130BD14F580040F
:100450003CBF01F5801130BD01F0004545F0FE4183
:1004600041F470014FF0000030BD7FEA645C1ABFB8
:10047000194610467FEA655C1CBF0B46024650EAEF
:10048000013406BF52EA033591EA030F41F400211B
:1004900030BD00BF90F0000F04BF0021704730B5A1
:1004A0004FF4806404F132044FF000054FF0000176
:1004B00050E700BF90F0000F04BF0021704730B537
:1004C0004FF4806404F1320410F0004548BF40420C
:1004D0004FF000013EE700BF42004FEAE2014FEA61
:1004E00031014FEA02701FBF12F07F4393F07F4F3C
:1004F00081F06051704732F07F4208BF704793F03F
:100500007F4F04BF41F40021704730B54FF4607451
:1005100001F0004521F000411CE700BF50EA010254
:1005200008BF704730B54FF000050AE050EA0102FD
:1005300008BF704730B511F0004502D5404261EB6D
:1005400041014FF4806404F132045FEA915C3FF4AE
:10055000D8AE4FF003025FEADC0C18BF03325FEA4B
:10056000DC0C18BF033202EBDC02C2F1200300FAFC
:1005700003FC20FA02F001FA03FE40EA0E0021FA21
:1005800002F11444BDE600BF70B54FF0FF0C4CF40F
:10059000E06C1CEA11541DBF1CEA135594EA0C0FC1
:1005A00095EA0C0F00F0DEF82C4481EA030621EAFC
:1005B0004C5123EA4C5350EA013518BF52EA033537
:1005C00041F4801143F4801338D0A0FB02CE4FF0E9
:1005D0000005E1FB02E506F00042E0FB03E54FF019
:1005E0000006E1FB03569CF0000F18BF4EF0010E11
:1005F000A4F1FF04B6F5007F64F5407404D25FEA0D
:100600004E0E6D4146EB060642EAC62141EA5551BF
:100610004FEAC52040EA5E504FEACE2EB4F1FD0C01
:1006200088BFBCF5E06F1ED8BEF1004F08BF5FEA7F
:10063000500E50F1000041EB045170BD06F0004631
:1006400046EA010140EA020081EA0301B4EB5C04DE
:10065000C2BFD4EB0C0541EA045170BD41F48011D6
:100660004FF0000E013C00F3AB8014F1360FDEBFFB
:10067000002001F0004170BDC4F10004203C35DAD7
:100680000C341BDC04F11404C4F1200500FA05F35A
:1006900020FA04F001FA05F240EA020001F00042FB
:1006A00021F0004110EBD37021FA04F642EB060171
:1006B0005EEA430E08BF20EAD37070BDC4F10C049B
:1006C000C4F1200500FA04F320FA05F001FA04F25F
:1006D00040EA020001F0004110EBD37041F100014B
:1006E0005EEA430E08BF20EAD37070BDC4F1200556
:1006F00000FA05F24EEA020E20FA04F301FA05F2BE
:1007000043EA020321FA04F001F0004121FA04F265
:1007100020EA020000EBD3705EEA430E08BF20EA35
:10072000D37070BD94F0000F0FD101F0004640006F
:1007300041EB010111F4801F08BF013CF7D041EAF1
:10074000060195F0000F18BF704703F000465200F5
:1007500043EB030313F4801F08BF013DF7D043EAC6
:100760000603704794EA0C0F0CEA135518BF95EA7C
:100770000C0F0CD050EA410618BF52EA4306D1D103
:1007800081EA030101F000414FF0000070BD50EA22
:10079000410606BF1046194652EA430619D094EAAC
:1007A0000C0F02D150EA013613D195EA0C0F05D196
:1007B00052EA03361CBF104619460AD181EA0301EA
:1007C00001F0004141F0FE4141F470014FF00000A2
:1007D00070BD41F0FE4141F4780170BD70B54FF03D
:1007E000FF0C4CF4E06C1CEA11541DBF1CEA1355BD
:1007F00094EA0C0F95EA0C0F00F0A7F8A4EB05049F
:1008000081EA030E52EA03354FEA013100F0888095
:100810004FEA03334FF0805545EA131343EA12635E
:100820004FEA022245EA111545EA10654FEA002613
:100830000EF000419D4208BF964244F1FD0404F5CC
:10084000407402D25B084FEA3202B61A65EB030528
:100850005B084FEA32024FF480104FF4002CB6EBE5
:10086000020E75EB030E22BFB61A754640EA0C0065
:100870005B084FEA3202B6EB020E75EB030E22BFA5
:10088000B61A754640EA5C005B084FEA3202B6EBE6
:10089000020E75EB030E22BFB61A754640EA9C00A5
:1008A0005B084FEA3202B6EB020E75EB030E22BF75
:1008B000B61A754640EADC0055EA060E18D04FEA33
:1008C000051545EA16754FEA06164FEAC30343EAD3
:1008D00052734FEAC2025FEA1C1CC0D111F4801FA0
:1008E0000BD141EA00014FF000004FF0004CB6E799
:1008F00011F4801F04BF01430020B4F1FD0C88BF38
:10090000BCF5E06F3FF6AFAEB5EB030C04BFB6EB42
:10091000020C5FEA500C50F1000041EB045170BD35
:100920000EF0004E4EEA113114EB5C04C2BFD4EB62
:100930000C0541EA045170BD41F480114FF0000EE6
:10094000013C90E645EA060E8DE60CEA135594EA62
:100950000C0F08BF95EA0C0F3FF43BAF94EA0C0F65
:100960000AD150EA01347FF434AF95EA0C0F7FF4DA
:1009700025AF104619462CE795EA0C0F06D152EA2E
:1009800003353FF4FDAE1046194622E750EA410612
:1009900018BF52EA43067FF4C5AE50EA41047FF423
:1009A0000DAF52EA43057FF4EBAE12E74FF0FF3C88
:1009B00006E000BF4FF0010C02E000BF4FF0010C59
:1009C0004DF804CD4FEA410C7FEA6C5C4FEA430CD2
:1009D00018BF7FEA6C5C1BD001B050EA410C0CBF21
:1009E00052EA430C91EA030F02BF90EA020F002083
:1009F000704710F1000F91EA030F58BF994208BFEA
:100A000090422CBFD8176FEAE37040F001007047A6
:100A10004FEA410C7FEA6C5C02D150EA013C07D1FD
:100A20004FEA430C7FEA6C5CD6D152EA033CD3D048
:100A30005DF8040B704700BF8446104662468C4642
:100A40001946634600E000BF01B5FFF7B7FF002875
:100A500048BF10F1000F01BD4DF808EDFFF7F4FF9E
:100A60000CBF012000205DF808FB00BF4DF808ED29
:100A7000FFF7EAFF34BF012000205DF808FB00BF4C
:100A80004DF808EDFFF7E0FF94BF012000205DF86E
:100A900008FB00BF4DF808EDFFF7CEFF94BF012023
:100AA00000205DF808FB00BF4DF808EDFFF7C4FF1C
:100AB00034BF012000205DF808FB00BF4FEA410C65
:100AC0007FEA6C5C02D150EA013C0AD14FEA430C48
:100AD0007FEA6C5C02D152EA033C02D14FF0000085
:100AE00070474FF0010070474A0011D212F5001212
:100AF00011D20DD56FF47873B3EB62520ED44FEA76
:100B0000C12343F0004343EA505323FA02F07047F5
:100B10004FF00000704750EA013002D14FF0FF3033
:100B200070474FF0000070474FEA4102B2F1E043D6
:100B300024BFB3F5001CDCF1FE5C0DD901F0004CC4
:100B40004FEAC0024CEA5070B2F1004F40EB830014
:100B500008BF20F00100704711F0804F21D113F140
:100B60003872BCBF01F00040704741F480114FEA79
:100B70005252C2F11802C2F1200C10FA0CF320FA02
:100B800002F018BF40F001004FEAC1234FEAD3231F
:100B900003FA0CFC40EA0C0023FA02F34FEA430389
:100BA000CCE77FEA625307D150EA01331EBF4FF012
:100BB000FE4040F44000704701F0004040F0FE402D
:100BC00040F40000704700BF53B94AB9002908BF7C
:100BD00000281CBF4FF0FF314FF0FF3000F072B91A
:100BE000ADF1080C6DE904CE00F006F8DDF804E084
:100BF000DDE9022304B070472DE9F047089E044662
:100C00008846002B4BD18A42154667D9B2FA82F248
:100C10004AB1C2F1200701FA02F320FA07F7954022
:100C200047EA030894404FEA154E230CB8FBFEF741
:100C30001FFA85FC0EFB178843EA084307FB0CF1FB
:100C4000994209D9EB1807F1FF3080F01B819942D6
:100C500040F21881023F2B445B1AA4B2B3FBFEF0B2
:100C60000EFB103344EA034400FB0CFCA44509D9F5
:100C70002C1900F1FF3380F00781A44540F2048174
:100C800002382C4440EA0740A4EB0C0400271EB1B4
:100C9000D4400023C6E900433946BDE8F0878B42C3
:100CA00009D9002E00F0EB800027C6E90001384684
:100CB0003946BDE8F087B3FA83F7002F47D18B425E
:100CC00002D3824200F2FA80841A61EB030301200E
:100CD0009846002EE0D0C6E90048DDE702B9FFDE05
:100CE000B2FA82F2002A40F08F80491B4FEA154E7B
:100CF0001FFA85F80127B1FBFEFC230C0EFB1C112B
:100D000043EA014308FB0CF1994207D9EB180CF1B7
:100D1000FF3002D2994200F2CD808446591AA3B224
:100D2000B1FBFEF00EFB101443EA044408FB00F88C
:100D3000A04507D92C1900F1FF3302D2A04500F2DB
:100D4000B6801846A4EB080440EA0C409FE7C7F1C0
:100D5000200CBB4022FA0CFE4EEA030E01FA07F407
:100D600020FA0CF521FA0CF34FEA1E482543B3FB99
:100D7000F8F92C0C08FB19331FFA8EFA44EA0343E6
:100D800009FB0AF49C4202FA07F200FA07F10BD9B8
:100D90001EEB030309F1FF3080F087809C4240F294
:100DA0008480A9F1020973441B1BADB2B3FBF8F0B8
:100DB00008FB103345EA034400FB0AFAA24508D9B0
:100DC0001EEB040400F1FF336BD2A24569D902384F
:100DD000744440EA0940A0FB0289A4EB0A044C4594
:100DE000C2464B4654D351D0002E69D0B1EB0A0510
:100DF00064EB030404FA0CFCFD40FC404CEA0505DE
:100E0000C6E90054002747E7C2F1200320FA03F7A0
:100E1000954001FA02F021FA03F34FEA154E3843E8
:100E2000010CB3FBFEF71FFA85F80EFB173341EAFE
:100E3000034107FB08F38B4204FA02F407D969184F
:100E400007F1FF3C2FD28B422DD9023F2944CB1A08
:100E500081B2B3FBFEF00EFB103341EA034100FB0D
:100E600008F38B4207D9691800F1FF3C17D28B4277
:100E700015D902382944C91A40EA07473BE73746E3
:100E8000304609E70746E7E61846FBE64145ABD2A0
:100E9000B8EB020A69EB0E0201381346A4E760467C
:100EA000E9E7184695E76746D1E781467CE70238CF
:100EB0002C4447E7ACF1020C2B442FE7384608E7F7
:100EC0003746E9E6704700BF034613F8012B002AB6
:100ED000FBD1181A01387047000000000000000024
:100EE00001F0FF01102A2BDB10F0070F08D010F8DB
:100EF000013B013A8B422DD010F0070F42B3F6D1DF
:100F0000F0B441EA012141EA014122F007047FF0F7
:100F100000070023F0E80256083C85EA010586EA4E
:100F2000010685FA47F5A3FA87F586FA47F6A5FA8A
:100F300087F68EB9EED1F0BC01F0FF0102F0070296
:100F400032B110F8013B013A83EA010313B1F8D141
:100F50000020704701387047002D06BF3546033822
:100F6000073815F0010F07D1013015F4807F02BF5B
:100F7000013015F4C03F0130F0BC0138704700BFAC
:100F80004FEA410212F5001215D211D56FF47873B1
:100F9000B3EB625212D94FEAC12343F0004343EA54
:100FA000505311F0004F23FA02F018BF404270472F
:100FB0004FF00000704750EA013005D111F00040B9
:100FC00008BF6FF0004070474FF00000704700BF4F
:100FD00010B504460E4B18784FF47A73B3FBF0F358
:100FE0000C4A1068B0FBF3F000F08AFA68B90F2CD5
:100FF00001D901200AE0002221464FF0FF3000F025
:101000003DFA034B5C60002000E0012010BD00BFF2
:10101000000000206400002008B50B4B1A6842F461
:1010200000721A601A6842F480621A601A6842F408
:1010300080721A60032000F00FFA0020FFF7C8FF4B
:1010400006F012F8002008BD003C0240034A116877
:10105000034B1B780B441360704700BFC402002091
:1010600000000020014B1868704700BFC402002038
:1010700038B50446FFF7F6FF0546B4F1FF3F02D04E
:10108000044B1B781C44FFF7EDFF401BA042FAD332
:1010900038BD00BF00000020002800F0A18038B556
:1010A000044690F82030D3B12268136823F002037D
:1010B0001360FFF7D7FF054623685A6812F0020F46
:1010C00010D0FFF7CFFF401B0A28F5D9636A43F41D
:1010D00000336362052384F82030012038BD05F019
:1010E000DFFFE1E71A6842F001021A60FFF7BAFF7A
:1010F000054623685A6812F0010F0DD1FFF7B2FFC1
:10110000401B0A28F5D9636A43F400336362052360
:1011100084F820300120E1E7227E012A3DD01A68C0
:1011200022F080021A60637E012B3BD02268136894
:1011300023F040031360A37E012B39D0226813688B
:1011400023F020031360E37E012B37D0226813685D
:1011500043F010031360237F012B35D022681368FE
:1011600023F008031360637F012B33D022681368D8
:1011700023F004031360A368E26813432269134356
:10118000626913436268013A21681343CB6100200E
:101190006062012384F82030A0E71A6842F08002E0
:1011A0001A60C0E72268136843F040031360C2E787
:1011B0002268136843F020031360C4E722681368B1
:1011C00023F010031360C6E72268136843F0080396
:1011D0001360C8E72268136843F004031360CAE78A
:1011E00001207047704770477047704770477047DD
:1011F00070477047704770477047704770472DE9D8
:10120000F84F054603685C695F689E68D3F80C90E8
:10121000D3F81080D3F818A014F0010F5AD016F0AC
:10122000010F17D001229A6016F0020F08D116F0B4
:10123000040F30D116F0080F07D04FF4805B0BE09D
:10124000FFF7D0FF4FF0000B06E0FFF7CEFF4FF0A7
:10125000000B01E04FF0000B16F4807F0BD02B68E1
:101260004FF480729A6016F4007F17D116F4806FE5
:1012700018D04BF4005B16F4803F2DD02B684FF450
:1012800080329A6016F4003F16D116F4802F17D0E2
:101290004BF4004B20E04FF4006BDDE72846FFF7EE
:1012A000A2FFE8E716F4006F02D04BF4804BE2E7B0
:1012B0002846FFF79BFFDEE72846FFF795FF0BE088
:1012C00016F4002F02D04BF4803B05E02846FFF7D0
:1012D0008EFF01E04FF0000B14F0080F07D019F05B
:1012E000100F04D04BF4007B2B681022DA6014F04E
:1012F000040F02D019F0080F60D114F0020F04D0CF
:101300002B68DB6813F0030F5FD114F0400F07D098
:1013100018F0100F04D04BF4806B2B6810221A6168
:1013200014F0200F02D018F0080F52D114F0100F53
:1013300004D02B681B6913F0030F51D114F4003F44
:1013400002D017F0100F4FD114F4803F02D017F0E5
:10135000080F50D114F4004F67D017F0040F61D07C
:1013600014F4807F04D01AF0010F01D04BF0010B70
:1013700014F4007F04D01AF0020F01D04BF0020BDE
:1013800014F4806F04D01AF0040F01D04BF0040B5A
:1013900014F4006F46D01AF0700A43D0BAF1300F3F
:1013A00048D02FD9BAF1500F47D0BAF1600F47D0CB
:1013B000BAF1400F31D14BF0400B2EE02B680822E0
:1013C000DA602846FFF715FF97E72846FFF710FF7A
:1013D0009BE72B6808221A612846FFF70CFFA5E758
:1013E0002846FFF707FFA9E72B6810225A60284616
:1013F000FFF702FFA8E72B6808225A602846FFF78C
:10140000FCFEA7E7BAF1100F05D0BAF1200F04D106
:101410004BF0100B01E04BF0080B2A68936923F0A6
:10142000700393612B6804225A60BBF1000F0AD14C
:10143000BDE8F88F4BF0200BEFE74BF0800BECE7AB
:101440004BF4807BE9E76B6A43EA0B036B62284647
:10145000FFF7D4FEECE70000074AD36823F4E0630B
:101460001B041B0C000200F4E060184340F0BF6056
:1014700040F40030D060704700ED00E030B4174B0E
:10148000DB68C3F30223C3F10704042C28BF042440
:101490001D1D062D18D9033B4FF0FF3505FA04F446
:1014A00021EA0401994005FA03F322EA03031943F0
:1014B00000280BDB0901C9B200F1604000F5614072
:1014C00080F8001330BC70470023E5E700F00F0000
:1014D0000901C9B2024B1954F4E700BF00ED00E066
:1014E00014ED00E0002807DB00F01F024009012393
:1014F0009340024A42F82030704700BF00E100E00C
:101500000138B0F1807F0AD2064B5860064AF021BC
:1015100082F823100020986007221A60704701208B
:10152000704700BF10E000E000ED00E00268D3B2B9
:10153000103B0B49A1FB03131B090A49C95CC16598
:10154000032B06D822F47F7222F003028265806D9D
:10155000704722F47F7222F0030204328265F6E7BC
:10156000ABAAAAAA589F0008836A826992B9012B84
:101570000AD01BB1022B01D000207047C36A13F0C0
:10158000807F2CD100207047C36AB3F1C07F28D080
:1015900000207047B2F5005F05D0022B29D9032B3C
:1015A00015D000207047032B03D8DFE803F01C049C
:1015B0001C0A00207047C36A13F0807F15D10020F9
:1015C0007047C36AB3F1C07F11D000207047C36A6F
:1015D00013F0807F01D00120704700207047012068
:1015E000704701207047012070470120704701209B
:1015F000704701207047000070B50446FFF732FDC8
:10160000002C5BD00546002384F83430022384F894
:1016100035302268136823F00103136023681A68C9
:1016200012F0010F0AD0FFF71DFD401B0528F5D968
:1016300020236365032084F8350070BD1A682048B4
:1016400010406168A2680A43E1680A4321690A43BD
:1016500061690A43A1690A43E1690A43216A0A43AD
:101660000243616A04291ED01A602668756925F054
:101670000705636A1D43042B07D1A36A1D43E36A70
:101680001BB12046FFF770FF90B975612046FFF748
:101690004DFFE26D3F23934083600020606501238E
:1016A00084F83530C9E7E16A206B01430A43DBE780
:1016B00040236365012084F83500BEE70120BCE7C4
:1016C0003F8010F090F83530DBB2022B03D080233E
:1016D000436501207047052380F8353002681368A0
:1016E00023F001031360002070470000F0B583B0C1
:1016F000044600230193724B1D68724BA3FB053512
:10170000AD0A876D3E68C26D08239340334210D006
:1017100003681A6812F0040F0BD01A6822F0040252
:101720001A60C26D08239340BB60436D43F0010310
:101730004365E26D01239340334209D02268526928
:1017400012F0800F04D0BB60636D43F00203636549
:10175000E26D04239340334209D02268126812F0EC
:10176000020F04D0BB60636D43F004036365E26D58
:1017700010239340334224D02268126812F0080FDD
:101780001FD0BB6023681A6812F4802F0DD01B682D
:1017900013F4002F04D1236C9BB12046984710E02E
:1017A000A36C73B1204698470BE01A6812F4807F4F
:1017B00003D11A6822F008021A60236C0BB120468C
:1017C0009847E26D20239340334255D02268126837
:1017D00012F0100F50D0BB6094F83530DBB2052BFF
:1017E0000ED023681A6812F4802F33D01B6813F4CC
:1017F000002F2AD1636C002B3ED0204698473BE057
:101800002268136823F0160313602268536923F0DB
:1018100080035361236CA3B12268136823F008038B
:101820001360E26D3F239340BB60002384F83430A3
:10183000012384F83530236D002B3FD02046984794
:101840003CE0A36C002BE7D1EBE7E36BA3B12046B0
:10185000984711E01A6812F4807F09D11A6822F0C3
:1018600010021A60002384F83430012384F83530E4
:10187000E36B0BB120469847636DFBB1636D13F0CA
:10188000010F17D0052384F835302268136823F040
:1018900001031360019B01330193AB4204D8236819
:1018A0001B6813F0010FF5D1002384F834300123B5
:1018B00084F83530E36C0BB12046984703B0F0BD97
:1018C00064000020B5814E1B00230F2B00F2BE8068
:1018D000F0B583B038E0032200E00022AA403A438A
:1018E00002345B4D45F824205A4A1468F24302EA58
:1018F00004054F6817F4803F01D046EA0405554CB3
:101900002560646802EA04054F6817F4003F01D0BF
:1019100046EA04054F4C6560A46802EA04054F6876
:1019200017F4801F01D046EA04054A4CA560E4681C
:1019300022404D6815F4001F01D046EA0402454CD0
:10194000E26001330F2B7FD801229A400C6804EA31
:101950000206B242F5D14C68651E012D03D9112C47
:1019600001D0122C12D185685F000324BC4025EA07
:101970000405CC68BC402C438460456825EA020518
:101980004C68C4F300129A402A434260C4685F0066
:101990000322BA40D24314408D68BD402543C56040
:1019A0004C68022C01D0122C13D1DD08083550F8F8
:1019B00025E003F007044FEA840C0F2404FA0CF42A
:1019C0002EEA040E0C6904FA0CF444EA0E0440F802
:1019D0002540046822404C6804F00304BC402243C4
:1019E00002604A6812F0805FABD0002201921A4A6E
:1019F000546C44F480445464526C02F4804201926A
:101A0000019A9C08A51C124A52F8257003F00302A3
:101A100095000F22AA4027EA0207104A90423FF49D
:101A20005CAF02F5806290420AD002F5806290427B
:101A300008D002F5806290423FF44DAF07224DE797
:101A400001224BE7022249E703B0F0BD704700BF17
:101A500000380140003C01400038024000000240D4
:101A600012B909048161704781617047264B9B68F8
:101A700003F00C03042B44D0082B01D023487047FB
:101A80002DE9F04B204B5A6802F03F025B6813F4DB
:101A9000800F13D01C4B5968C1F3881100231C48D8
:101AA000A1FB0001FFF790F8174B5B68C3F30143FC
:101AB00001335B00B0FBF3F0BDE8F08B124B5B68C9
:101AC000C3F388131E4600275C010025E41A65EB6A
:101AD0000705A90141EA9461A001001B61EB050122
:101AE000CB0043EA5073C400A01943EB07018B02FB
:101AF00043EA90538402204619460023FFF764F816
:101B0000D2E70348704700BF003802400024F400C9
:101B100040787D01002800F09E8070B50446504B4F
:101B20001B6803F00F038B4209D2CBB24C4A1370EF
:101B3000136803F00F038B4201D0012070BD2368AE
:101B400013F0020F17D013F0040F04D0454A936826
:101B500043F4E0539360236813F0080F04D0414A24
:101B6000936843F4604393603E4A936823F0F00324
:101B7000A068034393600D46236813F0010F32D031
:101B80006368012B21D09A1E012A25D9354A126893
:101B900012F0020F61D033498A6822F00302134326
:101BA0008B60FFF75FFA06462E4B9B6803F00C0331
:101BB0006268B3EB820F16D0FFF754FA801B41F234
:101BC00088339842F0D90320B8E7264A126812F405
:101BD000003FE0D10120B1E7224A126812F0007FF5
:101BE000D9D10120AAE71E4B1B6803F00F03AB42BB
:101BF00009D9EAB21A4B1A701B6803F00F03AB4203
:101C000001D001209AE7236813F0040F06D0154A8B
:101C1000936823F4E053E1680B439360236813F067
:101C2000080F07D00F4A936823F46043216943EA01
:101C3000C1039360FFF71AFF0A4B9B68C3F30313BA
:101C4000094AD35CD840094B1860094B1868FFF764
:101C5000BFF9002072E70120704701206EE700BF46
:101C6000003C02400038024014A00008640000203C
:101C700004000020014B1868704700BF640000207A
:101C800008B5FFF7F7FF044B9B68C3F38223034AB1
:101C9000D35CD84008BD00BF0038024024A0000833
:101CA00008B5FFF7E7FF044B9B68C3F34233034AD1
:101CB000D35CD84008BD00BF0038024024A0000813
:101CC00070B582B00446036813F0010F0DD0A54A29
:101CD000D2F88C3023F0C06341690B43C2F88C30DA
:101CE0004369002B6FD0002500E00025236813F026
:101CF000020F0BD09B4AD2F88C3023F0C053A1695D
:101D00000B43C2F88C30A36903B90125236813F093
:101D1000080F5AD1236813F0040F03D094F8382029
:101D2000914B1A60236813F0100F08D08D4AD2F837
:101D3000943023F44003616A0B43C2F89430236863
:101D400013F0200F0DD0874AD2F8943023F00063AF
:101D5000A16A0B43C2F89430A36AB3F1006F00F09C
:101D60009B80236813F0400F08D07E4AD2F894304D
:101D700023F08053216A0B43C2F89430002D40F0C9
:101D80008D802368802B00F08980236813F4807F86
:101D900008D0744AD2F88C3023F00043E16A0B4338
:101DA000C2F88C30236813F4007F00F0D8806D4AAD
:101DB000D2F88C3023F40043216B0B43C2F88C30F3
:101DC000002002B070BD012590E700230193654B10
:101DD0001A6C42F080521A641B6C03F0805301931A
:101DE000019B624A136843F480731360FFF73AF96A
:101DF00006465E4B1B6813F4807F06D1FFF732F96D
:101E0000801B0228F5D90320DBE7564B1B6F13F428
:101E1000407312D0E26902F440729A420DD0514BE5
:101E20001A6F22F4407252490120086000200860B5
:101E30001A671B6F13F0010F12D1E36903F44072AC
:101E4000B2F5407F1DD0474A936823F4F81393609E
:101E500044490B6FE269C2F30B0213430B6759E766
:101E6000FFF700F906463F4B1B6F13F0020FE4D15A
:101E7000FFF7F8F8801B41F288339842F3D903202A
:101E80009FE738498A6822F4F81223F0704323F45C
:101E9000407313438B60DBE7012562E7354B00227B
:101EA0001A60FFF7DFF805462E4B1B6813F0006F32
:101EB00006D0FFF7D7F8401B0228F5D9032080E7AA
:101EC000626B2D4B1A60236813F0010F01D0626919
:101ED000A2B113F0020F01D0A2697AB113F0200F62
:101EE00003D0A26AB2F1006F08D013F0400F12D0F5
:101EF000236A83B9A36AB3F1006F0CD16368A26847
:101F000043EA8213E26843EA0263226943EA027306
:101F1000144AC2F88430236813F0800F0CD0636831
:101F2000A26843EA8213E26843EA0263226943EA51
:101F300002730C4AC2F884300E4B01221A60FFF77C
:101F400091F80546074B1B6813F0006F7FF41DAF37
:101F5000FFF788F8401B0228F4D9032031E700205E
:101F60002FE700BF00380240E011474200700040F8
:101F7000400E474268004742D810474270B582B0D1
:101F80000446036813F0010F3BD0A74B9B6803F096
:101F90000C03042B2CD0A44B9B6803F00C03082BE0
:101FA00021D06368B3F5803F4FD0B3F5A02F52D056
:101FB0009D4B1A6822F480321A601A6822F480223B
:101FC0001A606368002B50D0FFF74CF80546964B1B
:101FD0001B6813F4003F14D1FFF744F8401B64283A
:101FE000F5D903208AE1904B5B6813F4800FD8D0B9
:101FF0008D4B1B6813F4003F03D06368002B00F087
:102000007A81236813F0020F55D0874B9B6813F039
:102010000C0F3ED0844B9B6803F00C03082B33D08D
:10202000E368002B68D0814B01221A60FFF71AF891
:1020300005467D4B1B6813F0020F54D1FFF712F8D1
:10204000401B0228F5D9032058E1774A136843F46E
:1020500080331360B5E7744B1A6842F480221A602B
:102060001A6842F480321A60ABE7FEF7FBFF0546C0
:102070006D4B1B6813F4003FC3D0FEF7F3FF401B0A
:102080006428F5D9032039E1674B5B6813F4800FAE
:10209000C6D1654B1B6813F0020F04D0E368012B17
:1020A00001D001202AE1604A136823F0F803216976
:1020B00043EAC1031360236813F0080F40D063693B
:1020C00063B35B4B01221A60FEF7CCFF0546564B0B
:1020D0005B6F13F0020F33D1FEF7C4FF401B0228E1
:1020E000F5D903200AE1504A136823F0F803216967
:1020F00043EAC1031360DEE74C4B00221A60FEF78F
:10210000B1FF0546484B1B6813F0020FD3D0FEF712
:10211000A9FF401B0228F5D90320EFE0444B002221
:102120001A60FEF79FFF05463F4B5B6F13F0020FEF
:1021300006D0FEF797FF401B0228F5D90320DDE00B
:10214000236813F0040F78D0374B1B6C13F0805FBB
:1021500033D100230193344B1A6C42F080521A643D
:102160001B6C03F080530193019B0125314B1B68CD
:1021700013F4807F23D0A368012B34D0052B38D0F3
:10218000294B1A6F22F001021A671A6F22F004021B
:102190001A67A368002B36D0FEF764FF0646224B71
:1021A0001B6F13F0020F47D1FEF75CFF801B41F25B
:1021B00088339842F3D90320A0E00025D6E71D4AD2
:1021C000136843F480731360FEF74CFF0646194B07
:1021D0001B6813F4807FCED1FEF744FF801B0228DA
:1021E000F5D903208AE0104A136F43F00103136707
:1021F000CFE70D4B1A6F42F004021A671A6F42F0D4
:1022000001021A67C5E7FEF72DFF0646064B1B6F56
:1022100013F0020F10D0FEF725FF801B41F2883328
:102220009842F3D9032069E0003802400000474299
:10223000800E474200700040E5B9A369002B5CD0D6
:10224000304A926802F00C02082A59D0022B17D0AB
:102250002D4B00221A60FEF705FF0446294B1B6830
:1022600013F0007F45D0FEF7FDFE001B0228F5D9D4
:10227000032043E0234A136C23F080531364DCE70C
:10228000214B00221A60FEF7EDFE05461D4B1B6830
:1022900013F0007F06D0FEF7E5FE401B0228F5D9BB
:1022A00003202BE0E369226A1343626A43EA821344
:1022B000A26A5208013A43EA0243E26A43EA02632D
:1022C000226B43EA02730F4A53600F4B01221A60DC
:1022D000FEF7C8FE04460B4B1B6813F0007F06D1C7
:1022E000FEF7C0FE001B0228F5D9032006E00020FF
:1022F00004E0002002E0012000E0002002B070BDF8
:102300000120FBE7003802406000474238B5044630
:102310000268D36823F0A003D360FEF7A3FE05464E
:102320002368DB6813F0200F07D1FEF79BFE401BEC
:10233000B0F57A7FF4D9032000E0002038BD38B52D
:102340000368DA6812F0400F01D0002038BD04465F
:102350004FF0FF32DA60FEF785FE05462368DB6842
:1023600013F0400F07D1FEF77DFE401BB0F57A7FDA
:10237000F4D90320EAE70020E8E738B500285CD06C
:102380000446437F002B40D0022363772368CA2290
:102390005A62236853225A622046FFF7D0FF05464F
:1023A000002836D12268936823F4E00323F0400329
:1023B000936021688A686368206903436069034306
:1023C00013438B602368E2681A6122681369A1686D
:1023D00043EA014313612268D36823F08003D3608A
:1023E00023689B6813F0200F1BD02268136C23F422
:1023F000802313642268136CA1690B431364236860
:10240000FF225A620123637709E0037704F0EAFEB2
:10241000BAE72368FF225A6204236377012528461E
:1024200038BD2046FFF772FF0028DED02368FF2268
:102430005A62042363770125F1E70125EFE70023C2
:1024400002E001330A38C0B20928FAD81B01DBB216
:1024500018437047F8B5037F012B78D00D4604462A
:102460000123037702234377002A46D103689B6840
:1024700013F0400F01D10023CB702878FFF7DFFF66
:1024800006046878FFF7DBFF46EA0026A878FFF726
:10249000D6FF3043EE7840EA06462368CA225A62E5
:1024A000236853225A622046FFF749FF0746002857
:1024B00035D1236806F07F3626F0FE461E6022687E
:1024C000936823F48023936021688B68EA68286905
:1024D000024313438B602268D36823F08003D360E8
:1024E00023689B6813F0200F23D02368FF225A62D1
:1024F000012363770023237719E003689B6813F0B7
:10250000400F01D10023CB702B786878000240EA9D
:102510000340AB781843EE7840EA0646BDE72368EF
:10252000FF225A620423637700232377012738466A
:10253000F8BD2046FFF7EAFE0028D6D02368FF2228
:102540005A6204236377002323770127EFE70227EA
:10255000EDE770B5037F012B66D0012303770223DB
:1025600043773AB94B7813F0100F03D003F0EF0321
:102570000A334B700E460446002A32D1C878FFF762
:102580005EFF05047078FFF75AFF45EA0025B07832
:10259000FFF755FF2843357840EA45352368CA22BE
:1025A0005A62236853225A622046FFF7C8FE064645
:1025B00010BB236825F07F4525F0C0055D602268CB
:1025C000D36823F08003D36023689B6813F0200F47
:1025D0001CD02368FF225A620123637700232377EC
:1025E00012E0CD784878000240EA05408D78284313
:1025F0000D7840EA4535D1E72368FF225A6204236B
:102600006377002323770126304670BD2046FFF70D
:102610007DFE0028DDD02368FF225A620423637701
:10262000002323770126EFE70226EDE7030903EBFA
:1026300083035A0000F00F001044C0B2704770B519
:1026400003689B6A4B6003681B69C3F30E038B60CE
:1026500003681B6803F07F3323F0FE431D0C05F075
:102660003F000870C3F306264E7003F07F048C70A1
:1026700005F04005CD705AB90D46FFF7D7FF287019
:102680003046FFF7D3FF68702046FFF7CFFFA870F2
:10269000002070BD70B503685B6823F07F4323F0B2
:1026A000C003180CC870C3F304264E7003F03F0536
:1026B0008D70C3F342330B705AB90C46FFF7B6FF67
:1026C000E0703046FFF7B2FF60702846FFF7AEFFBC
:1026D000A070002070BD000070B582B004460023D9
:1026E0000193006801F0BAFC064610B1304602B012
:1026F00070BD206801F0C5FC38B90123A364A36C48
:10270000012B0BD03546304614E00023A36420682B
:1027100001F0A4FC0028F2D00646E7E7002120687B
:1027200001F0C6FC0028EDD04FF08056DEE7019B9B
:1027300001330193019A4FF6FE739A4213D895B96B
:102740000021206801F0B4FCD8B91249206801F0DA
:10275000C7FC0546B8B90021206801F0C2FAC30FD2
:10276000E5D01D46E3E7019A4FF6FE739A420DD875
:1027700010F0804F02D100236364B7E70123636444
:10278000B4E70646B2E74FF08056AFE74FF08076E9
:10279000ACE700BF000010C1F8B5846AC66AAEB1EC
:1027A000074600250EE0386801F072FA2070C0F389
:1027B00007236370C0F30743A370000EE070043476
:1027C000043E0135072DEED9BC62FE62F8BDF0B5BE
:1027D00083B0046A466AE6B10746002515E023780F
:1027E0000193627843EA02230193A27843EA024309
:1027F0000193E27843EA026302A941F8043D0434FC
:10280000043E386801F047FA0135072DE7D93C62EC
:102810007E6203B0F0BD70B581B10D460446016D16
:102820000904006801F0B7FC064608B1304670BDE7
:102830000021206801F055FA2860F7E74FF00066A4
:10284000F4E700002DE9F04786B004460D469046B7
:102850001E46FEF707FC6DB1074694F83430DBB234
:10286000012B0DD0A36B43F00053A363012006B0EE
:10287000BDE8F087A36B43F00063A3630120F6E794
:102880000023A36308EB0603E26D93421BD80323E6
:1028900084F8343023680022DA62636C012B01D0A3
:1028A0004FEA48284FF40071206801F02DFB0346E1
:1028B00078B122687B499163A06B1843A063012023
:1028C00084F83400D3E7A36B43F00073A3630120C3
:1028D000CDE74FF0FF3300937302019390230293EF
:1028E0000223039300230493012305936946206880
:1028F00001F0F8FA012E0CD9022323634146206827
:1029000001F032FB8246BAF1000F0AD1DDF80490E3
:102910002FE0012323634146206801F00DFB82462E
:10292000F1E723685F4A9A63A36B43EA0A03A36350
:10293000012084F834000023236398E7206801F025
:10294000A7F92870C0F307236B70C0F30743AB707F
:10295000000EE8700435A9F1040908F10108B8F186
:10296000070FEBD9FEF77EFBC01B0E9B98420ED2E1
:102970006BB12068436B13F4957F16D1436B13F44E
:10298000004FEFD0B9F1000FECD0D046E7E7236855
:10299000444A9A63A36B43F00043A363012384F882
:1029A000343000232363032061E7436B13F4807FFB
:1029B00008D0012E06D9636C032B03D001F01CFB59
:1029C000002837D123685A6B12F0080F3ED15A6B9A
:1029D00012F0020F46D15A6B12F0200F4ED1206830
:1029E000436B13F4001F55D0B9F1000F52D001F022
:1029F0004FF92870C0F307236B70C0F30743AB7027
:102A0000000EE8700435A9F10409FEF72BFBC01B8A
:102A10000E9B984201D2002BE1D12368214A9A6390
:102A2000A36B43F00043A363012084F83400002328
:102A300023631CE723681B499963A36B0343A363C8
:102A4000012084F834000023236310E7154A9A63B9
:102A5000A36B43F00803A363012084F83400002330
:102A6000236304E70F4A9A63A36B43F00203A36353
:102A7000012084F8340000232363F8E6094A9A63AE
:102A8000A36B43F02003A363012084F834000023E8
:102A90002363ECE640F23A538363012384F8343035
:102AA0000020E4E6FF0540002DE9F04788B0044629
:102AB0000D4690461E46FEF7D5FA6DB1074694F8CE
:102AC0003430DBB2012B0DD0A36B43F00053A36372
:102AD000012008B0BDE8F087A36B43F00063A36357
:102AE0000120F6E70023A36308EB0603E26D93429F
:102AF0001BD8032384F8343023680022DA62636C25
:102B0000012B01D04FEA48284FF40071206801F0F2
:102B1000FBF9034678B1226867499163A06B1843BB
:102B2000A063012084F83400D3E7A36B43F0007363
:102B3000A3630120CDE74FF0FF33029373020393A9
:102B4000902304930023059306930123079302A97E
:102B5000206801F0C7F9012E0CD9202323634146D8
:102B6000206801F031FA8246BAF1000F0AD1DDF88F
:102B70000C9033E0102323634146206801F00CFAE7
:102B80008246F1E723684C4A9A63A36B43EA0A033F
:102B9000A363012084F834000023236399E72B7892
:102BA0006A7843EA0223AA7843EA0243EA7843EACE
:102BB000026308A941F81C3D0435A9F10409206805
:102BC00001F069F808F10108B8F1070FE7D9FEF73D
:102BD00049FAC01B109B98420ED26BB12068436B20
:102BE00013F48D7F16D1436B13F4804FEFD0B9F1FE
:102BF000000FECD0D046E7E723682F4A9A63A36B17
:102C000043EA0A03A363012384F8343000232363D7
:102C100003205EE7436B13F4807F07D0012E05D9B4
:102C2000636C032B02D001F0E7F9C0B923685A6B3B
:102C300012F0080F1FD15A6B12F0020F27D15A6BF6
:102C400012F0100F2FD01C4A9A63A36B43F01003AD
:102C5000A363012084F834000023236339E7236849
:102C600015499963A36B0343A363012084F83400DF
:102C7000002323632DE7104A9A63A36B43F00803F4
:102C8000A363012084F834000023236321E70A4A68
:102C90009A63A36B43F00203A363012084F834001A
:102CA0000023236315E740F23A529A63012384F824
:102CB000343000200DE700BFFF05400070470000E2
:102CC00010B4436E9B0F0B70436EC3F383634B7062
:102CD00090F8673003F003038B7090F86630CB7088
:102CE00090F865300B7190F864304B71836E1B0D5A
:102CF000CB80B0F86A3003F00F030B72836EC3F31E
:102D0000C0334B72836EC3F380338B72836EC3F315
:102D10004033CB72836EC3F300330B7300234B73CA
:102D2000436C002B40F08880826E40F6FC7303EA0F
:102D30008203C26E43EA92730B61C36EC3F3C26334
:102D40000B7590F86F3003F007034B75C36EC3F338
:102D500042538B75C36EC3F38243CB75C36EC3F30B
:102D6000C2330B760B69013343650A7E02F007021A
:102D7000023203FA02F242650B7A03F00F040123D8
:102D8000A34083655B0A03FB02F3C3654FF4007342
:102D90000366C36EC3F380334B76C36EC3F3C613AF
:102DA0008B76C36E03F07F03CB76036FDB0F0B775D
:102DB000036FC3F341734B77036FC3F382638B7766
:102DC000036FC3F38353CB77036FC3F3405381F88F
:102DD0002030002381F82130B0F8722002F0010287
:102DE00081F82220026FC2F3C03281F82320026FE3
:102DF000C2F3803281F82420026FC2F3403281F89E
:102E00002520026FC2F3003281F82620026FC2F340
:102E1000812281F82720026FC2F3012281F8282045
:102E2000026FC2F3460281F82920012281F82A208C
:102E300018465DF8044B7047012B0BD003680E4A0F
:102E40009A63836B43F080538363012380F83430AB
:102E50001846EEE7836E1B0403F47C13B0F86E2073
:102E600013430B610B6901339B024365C3654FF448
:102E70000073836503668CE7FF05400070B590B072
:102E800004460123ADF81230006800F011FF00285D
:102E90006CD0636C032B45D1636C032B5DD1636CE9
:102EA000032B1DD0BDF8121021650904206801F024
:102EB00045F9054600285BD10021206800F011FF8C
:102EC00060660421206800F00CFFA06608212068DD
:102ED00000F007FFE0660C21206800F002FF206789
:102EE0000421206800F0FDFE000DE06405A92046E5
:102EF000FFF7E6FE00283ED1226D12040023206871
:102F000001F094F8054698BB234653F8106B93E8FC
:102F100007008DE80700043494E80E00304600F006
:102F20009BFE25E0206801F0F4F8054600BB002177
:102F3000206800F0D6FE60670421206800F0D1FE12
:102F4000A0670821206800F0CCFEE0670C21206813
:102F500000F0C7FEC4F880009EE70DF11201206862
:102F600001F001F90546002899D001E04FF0806595
:102F7000284610B070BD4FF08055F9E770B58AB0A3
:102F8000054600230493059306930793089376233D
:102F900009930AAB13E907008DE8070004AB0ECBD9
:102FA000286800F059FE18B1012420460AB070BD0F
:102FB0000446104E00233360286800F071FE0123A0
:102FC00033602846FFF788FB034630B1012485F8BB
:102FD0003440A86B1843A863E7E72846FFF74EFF85
:102FE00003460028E1D0012485F83440A86B18433B
:102FF000A863DAE7A0802542C0B110B5044690F876
:1030000034307BB1032384F834302046FFF7B6FF19
:10301000034670B90022A2632263012284F834209F
:10302000184610BD037704F0EBF8EBE701231846D0
:1030300070470123F4E7436C0B60836C4B60C36CF7
:103040008B60036DCB60436D0B61836D4B61C36D12
:103050008B61036ECB610020704710B582B00446CF
:1030600002A9002341F8043DFFF7D5FB18B1034640
:10307000A06B1843A0630198C0F3432002B010BDB9
:1030800010B5846B236840F23A529A632046FFF7EA
:10309000E4FF012384F8343000232363053801283A
:1030A00005D9A36B53B12046FFF708FE10BD206879
:1030B00000F0A2FFA36B1843A063F2E7204602F0E2
:1030C000AEFFF3E710B5846B236840F23A529A637F
:1030D0002046FFF7C2FF012384F834300023236326
:1030E0000538012805D9A36B53B12046FFF7E6FD4B
:1030F00010BD206800F080FFA36B1843A063F2E7C7
:10310000204602F08CFFF3E738B50446056B0368F0
:103110005A6B12F4004F02D015F0080F28D15A6BE9
:1031200012F4807F5AD04FF480729A632268D36B76
:1031300023F4414323F03A03D3632268D36A23F094
:103140000103D36215F0080F26D015F0220F12D11B
:10315000236840F23A529A63012384F83430002302
:10316000236315F0030F13D0204602F062FF01E045
:10317000FFF712FB38BD206800F03EFF0346002831
:10318000E6D0A26B1343A3632046FFF797FDDFE76A
:10319000204602F049FFEDE715F0800FEAD015F068
:1031A000200F0ED115F0030FE4D12268D36A23F06B
:1031B0000803D362012384F83430204602F034FF40
:1031C000D8E7206800F018FF03460028EAD0A26B79
:1031D0001343A3632046FFF771FDE3E75A6B12F434
:1031E000804F02D015F0080F4AD15A6B12F03A0FF7
:1031F000C0D05A6B12F0020F03D0A26B42F0020251
:10320000A2635A6B12F0080F03D0A26B42F00802BF
:10321000A2635A6B12F0200F03D0A26B42F020027F
:10322000A2635A6B12F0100F03D0A26B42F010028F
:10323000A26340F23A529A632268D36B23F49D73DF
:10324000D363206800F0D8FEA36B1843A06315F089
:10325000080F19D115F0800F8CD015F0300F1CD14C
:1032600015F0030F26D0236C174A1A65206CFEF761
:1032700029FA00283FF47EAF206CFFF723FF79E79F
:103280002046FFF7A4FA75E7012384F834300023C1
:1032900023632046FFF712FD6CE7E36B0B4A1A65C8
:1032A000E06BFEF70FFA00283FF464AFE06BFFF726
:1032B000E7FE5FE70023A363012284F83420236341
:1032C000204602F0ACFE55E7C5300008813000080A
:1032D0000268D36843F00103D3600268936803F087
:1032E0000703062B03D0136843F00103136000208B
:1032F000704700000368304A904212D0B0F1804F0E
:103300000FD0A2F57C4290420BD002F58062904231
:1033100007D002F58062904203D002F578429042D5
:1033200003D123F070034A681343234A90422AD002
:10333000B0F1804F27D0A2F57C42904223D002F515
:10334000806290421FD002F5806290421BD002F54D
:103350007842904217D002F57052904213D002F595
:10336000806290420FD002F5806290420BD0A2F5AD
:103370009832904207D002F58062904203D002F565
:103380008062904203D123F44073CA68134323F050
:1033900080034A69134303608B68C3620B688362CE
:1033A000054B984203D003F58063984201D10B6925
:1033B000036301234361704700000140A8B110B5C9
:1033C000044690F83D305BB1022384F83D30211D66
:1033D0002068FFF78FFF012384F83D30002010BDE7
:1033E00080F83C3003F0DAFFEEE701207047000080
:1033F00090F83C30012B3BD030B4012380F83C30B6
:10340000022380F83D3003685C689D6824F07004F6
:103410000A6822435A600368164A93421AD0B3F1ED
:10342000804F17D0A2F57C42934213D002F5806200
:1034300093420FD002F5806293420BD002F578429E
:10344000934207D002F57052934203D0A2F5943212
:10345000934204D125F080054A6815439D600123FD
:1034600080F83D30002380F83C30184630BC70476F
:1034700002207047000001400268D36823F4907373
:10348000D3600268536923F001035361202380F85D
:103490003A30704790F83930DBB2212B2AD183685B
:1034A000B3F5805F16D0036A5A1C02621A7803686B
:1034B0005A60C38C013B9BB2C384EBB90268D368EA
:1034C00023F08003D3600268D36843F04003D360E5
:1034D00000207047036A1B880268C3F30803536027
:1034E00003691BB9036A02330362E2E7036A01332B
:1034F0000362DEE702207047002070472DE9F04BA1
:1035000004460268136923F44053C1680B431361F6
:1035100083680269134342691343C2691A4301680D
:10352000CB6823F4164323F00C031343CB600268EB
:10353000536923F4407381690B435361C369B3F545
:10354000004F3BD00368714A934200F0AB8002F514
:103550008062934200F0A680FEF792FB4FF00009D4
:10356000061849EB090716EB000B47EB090C4FEA6D
:10357000CC0343EA5B734FEACB0293469C466368F5
:103580009A009B0F10EB0B0049EB0C01FDF71CFBA5
:103590005F4DA5FB00325109642202FB11021301A9
:1035A0003233A5FB03235B0903F0F00202EB0112A7
:1035B00003F00F03216813448B60A4E00368534AAF
:1035C000934239D002F58062934235D0FEF758FB22
:1035D00083464FF0000C06184CEB0C0716EB000866
:1035E00047EB0C094FEAC90343EA58734FEAC80294
:1035F0009046994662680021921841EB01031BEB4B
:1036000008004CEB0901FDF7DFFA414DA5FB003244
:103610005109642202FB1102D3003233A5FB0323BC
:103620005B095A0002F4F87202EB011203F007037F
:10363000216813448B6066E0FEF732FB80464FF052
:103640000009061849EB090716EB000B47EB090CBC
:103650004FEACC0343EA5B734FEACB0293469C46A6
:1036600062680021921841EB010318EB0B0049EB53
:103670000C01FDF7A9FA264DA5FB00325109642281
:1036800002FB1102D3003233A5FB03235B095A006E
:1036900002F4F87202EB011203F0070321681344ED
:1036A0008B6030E0FEF7FCFA4FF00009061849EB9A
:1036B000090716EB000B47EB090C4FEACC0343EA72
:1036C0005B734FEACB0293469C4663689A009B0F5C
:1036D00010EB0B0049EB0C01FDF776FA0C4DA5FB46
:1036E00000325109642202FB110213013233A5FB9F
:1036F00003235B0903F0F00202EB011203F00F0356
:10370000216813448B60BDE8F08B00BF00100140BE
:103710001F85EB512DE9F04105460F4616469846A8
:10372000069C2B681B6837EA03030CBF01230023A8
:10373000B3421DD1B4F1FF3FF3D02CB1FDF792FCA1
:10374000A0EB0800A042ECD92A68D36823F4D07318
:10375000D3602A68536923F001035361202385F85D
:10376000393085F83A30002385F83830032000E0FE
:103770000020BDE8F08158B310B5044690F8393008
:103780000BB3242384F839302268D36823F4005320
:10379000D3602046FFF7B2FE2268136923F49043FA
:1037A00013612268536923F02A0353612268D368A6
:1037B00043F40053D3600020E063202384F83930C1
:1037C00084F83A3010BD80F8383003F0FFFDD8E7B8
:1037D000012070472DE9F04383B01E4690F8393040
:1037E000DBB2202B56D104460D469046002956D018
:1037F000002A56D090F83830012B54D0012380F89D
:1038000038304FF00009C0F83C90212380F839305F
:10381000FDF728FC0746A4F82480A4F8268084F845
:10382000389010E000963B46002280212046FFF7AA
:1038300071FF002839D12B882268C3F30803536035
:103840002369C3B90235E38C9BB2B3B1E38C013B6E
:103850009BB2E384A368B3F5805FE3D000963B4658
:10386000002280212046FFF755FF00BB2A782368FD
:103870005A600135E7E70135E5E700963B4600224F
:1038800040212046FFF746FF034690B9202284F8E6
:10389000392000E00223184603B0BDE8F08301237D
:1038A000F9E70123F7E70223F5E70323F3E703230F
:1038B000F1E70323EFE790F83A30DBB2202B20D179
:1038C00009B312B390F83830012B20D08162828581
:1038D000C2850023C363222280F83A2080F8383062
:1038E0000168CA6842F48072CA6001684A6942F09D
:1038F00001024A610168CA6842F02002CA601846A3
:103900007047022070470120704701207047022055
:103910007047704708B50168CB6823F04003CB605F
:10392000202380F83930FFF7F4FF002008BD08B5E8
:1039300090F83A30DBB2222B45D18368B3F5805F33
:103940000ED0036903BB03685A68836A591C8162FD
:103950001A70C38D013B9BB2C385F3B1002033E0E5
:10396000826A036943B903685B68C3F30803138081
:10397000836A02338362ECE703685B68DBB213801F
:10398000836A01338362E4E703685B68826A511CDF
:10399000816203F07F031370DBE70268D36823F0D2
:1039A0002003D3600268D36823F48073D360026875
:1039B000536923F001035361202380F83A3002F069
:1039C0002BFD002000E0022008BD704710B5044622
:1039D00002681368D168526913F00F0005D113F023
:1039E000200F02D011F0200F56D100286AD012F01B
:1039F000010202D111F4907F64D013F0010F06D0C0
:103A000011F4807F03D0E06B40F00100E06313F01D
:103A1000040F04D01AB1E06B40F00200E06313F031
:103A2000020F04D01AB1E06B40F00400E06313F021
:103A3000080F07D011F0200F00D11AB1E26B42F04D
:103A40000802E263E26B002A48D013F0200F02D094
:103A500011F0200F24D123685B6903F04003E26B6F
:103A600012F0080F00D13BB32046FFF705FD236895
:103A70005A6912F0400F1BD05A6922F040025A6175
:103A8000636B8BB11A4A1A65606BFDF71BFE28B396
:103A9000606B036D984721E02046FFF748FF1DE06B
:103AA0002046FFF744FFD6E72046FFF78EFF15E0DC
:103AB0002046FFF78AFF11E02046FFF786FF00232C
:103AC000E3630BE013F0800F02D011F0800F06D1FA
:103AD00013F0400F02D011F0400F04D110BD20466A
:103AE000FFF7D8FCFAE72046FFF714FFF6E700BF20
:103AF000F53A000808B5806B0023C385C384FFF73F
:103B000064FF08BD0B4B1B680B4AA2FB03235A0A38
:103B100041F2883303FB02F35A1E43B1416B134653
:103B200011F0800FF8D0C5238363002070474FF059
:103B30000040704764000020D34D6210154B1B6895
:103B4000154AA2FB03235A0A41F2883303FB02F30E
:103B50005A1EDBB1416B134611F0450FF8D011F43A
:103B6000006FF5D1436B13F0040F07D1436B13F0D3
:103B7000010F07D1C52383630020704704238363AB
:103B80001846704701238363184670474FF0004082
:103B9000704700BF64000020D34D6210114B1B68BA
:103BA000114AA2FB03235A0A41F2883303FB02F3B2
:103BB0005A1E9BB1416B134611F0450FF8D011F41A
:103BC000006FF5D1436B13F0040F03D1C52383635A
:103BD0000020704704238363184670474FF000406D
:103BE000704700BF64000020D34D6210184B1B6863
:103BF000184AA2FB03235A0A41F2883303FB02F35B
:103C00005A1EFBB1416B134611F0450FF8D011F469
:103C1000006FF5D1436B13F0040F0BD1436B13F01E
:103C2000010F0BD1436B13F0400F0ED04023836381
:103C30000020704704238363184670470123836381
:103C4000184670474FF0004070470020704700BF93
:103C500064000020D34D621084B010B402AC84E83C
:103C60000E000B46039A1343049A1343059A134319
:103C7000069A1343079A1343426822F4FD4222F046
:103C80007F021343436000205DF8044B04B070478B
:103C9000D0F8800070470B68C0F880300020704773
:103CA00008B5032303600220FDF7E2F9002008BDF8
:103CB000006800F0030070470B6883604B688A68F7
:103CC0001343CA6813430A691343C26822F47F622C
:103CD00022F00F021343C360002070470069C0B296
:103CE000704714304058704738B5524B1B68524CDF
:103CF000A4FB03435B0A02FB03F2531E002A60D0BD
:103D0000446B1A4614F0450FF7D014F4006FF4D149
:103D1000436B13F0040F07D1436B13F0010F07D06F
:103D20000123836318464EE00423836318464AE068
:103D30000D460446C5238363FFF7D0FFA84201D098
:103D4000012040E000212046FFF7CBFF3B4B034022
:103D5000D3B300283ADB10F0804F3AD110F0005F67
:103D600039D110F0805F38D110F0006F38D110F0E9
:103D7000806F38D110F0807F38D110F4000F38D127
:103D800010F4800F38D110F4001F38D110F4801FC8
:103D900038D110F4802F38D110F4003F38D110F40E
:103DA000803F38D110F4004F38D110F4804F38D113
:103DB00010F4005F38D110F0080F38D04FF4000035
:103DC00001E04FF0004038BD0020FCE74FF00070EC
:103DD000F9E74020F7E78020F5E74FF48070F2E73D
:103DE0004FF40070EFE74FF48060ECE74FF40060B1
:103DF000E9E74FF48050E6E74FF40050E3E74FF473
:103E00008040E0E74FF40040DDE74FF40030DAE7B0
:103E10004FF48020D7E74FF40020D4E74FF4801010
:103E2000D1E74FF40010CEE74FF48000CBE74FF41A
:103E30008030C8E764000020D34D621008E0FFFD29
:103E400070B5264B1B68264CA4FB03435C0A41F269
:103E5000883303FB04F35C1EB3B3456B234615F0B4
:103E6000450FF8D015F4006FF5D1436B13F0040F34
:103E700007D1436B13F0010F07D00123836318466A
:103E800024E004238363184620E016460D460446CA
:103E9000FFF724FFA84201D0012017E0C523A36348
:103EA00000212046FFF71DFF10F4604F08D010F4EA
:103EB000804F0CD110F4004F0CD04FF4805005E02F
:103EC000000C3080002001E04FF0004070BD4FF446
:103ED0000050FBE74FF48030F8E700BF640000209B
:103EE000D34D62100B6843624B6883628B68CA686B
:103EF00013430A6913434A691343C26A22F0F70263
:103F00001343C3620020704730B587B00546019166
:103F10001024029440230393002304934FF48063FE
:103F2000059301A9FFF7C8FE41F2883221462846D1
:103F3000FFF7DAFE07B030BD30B587B00546019116
:103F40001124029440230393002304934FF48063CD
:103F5000059301A9FFF7B0FE41F2883221462846B9
:103F6000FFF7C2FE07B030BD30B587B005460191FE
:103F70001224029440230393002304934FF480639C
:103F8000059301A9FFF798FE41F2883221462846A1
:103F9000FFF7AAFE07B030BD30B587B005460191E6
:103FA0001824029440230393002304934FF4806366
:103FB000059301A9FFF780FE41F288322146284689
:103FC000FFF792FE07B030BD30B587B005460191CE
:103FD0001924029440230393002304934FF4806335
:103FE000059301A9FFF768FE41F288322146284671
:103FF000FFF77AFE07B030BD30B587B00546002325
:1040000001930C2402944022039204934FF48063A2
:10401000059301A9FFF750FE034A21462846FFF702
:1040200063FE07B030BD00BF00E1F50530B587B0D5
:10403000054601920724029440230393002304932E
:104040004FF48063059301A9FFF736FE41F28832F1
:1040500021462846FFF748FE07B030BD10B586B0B0
:104060000446002301930293039304934FF4806367
:10407000059301A9FFF720FE2046FFF743FD06B098
:1040800010BD10B586B004464FF4D57301930823D4
:10409000029340230393002304934FF4806305931A
:1040A00001A9FFF709FE2046FFF7A0FD06B010BDED
:1040B00030B587B00546019137240294402303931D
:1040C000002304934FF48063059301A9FFF7F4FDE7
:1040D00041F2883221462846FFF706FE07B030BD80
:1040E00010B586B0044641F0004141F480110191C1
:1040F0002923029340230393002304934FF4806306
:10410000059301A9FFF7D8FD2046FFF747FD06B04C
:1041100010BD10B586B0044600230193022202921E
:10412000C022039204934FF48063059301A9FFF723
:10413000C3FD2046FFF702FD06B010BD10B586B0E6
:104140000446019109230293C0230393002304939F
:104150004FF48063059301A9FFF7AEFD2046FFF7FA
:10416000EDFC06B010BD70B586B005460E460023C6
:104170000193032402944022039204934FF480633A
:10418000059301A9FFF798FD324621462846FFF71F
:1041900057FE06B070BD30B587B0054601910D24BD
:1041A000029440230393002304934FF48063059308
:1041B00001A9FFF781FD41F2883221462846FFF729
:1041C00093FD07B030BD000008B5044B03EB80023F
:1041D000526852680344187A904708BD8002002054
:1041E00008B5084B1B5C53B9064B01221A5403EB6C
:1041F0008002526812681844007A904708BD002077
:10420000FCE700BF8002002038B5044C04EB8005B9
:104210006D68AD680444207AA84738BD800200204C
:1042200038B5044C04EB80056D68ED680444207AD1
:10423000A84738BD8002002010B5044B03EB800472
:10424000646824690344187AA04710BD80020020E6
:104250004278007840EA02207047C278837843EAC7
:104260000222437843EA0223007840EA03207047A1
:104270000170090A417070470170C1F30723437050
:10428000C1F307438370090EC170704713462AB10A
:104290000A78027001300131013BF9D17047017099
:1042A0000130013AFBD1704730B4451C03780878DF
:1042B0001B1A013A04D04C1C28462146002BF4D08E
:1042C000184630BC704700E0013003780BB18B42D8
:1042D000FAD118467047000030B400252B4601E0A3
:1042E00001250133012B15D81A01174CA258002AB9
:1042F000F6D00468A242F4D1134A02EB03125468C8
:1043000082689442EDD1104A02EB0312946842692C
:104310009442E6D1022B0AD0A1B90B4A02EB031357
:104320009B89B3F5807F07D0002030BC70472DB942
:10433000022905D10020F8E71020F6E70020F4E775
:104340001220F2E71020F0E758020020002000E0E1
:104350000130012804D80301034AD358002BF7D1B8
:10436000023818BF012070475802002070B40023A3
:1043700000E00133012B13D81A01244CA458026821
:104380009442F6D1214A02EB0312546882689442A7
:10439000EFD11E4A02EB0312946842699442E8D1BD
:1043A000022B29D021B1194A02EB0312928952BB88
:1043B00021BB164A02EB03129189013189B2134ADB
:1043C00002EB03129181581C70BC70470133012B22
:1043D00004D81A010D4CA258002AF7D1022B10D094
:1043E00006680A4D1C012A192E51846854604069E0
:1043F000906000209081D5E70023E8E74FF48071BA
:10440000DDE70020E0E70020DEE700BF58020020E3
:104410000138012815D80D4B03EB00139B89B3F528
:10442000807F03D01BB1013B9BB200E00023074A11
:1044300002EB0012938133B903010020034AD050EC
:104440007047022070470020704700BF58020020CC
:10445000002303E05DF8044B70470133012B11D8B2
:104460001A0109498A588242F7D110B41A0100246E
:104470008C500133012BEDD81A0103498A5882422E
:10448000F7D1F3E7704700BF580200200239836973
:10449000023B8B4204D94389C06A01FB0300704789
:1044A0000020704710B40468C26A0432A389B1FBCB
:1044B000F3F16389B1FBF3F1106830B1814202D3AB
:1044C000091A0832F8E7506808445DF8044B704751
:1044D00070B506460D4601F11A00FFF7B9FE3378B4
:1044E000032B00D070BD044605F11400FFF7B0FEA9
:1044F00044EA0040F6E770B506460C46154691B210
:1045000004F11A00FFF7B4FE3378032B00D070BD1E
:10451000290C04F11400FFF7ABFEF8E72DE9F84F82
:1045200082468B460F6800F124090B222021484661
:10453000FFF7B5FE002633464FF008082CE00135A2
:104540007B5D2F2BFBD05C2BF9D03D44CBF800508A
:10455000002E43D09AF82430E52B35D0202C37D8C4
:1045600004238AF82F30002028E008264FF00B089B
:1045700011E014F0800F23D121461948FFF7A3FE64
:1045800050BBA4F16103DBB2192B01D8203CE4B28B
:1045900009F8064001362B465D1CFC5C202CD4D962
:1045A0002F2CCDD05C2CCBD02E2C01D0B045E0D818
:1045B000B8F10B0F0ED02E2CD7D00620BDE8F88F07
:1045C000803C084B1C5DD7E705238AF82430C5E7FB
:1045D0000023C6E70620F1E70620EFE70620EDE717
:1045E0002CA00008609F0008016809B10A4603E09A
:1045F0004FF0FF3308E001321378202B01D93A2B1A
:10460000F9D13A2B02D000231846704710B44C1C45
:104610000B78303B092B08D8A24209D15BB9013293
:10462000026018465DF8044B70474FF0FF33F8E71F
:104630004FF0FF33F5E74FF0FF33F2E738B50D46A3
:10464000A8B104460368ABB11A78AAB18188DA88A8
:10465000914203D0092000232B6038BD5878FFF722
:10466000B3FD10F0010F0AD123680020F4E7092000
:104670000023F1E70920EFE709200023ECE70920F8
:104680000023E9E7F8B5C3780BB90020F8BD04466C
:10469000056B00F1340701232A4639464078FFF7BD
:1046A000BFFDA8B90023E370636AEB1AE269934285
:1046B00010D2A678012E09D9E3691D4401232A46A8
:1046C00039466078FFF7ACFD013EF3E70020DDE7F7
:1046D0000120DBE70020D9E770B5036B8B4212D0D5
:1046E00004460D46FFF7CEFF064668B901232A4669
:1046F00004F134016078FFF787FD10B101264FF017
:10470000FF35256300E00026304670BD10B5044635
:104710000023C3704FF0FF330363FFF7DDFF18BBC7
:1047200004F23220FFF794FD4AF6552398421DD13A
:1047300094F83430E92B05D0636B03F0FF130F4A74
:10474000934215D104F16A00FFF787FD20F07F4006
:104750000B4B98420ED004F18600FFF77EFD094B0B
:10476000984209D1002002E0042000E0032010BD9F
:104770000220FCE70020FAE70220F8E7EB009000B7
:1047800046415400464154332DE9F04F87B00F465F
:10479000164600230B60FFF727FF051EC0F2678156
:1047A000C94B03EB85031C6A002C00F064813C605C
:1047B00006F0FE06237873B16078FFF705FD10F070
:1047C000010F08D1002E00F0588110F0040F40F0C6
:1047D000568100204CE100232370E8B26070FFF79F
:1047E000FFFC10F0010F40F04C811EB110F0040FDF
:1047F00040F0498104F10C0202216078FFF71CFDB2
:10480000002840F04281A289A2F500739BB2B3F563
:10481000606F00F23C81531E1A4201D0012027E153
:1048200000212046FFF772FF022800F0A08000253B
:10483000042800F02E81012800F22D8104F13F00B0
:10484000FFF706FDA789B84240F0278104F14A002E
:10485000FFF7FEFC804620B904F15800FFF7FDFC8D
:104860008046C4F81C8094F84460A670731EDBB2C6
:10487000012B00F2148108FB06F694F84190A4F88D
:104880000A90B9F1000F00F00C8109F1FF3319EA29
:10489000030F40F0088104F14500FFF7D9FC824680
:1048A00020814FEA571BB0FBFBF30BFB13039BB2BA
:1048B000002B40F0FA8004F14700FFF7C9FC01909B
:1048C00020B904F15400FFF7C8FC019004F1420044
:1048D000FFF7BEFC0146002800F0E9808219BAFB10
:1048E000FBFB5A44019B9342C0F0E3809B1AB3FB4D
:1048F000F9F9B9F1000F00F0DE804FF6F573994534
:104900004DD94FF0030B40F6F573994501D84FF0A0
:10491000010B09F10209C4F8189025624B19636272
:104920002A44E262BBF1030F3CD0BAF1000F00F061
:10493000C8803344A362BBF1020F68D14FEA490932
:1049400042E0002006AB03EB850343F8100C013571
:10495000032D0ED804F134002B0103F5DF73184446
:104960000379002BEDD00830FFF777FCEAE700254C
:10497000EEE700260AE029462046FFF7C7FE012899
:104980007FF656AF0136032E3FF652AF06AB03EB70
:10499000860353F8105C002DEDD10320F2E74FF0B1
:1049A000020BB0E704F15E00FFF752FC002840F074
:1049B0008480BAF1000F40F0828004F16000FFF7BC
:1049C0004CFCA0624FEA8909B94409F1FF33B3FBFB
:1049D000F7F747457ED84FF0FF33636123618023AB
:1049E0002371BBF1030F05D104F16400FFF730FC24
:1049F000012813D084F800B0334A938C01339BB262
:104A00009384E3802046FFF723FD002030E009EB8C
:104A1000490309F0010909EB5309D5E7691C204650
:104A2000FFF75AFE0028E5D10023237104F232205B
:104A3000FFF70EFC4AF655239842DBD104F134000F
:104A4000FFF70BFC214B9842D4D104F50670FFF719
:104A500004FC1F4B9842CDD104F50770FFF7FDFB16
:104A6000606104F50870FFF7F8FB2061C2E70B20D6
:104A700007B0BDE8F08F0C20FAE70020F8E70A2025
:104A8000F6E70320F4E70A20F2E70120F0E701202F
:104A9000EEE70120ECE70D20EAE70D20E8E70D2026
:104AA000E6E70D20E4E70D20E2E70D20E0E70D202A
:104AB000DEE70D20DCE70D20DAE70D20D8E70D203A
:104AC000D6E70D20D4E700BF5802002052526141C2
:104AD000727241610D20CBE72DE9F047012940F2C8
:104AE000928083698B4240F2908017460D460446BF
:104AF0000378022B4DD0032B64D0012B01D002266A
:104B000084E001EB5108416A8389B8FBF3F319444F
:104B1000FFF7E2FD0646002878D104F1340908F1D8
:104B2000010AA289B8FBF2F302FB138815F0010514
:104B300024D019F9083003F00F033A0102F47F6220
:104B40001343DBB209F808300123E370616AA389DB
:104B5000BAFBF3F319442046FFF7BEFD06460028D2
:104B600054D1A289BAFBF2F302FB13AA45B1C7F3F1
:104B7000071209F80A200123E37047E0FBB2E1E7DE
:104B800019F90A2022F00F02C7F303273A43D2B2E1
:104B9000EFE7416A83895B08B5FBF3F31944FFF73C
:104BA0009BFD064690BB04F134006D00A289B5FB65
:104BB000F2F302FB1355B9B22844FFF759FB012366
:104BC000E37023E0416A83899B08B5FBF3F3194442
:104BD000FFF782FD0646C8B927F0704704F1340399
:104BE000A900A289B1FBF2F502FB15151D44284668
:104BF000FFF733FB00F0704139432846FFF73CFBD9
:104C00000123E37002E0022600E002263046BDE800
:104C1000F087F8B5066801296AD9B3698B4269D96A
:104C20000C463378022B35D0032B49D0012B01D011
:104C300001205EE001EB5105716AB389B5FBF3F326
:104C400019443046FFF748FD002855D16F1CB38941
:104C5000B5FBF3F203FB1255354495F83450716AF5
:104C6000B7FBF3F319443046FFF736FD002846D171
:104C7000B289B7FBF2F302FB13773E4496F8340097
:104C800045EA002014F0010F01D0000931E0C0F323
:104C90000B002EE0716AB3895B08B4FBF3F319448F
:104CA0003046FFF719FD68BB06F134006100B28998
:104CB000B1FBF2F302FB13110844FFF7C9FA18E045
:104CC000716AB3899B08B4FBF3F319443046FFF7CC
:104CD00003FDD0B906F13400A100B389B1FBF3F4B0
:104CE00003FB14110844FFF7B8FA20F0704000E00D
:104CF0000120F8BD0120FCE74FF0FF30F9E74FF04D
:104D0000FF30F6E74FF0FF30F3E74FF0FF30F0E70A
:104D10002DE9F0410768B1F5001F43D206460D4664
:104D200011F01F0F41D1716184681CB93B78022BCF
:104D300000D9BC6ACCB93B89B3EB551F37D9BB6AE4
:104D4000F361B461F369002B39D0BA89B5FBF2F293
:104D50001344F36107F13403B989B5FBF1F201FBA8
:104D600012551D44356200201DE07B89B7F80C8088
:104D700008FB03F845450FD321463046FFF749FFAE
:104D80000446B0F1FF3F14D0012814D9BB69834217
:104D900013D9A5EB0805EDE721463846FFF776FB6A
:104DA000F061CEE70220BDE8F0810220FBE702209F
:104DB000F9E70120F7E70220F5E70220F3E70220F8
:104DC000F1E72DE9F04107460668884631B93569B3
:104DD0008DB1B369AB420FD801250DE0FFF719FF84
:104DE0000346012847D9B0F1FF3F49D0B26982425A
:104DF00046D8454600E001252C460CE021463846C1
:104E0000FFF707FF034670B1012839D0B0F1FF3F2B
:104E100036D0AC4233D00134B369A342EED8012D71
:104E20002BD90224EAE74FF0FF3221463046FFF744
:104E300053FE034610B9B8F1000F0ED1A3B9346187
:104E40007269B369023B9A4201D8013A72613379BF
:104E500043F001033371234612E0224641463046B7
:104E6000FFF73AFE0346E9E7012B01D0012307E0F3
:104E70004FF0FF3304E0012302E0002300E00023B1
:104E80001846BDE8F081F8B50E46056801292ED90F
:104E900007461146AB69B3422CD952B14FF0FF32ED
:104EA0002846FFF719FE844618B125E02646A2429F
:104EB00022D931463846FFF7ACFE0446F0B101284E
:104EC0001FD0B0F1FF3F1FD0002231462846FFF728
:104ED00003FE844680B96B69AA69911E8B42E5D2B4
:104EE00001336B612B7943F001032B71DEE74FF047
:104EF000020C01E04FF0020C6046F8BD4FF0000CD0
:104F0000FAE74FF0020CF7E74FF0010CF4E72DE958
:104F1000F04106684569C369002B72D02035B5F5AC
:104F2000001F70D20F460446B189B5FBF1F201FBB8
:104F300012523AB90133C3618169A1B93389B3EB24
:104F4000551F0CD9656106F13403B189B5FBF1F247
:104F500001FB12551D4425620020BDE8F0810023AD
:104F6000C3610420F9E7B289B5FBF2F27389013B12
:104F70001A42E7D1FFF74DFE8046012845D9B0F12E
:104F8000FF3F44D0B369834233D88FB1A169204633
:104F9000FFF717FF804600283BD001283BD0B0F137
:104FA000FF3F3AD03046FFF76DFB28B10120D4E730
:104FB0000023E3610420D0E7B289002106F1340028
:104FC000FFF76DF941463046FFF760FA306300277E
:104FD00073899F420AD20123F3703046FFF752FBD8
:104FE000E8B90137336B01333363F1E7336BDB1B14
:104FF0003363C4F8188041463046FFF747FAE06152
:10500000A0E70420A9E70420A7E70220A5E70120E4
:10501000A3E70720A1E702209FE701209DE70120E9
:105020009BE770B5044606680021FFF771FE054650
:1050300040B1284670BD00212046FFF768FF0546B5
:105040000028F6D1E1693046FFF746FB0546002807
:10505000EFD1206A03787BB1C37A03F03F03A371D9
:10506000C37A13F0080FE6D10B2204F12401FFF7F5
:105070001BF90028DFD1DCE70425DAE730B583B07F
:1050800004460191056801E001330193019B1A7800
:105090002F2AF9D05C2AF7D00022A2601B781F2BA0
:1050A00021D901A92046FFF739FA034618BB20464B
:1050B000FFF7B7FF94F82F200346F8B912F0040F5A
:1050C00019D1A37913F0100F1FD005F134016069D5
:1050D000AA89B0FBF2F302FB130319442846FFF739
:1050E000F7F9A060DDE7802384F82F3011462046D1
:1050F000FFF70EFE0346184603B030BD0428FAD170
:1051000012F0040FF7D10523F5E70523F3E7F8B50F
:1051100004460F4606680021FFF7FAFD0346C0B9B2
:10512000002508E00135BD4213D001212046FFF7DC
:10513000EEFE034668B9E1693046FFF7CDFA034653
:1051400038B9226A1278E52AECD0002AEAD0002584
:10515000EBE7042B01D01846F8BD0723FBE770B539
:10516000044606680121FFF7D2FF054608B128462C
:1051700070BDE1693046FFF7AFFA05460028F6D169
:1051800020220021206AFFF78AF80B2204F1240173
:10519000206AFFF77BF80123F370E8E770B5044657
:1051A000FFF770FA054648B92378032B08D0002290
:1051B00011466078FFF740F800B10125284670BD20
:1051C0002379012BF3D104F13406A2890021304662
:1051D000FFF765F84AF6552104F23220FFF748F848
:1051E0000E493046FFF748F80D4904F50670FFF701
:1051F00043F8616904F50770FFF73EF8216904F58B
:105200000870FFF739F8226A013222630123314620
:105210006078FFF705F800232371C8E75252614117
:105220007272416170B584B001900091164604A875
:1052300040F8041DFFF7D8F9041E1EDB114B03EBE9
:1052400084031D6A25B12846FFF702F900232B705D
:10525000019B0BB100221A70019B0A4800EB8400ED
:10526000036263B1012E02D0002004B070BD0022A1
:1052700001A96846FFF788FAF7E70B20F5E7002059
:10528000F3E700BF580200202DE9F04391B00191EF
:10529000002800F012810546164602F03F073A4604
:1052A00003A901A8FFF770FA044630B10CB100233E
:1052B0002B60204611B0BDE8F083039B0493019955
:1052C00004A8FFF7DBFE044660B99DF93F30002BD0
:1052D00051DB37F0010314BF0121002104A8FEF7C0
:1052E000FBFF044616F01C0F5BD0002C4FD0042CA3
:1052F00043D047F00807002C62D117F0080F5FD0A9
:1053000000F0C0FE064601460C980E30FEF7B4FFD2
:1053100031460C981630FEF7AFFF0C9B2022DA7254
:10532000039EDDF8308041463046FFF7D1F88146D4
:10533000002241463046FFF7DEF800210C981C3071
:10534000FEF79AFF039B0122DA70B9F1000F37D004
:10535000039B1E6B0022494604A8FFF794FD0446F8
:1053600070BB31460398FFF7B7F9044609F1FF33E4
:10537000039A136124E00624B4E7FEF7E7FF08B9B7
:105380001224B6E704A8FFF7EAFE0446B1E79DF849
:10539000163013F0110F12D116F0040FABD0082401
:1053A0000EE06CB99DF8163013F0100F4ED116F0C8
:1053B000020F05D013F0010F02D0072416E00724D6
:1053C000A4B917F0080F01D047F04007039B1B6BEF
:1053D0006B620C9BAB6237F0010314BF012100210B
:1053E00004A8FEF7C3FF2861002864D0002C7FF4D6
:1053F0005DAF039EDDF8308041463046FFF768F828
:10540000A86008F11C00FEF728FFE8600021E962AF
:105410002E60F388AB802F7569752962A96105F14B
:1054200030084FF480524046FEF739FF17F0200F46
:105430003FF43CAFEE68002E3FF438AFAE61039B03
:105440005A899F8907FB02F7A96805E00424CDE784
:10545000B1F1FF3F0BD0F61B5CB9BE4209D928461B
:10546000FFF7D7FB01460128F2D80224F0E7012418
:10547000F1E7E961002C7FF419AF039FB7F80C90B6
:10548000B6FBF9F309FB1363002B3FF40FAF38466B
:10549000FEF7FCFF08B9022409E7B6FBF9F2024463
:1054A0002A62012341467878FEF7AEFE00283FF4D9
:1054B000FDAE0124FBE60224F8E60924F9E62DE915
:1054C000F04F85B004468846164699460023C9F831
:1054D0000030019003A9FFF7B1F80746002846D134
:1054E000677D002F43D1237D13F0020F00F0DA8097
:1054F000A369F342C0F0A880DE43A5E0E36A002B75
:1055000039D02046FEF7CEFF002800F0C6800128E3
:1055100036D0B0F1FF3F36D0E061A36803B9A06098
:1055200094F91430002B31DBDDF80CB0E1695846FA
:10553000FEF7ACFF00283AD02B180093BBF80CA064
:10554000B6FBFAFABAF1000F4CD005EB0A03BBF830
:105550000A20934201D9A2EB050A5346009A41461C
:105560009BF80100FEF75CFE20B301276775384603
:1055700005B0BDE8F08FE1690198FFF722FCC3E7B1
:1055800002276775F3E701276775F0E70123226AB1
:1055900004F1300103984078FEF742FE20B9237DE4
:1055A00003F07F032375BFE701276775DFE7022755
:1055B0006775DCE7216A009BC91A514504D3039B38
:1055C0009B890AFB03FA2FE0039B9B891A4603FB86
:1055D000018104F13000FEF759FE237D03F07F03C3
:1055E0002375ECE7236A009A934203D0A269E3682B
:1055F0009A4245D3009B2362039BB3F80CA0A06999
:10560000B0FBFAF30AFB1303AAEB030A564500D2D8
:10561000B24604F13000524641461844FEF736FEC9
:10562000237D63F07F032375D044A3695344A361B2
:10563000E268934238BF1346E360D9F80030534420
:10564000C9F80030A6EB0A063EB3A169039A958912
:10565000B1FBF5F305FB1313002BCDD1B1FBF5F531
:105660005389013B1D407FF45BAF00297FF446AFB7
:10567000A06800287FF448AF0198FFF7A2FB43E73A
:105680000123009A04F130019BF80100FEF7BCFDF4
:105690000028AFD00127677569E7237D43F04003F9
:1056A000237564E7072762E770B582B0044601A955
:1056B000FEF7C4FF034678B9227D12F0400F0BD0ED
:1056C00012F0800F0BD100F0DDFC0646616A0198F4
:1056D000FFF702F8034680B1184602B070BD0123FF
:1056E000226A04F1300101984078FEF799FD48BB29
:1056F000237D03F07F032375E5E7A56AEB7A43F08A
:105700002003EB72A26829462068FEF7F4FEE168E8
:1057100005F11C00FEF7B0FD314605F11600FEF75D
:10572000ABFD002105F11200FEF7A2FD019B012255
:10573000DA700198FFF732FD0346227D22F0400225
:105740002275C9E70123C7E710B582B00446FFF709
:10575000ABFF034610B1184602B010BD01A92046A8
:10576000FEF76CFF03460028F5D12069FEF750FED6
:1057700003460028EFD100222260ECE7104B5B7A51
:10578000DBB930B40E4B5D7AEDB200245C555D7A26
:1057900003EB85056860587A184402725A7AD2B2CF
:1057A000501CC0B2587230320A703A234B702F230B
:1057B0008B70CC70204630BC70470120704700BF12
:1057C0008002002008B50022FFF7D8FF08BD10B402
:1057D00013880478CC54138801334078C854138854
:1057E000023313805DF8044B704710B413880478BB
:1057F000CC54138801334078C85413880233138083
:105800005DF8044B704710B413880478CC541388A7
:1058100001334478CC54138802338478CC541388F1
:105820000333C078C8541388043313805DF8044BE5
:10583000704710B413880478CC541388013344782B
:10584000CC54138802338478CC5413880333C07843
:10585000C8541388043313805DF8044B70471388D1
:105860000078C854138801331380704710B50C4674
:105870002A2102F01AF9002302E014F8012B534008
:105880008442FAD1184610BD0246A0F13003D8B2C6
:10589000092800D90020A2F14103DBB2052B02D870
:1058A000A2F13703D8B2A2F16103DBB2052B02D813
:1058B000A2F15700C0B2704738B52A2102F0F5F8BE
:1058C00005464078FFF7E0FF000184B2A878FFF7B3
:1058D000DBFF14FA80F080B238BD02E00139C9B2B2
:1058E000013021B103782C2BF8D00130F9E7704753
:1058F000F8B52DED028BB0EE408A10EE100AFAF7E3
:10590000EBFD9FED131B41EC100B01F0CBFE57ECB0
:10591000106B9FED117AC8EE077AFDEEE77AF8EE8C
:10592000E77A17EE900AFAF7D7FD04460D460022F3
:105930000A4B30463946FAF751FF02460B462046DD
:105940002946FAF76BFC41EC100BBDEC028BF8BD5D
:1059500000000000000059400000C84200004E4016
:105960002DE9F8430446C51C9B49284602F0AAF8D5
:1059700006469A49284602F0A5F8002E00F0A580B8
:10598000711C2846FFF772FF06462846FFF794FF72
:10599000864222D0D4F860320133C4F86032D4EDAC
:1059A0009A7AF8EE676AD4F86032D4F86422134425
:1059B00017EE902AD31807EE903AF8EE677A86EE43
:1059C000A77ADFED877A67EE277AFCEEE77A17EEA3
:1059D000903A84F85D32BDE8F88302212846FFF74B
:1059E0007CFF0378412B05D0D4F864320133C4F82E
:1059F0006432D4E704F2032703212846FFF76DFF42
:105A0000064604212846FFF768FF821B013A31460B
:105A1000384602F007F804F2172605212846FFF75A
:105A20005CFF804606212846FFF757FFA0EB0802DF
:105A3000013A4146304601F0F5FF04F22B280721D8
:105A40002846FFF74AFF814608212846FFF745FF11
:105A5000A0EB0902013A4946404601F0E3FF404607
:105A600001F0B1FFFAF726FD59A3D3E90023FAF7B5
:105A70008BFDFBF739F884F85C02384601F0A0FF93
:105A800051EC100BFBF750F800EE100AFFF730FF57
:105A900051EC100BFBF748F8C4F85402304601F003
:105AA0008FFF51EC100BFBF73FF800EE100AFFF7E9
:105AB0001FFF51EC100BFBF737F8C4F85802D4F86D
:105AC00068320133C4F8683269E700283FF467AFF1
:105AD000411C2846FFF7CAFE06462846FFF7ECFEA3
