:020000040800F2
:10000000000004202D3E0008593D00085B3D00081B
:100010005D3D00085F3D0008613D000800000000F4
:10002000000000000000000000000000633D000828
:10003000653D000800000000673D0008693D0008BC
:100040007D3E00087D3E00087D3E00087D3E0008A4
:100050007D3E00087D3E00087D3E00087D3E000894
:100060007D3E00087D3E00087D3E00087D3E000884
:100070007D3E00087D3E00087D3E00087D3E000874
:100080007D3E00087D3E00087D3E00087D3E000864
:10009000713D0008813D00087D3E00087D3E00085E
:1000A0007D3E00087D3E00087D3E00087D3E000844
:1000B0007D3E00087D3E00087D3E00087D3E000834
:1000C0007D3E00087D3E00087D3E00087D3E000824
:1000D0007D3E0008913D0008A13D0008B13D0008AB
:1000E0007D3E00087D3E00087D3E00087D3E000804
:1000F0007D3E00087D3E00087D3E00087D3E0008F4
:1001000000000000C13D00087D3E00087D3E000863
:1001100000000000000000007D3E00087D3E000859
:100120007D3E00087D3E00087D3E0008D13D000870
:100130007D3E00087D3E00087D3E00087D3E0008B3
:10014000E13D0008F13D00087D3E00087D3E0008CD
:100150007D3E0008013E00087D3E00087D3E00080F
:100160007D3E00087D3E0008000000000000000009
:10017000000000000000000000000000000000007F
:100180007D3E00087D3E00080000000000000000E9
:100190007D3E00087D3E00080000000000000000D9
:1001A000000000000000000000000000000000004F
:1001B0007D3E000800000000000000007D3E0008B9
:0401C0007D3E000878
:1001C40010B5054C237833B9044B13B10448AFF38D
:1001D40000800123237010BD1000002000000000E7
:1001E400D83E000808B5034B1BB103490348AFF3DD
:1001F400008008BD0000000014000020D83E000864
:1002040053B94AB9002908BF00281CBF4FF0FF3179
:100214004FF0FF3000F072B9ADF1080C6DE904CE77
:1002240000F006F8DDF804E0DDE9022304B07047CD
:100234002DE9F047089E04468846002B4BD18A429C
:10024400154667D9B2FA82F24AB1C2F1200701FA1F
:1002540002F320FA07F7954047EA030894404FEA6F
:10026400154E230CB8FBFEF71FFA85FC0EFB17880E
:1002740043EA084307FB0CF1994209D9EB1807F14B
:10028400FF3080F01B81994240F21881023F2B44D9
:100294005B1AA4B2B3FBFEF00EFB103344EA034432
:1002A40000FB0CFCA44509D92C1900F1FF3380F0A4
:1002B4000781A44540F2048102382C4440EA0740F7
:1002C400A4EB0C0400271EB1D4400023C6E900436C
:1002D4003946BDE8F0878B4209D9002E00F0EB8047
:1002E4000027C6E9000138463946BDE8F087B3FA6D
:1002F40083F7002F47D18B4202D3824200F2FA8067
:10030400841A61EB030301209846002EE0D0C6E96D
:100314000048DDE702B9FFDEB2FA82F2002A40F0BB
:100324008F80491B4FEA154E1FFA85F80127B1FB50
:10033400FEFC230C0EFB1C1143EA014308FB0CF1E9
:10034400994207D9EB180CF1FF3002D2994200F21E
:10035400CD808446591AA3B2B1FBFEF00EFB1014F3
:1003640043EA044408FB00F8A04507D92C1900F11E
:10037400FF3302D2A04500F2B6801846A4EB08046D
:1003840040EA0C409FE7C7F1200CBB4022FA0CFE68
:100394004EEA030E01FA07F420FA0CF521FA0CF3E5
:1003A4004FEA1E482543B3FBF8F92C0C08FB19331C
:1003B4001FFA8EFA44EA034309FB0AF49C4202FA48
:1003C40007F200FA07F10BD91EEB030309F1FF3022
:1003D40080F087809C4240F28480A9F10209734432
:1003E4001B1BADB2B3FBF8F008FB103345EA034422
:1003F40000FB0AFAA24508D91EEB040400F1FF33FE
:100404006BD2A24569D90238744440EA0940A0FB82
:100414000289A4EB0A044C45C2464B4654D351D03E
:10042400002E69D0B1EB0A0564EB030404FA0CFC5A
:10043400FD40FC404CEA0505C6E90054002747E7A7
:10044400C2F1200320FA03F7954001FA02F021FAE1
:1004540003F34FEA154E3843010CB3FBFEF71FFAC2
:1004640085F80EFB173341EA034107FB08F38B427F
:1004740004FA02F407D9691807F1FF3C2FD28B4222
:100484002DD9023F2944CB1A81B2B3FBFEF00EFBF7
:10049400103341EA034100FB08F38B4207D9691882
:1004A40000F1FF3C17D28B4215D902382944C91AEE
:1004B40040EA07473BE73746304609E70746E7E6A1
:1004C4001846FBE64145ABD2B8EB020A69EB0E02D3
:1004D40001381346A4E76046E9E7184695E76746FE
:1004E400D1E781467CE702382C4447E7ACF1020CA3
:1004F4002B442FE7384608E73746E9E6704700BF44
:1005040010B504460E4B18784FF47A73B3FBF0F32E
:100514000C4A1068B0FBF3F000F08AFA68B90F2CAB
:1005240001D901200AE0002221464FF0FF3000F0FB
:100534003DFA034B5C60002000E0012010BD00BFC9
:10054400000000200C00002008B50B4B1A6842F490
:1005540000721A601A6842F480621A601A6842F4DF
:1005640080721A60032000F00FFA0020FFF7C8FF22
:1005740003F084F9002008BD003C0240034A1168DE
:10058400034B1B780B441360704700BF3C000020F2
:1005940000000020014B1868704700BF3C00002099
:1005A40038B50446FFF7F6FF0546B4F1FF3F02D025
:1005B400044B1B781C44FFF7EDFF401BA042FAD309
:1005C40038BD00BF00000020002800F0A18038B52D
:1005D400044690F82030D3B12268136823F0020354
:1005E4001360FFF7D7FF054623685A6812F0020F1D
:1005F40010D0FFF7CFFF401B0A28F5D9636A43F4F4
:1006040000336362052384F82030012038BD03F0F1
:1006140051F9E1E71A6842F001021A60FFF7BAFFE4
:10062400054623685A6812F0010F0DD1FFF7B2FF97
:10063400401B0A28F5D9636A43F400336362052337
:1006440084F820300120E1E7227E012A3DD01A6897
:1006540022F080021A60637E012B3BD0226813686B
:1006640023F040031360A37E012B39D02268136862
:1006740023F020031360E37E012B37D02268136834
:1006840043F010031360237F012B35D022681368D5
:1006940023F008031360637F012B33D022681368AF
:1006A40023F004031360A368E2681343226913432D
:1006B400626913436268013A21681343CB610020E5
:1006C4006062012384F82030A0E71A6842F08002B7
:1006D4001A60C0E72268136843F040031360C2E75E
:1006E4002268136843F020031360C4E72268136888
:1006F40023F010031360C6E72268136843F008036D
:100704001360C8E72268136843F004031360CAE760
:1007140001207047704770477047704770477047B3
:1007240070477047704770477047704770472DE9AE
:10073400F84F054603685C695F689E68D3F80C90BF
:10074400D3F81080D3F818A014F0010F5AD016F083
:10075400010F17D001229A6016F0020F08D116F08B
:10076400040F30D116F0080F07D04FF4805B0BE074
:10077400FFF7D0FF4FF0000B06E0FFF7CEFF4FF07E
:10078400000B01E04FF0000B16F4807F0BD02B68B8
:100794004FF480729A6016F4007F17D116F4806FBC
:1007A40018D04BF4005B16F4803F2DD02B684FF427
:1007B40080329A6016F4003F16D116F4802F17D0B9
:1007C4004BF4004B20E04FF4006BDDE72846FFF7C5
:1007D400A2FFE8E716F4006F02D04BF4804BE2E787
:1007E4002846FFF79BFFDEE72846FFF795FF0BE05F
:1007F40016F4002F02D04BF4803B05E02846FFF7A7
:100804008EFF01E04FF0000B14F0080F07D019F031
:10081400100F04D04BF4007B2B681022DA6014F024
:10082400040F02D019F0080F60D114F0020F04D0A5
:100834002B68DB6813F0030F5FD114F0400F07D06F
:1008440018F0100F04D04BF4806B2B6810221A613F
:1008540014F0200F02D018F0080F52D114F0100F2A
:1008640004D02B681B6913F0030F51D114F4003F1B
:1008740002D017F0100F4FD114F4803F02D017F0BC
:10088400080F50D114F4004F67D017F0040F61D053
:1008940014F4807F04D01AF0010F01D04BF0010B47
:1008A40014F4007F04D01AF0020F01D04BF0020BB5
:1008B40014F4806F04D01AF0040F01D04BF0040B31
:1008C40014F4006F46D01AF0700A43D0BAF1300F16
:1008D40048D02FD9BAF1500F47D0BAF1600F47D0A2
:1008E400BAF1400F31D14BF0400B2EE02B680822B7
:1008F400DA602846FFF715FF97E72846FFF710FF51
:100904009BE72B6808221A612846FFF70CFFA5E72E
:100914002846FFF707FFA9E72B6810225A602846EC
:10092400FFF702FFA8E72B6808225A602846FFF762
:10093400FCFEA7E7BAF1100F05D0BAF1200F04D1DD
:100944004BF0100B01E04BF0080B2A68936923F07D
:10095400700393612B6804225A60BBF1000F0AD123
:10096400BDE8F88F4BF0200BEFE74BF0800BECE782
:100974004BF4807BE9E76B6A43EA0B036B6228461E
:10098400FFF7D4FEECE70000074AD36823F4E063E2
:100994001B041B0C000200F4E060184340F0BF602D
:1009A40040F40030D060704700ED00E030B4174BE5
:1009B400DB68C3F30223C3F10704042C28BF042417
:1009C4001D1D062D18D9033B4FF0FF3505FA04F41D
:1009D40021EA0401994005FA03F322EA03031943C7
:1009E40000280BDB0901C9B200F1604000F5614049
:1009F40080F8001330BC70470023E5E700F00F00D7
:100A04000901C9B2024B1954F4E700BF00ED00E03C
:100A140014ED00E0002807DB00F01F024009012369
:100A24009340024A42F82030704700BF00E100E0E2
:100A34000138B0F1807F0AD2064B5860064AF02193
:100A440082F823100020986007221A607047012062
:100A5400704700BF10E000E000ED00E00268D3B290
:100A6400103B0B49A1FB03131B090A49C95CC1656F
:100A7400032B06D822F47F7222F003028265806D74
:100A8400704722F47F7222F0030204328265F6E793
:100A9400ABAAAAAAF03E0008836A826992B9012B24
:100AA4000AD01BB1022B01D000207047C36A13F097
:100AB400807F2CD100207047C36AB3F1C07F28D057
:100AC40000207047B2F5005F05D0022B29D9032B13
:100AD40015D000207047032B03D8DFE803F01C0473
:100AE4001C0A00207047C36A13F0807F15D10020D0
:100AF4007047C36AB3F1C07F11D000207047C36A46
:100B040013F0807F01D0012070470020704701203E
:100B14007047012070470120704701207047012071
:100B2400704701207047000070B50446FFF732FD9E
:100B3400002C5BD00546002384F83430022384F86B
:100B440035302268136823F00103136023681A68A0
:100B540012F0010F0AD0FFF71DFD401B0528F5D93F
:100B640020236365032084F8350070BD1A6820488B
:100B740010406168A2680A43E1680A4321690A4394
:100B840061690A43A1690A43E1690A43216A0A4384
:100B94000243616A04291ED01A602668756925F02B
:100BA4000705636A1D43042B07D1A36A1D43E36A47
:100BB4001BB12046FFF770FF90B975612046FFF71F
:100BC4004DFFE26D3F239340836000206065012365
:100BD40084F83530C9E7E16A206B01430A43DBE757
:100BE40040236365012084F83500BEE70120BCE79B
:100BF4003F8010F090F83530DBB2022B03D0802315
:100C0400436501207047052380F835300268136876
:100C140023F001031360002070470000F0B583B097
:100C2400044600230193724B1D68724BA3FB0535E8
:100C3400AD0A876D3E68C26D08239340334210D0DD
:100C440003681A6812F0040F0BD01A6822F0040229
:100C54001A60C26D08239340BB60436D43F00103E7
:100C64004365E26D01239340334209D022685269FF
:100C740012F0800F04D0BB60636D43F00203636520
:100C8400E26D04239340334209D02268126812F0C3
:100C9400020F04D0BB60636D43F004036365E26D2F
:100CA40010239340334224D02268126812F0080FB4
:100CB4001FD0BB6023681A6812F4802F0DD01B6804
:100CC40013F4002F04D1236C9BB12046984710E005
:100CD400A36C73B1204698470BE01A6812F4807F26
:100CE40003D11A6822F008021A60236C0BB1204663
:100CF4009847E26D20239340334255D0226812680E
:100D040012F0100F50D0BB6094F83530DBB2052BD5
:100D14000ED023681A6812F4802F33D01B6813F4A2
:100D2400002F2AD1636C002B3ED0204698473BE02D
:100D34002268136823F0160313602268536923F0B2
:100D440080035361236CA3B12268136823F0080362
:100D54001360E26D3F239340BB60002384F834307A
:100D6400012384F83530236D002B3FD0204698476B
:100D74003CE0A36C002BE7D1EBE7E36BA3B1204687
:100D8400984711E01A6812F4807F09D11A6822F09A
:100D940010021A60002384F83430012384F83530BB
:100DA400E36B0BB120469847636DFBB1636D13F0A1
:100DB400010F17D0052384F835302268136823F017
:100DC40001031360019B01330193AB4204D82368F0
:100DD4001B6813F0010FF5D1002384F8343001238C
:100DE40084F83530E36C0BB12046984703B0F0BD6E
:100DF4000C000020B5814E1B00230F2B00F2BE8097
:100E0400F0B583B038E0032200E00022AA403A4360
:100E140002345B4D45F824205A4A1468F24302EA2E
:100E240004054F6817F4803F01D046EA0405554C89
:100E34002560646802EA04054F6817F4003F01D096
:100E440046EA04054F4C6560A46802EA04054F684D
:100E540017F4801F01D046EA04054A4CA560E468F3
:100E640022404D6815F4001F01D046EA0402454CA7
:100E7400E26001330F2B7FD801229A400C6804EA08
:100E84000206B242F5D14C68651E012D03D9112C1E
:100E940001D0122C12D185685F000324BC4025EADE
:100EA4000405CC68BC402C438460456825EA0205EF
:100EB4004C68C4F300129A402A434260C4685F003D
:100EC4000322BA40D24314408D68BD402543C56017
:100ED4004C68022C01D0122C13D1DD08083550F8CF
:100EE40025E003F007044FEA840C0F2404FA0CF401
:100EF4002EEA040E0C6904FA0CF444EA0E0440F8D9
:100F04002540046822404C6804F00304BC4022439A
:100F140002604A6812F0805FABD0002201921A4A44
:100F2400546C44F480445464526C02F48042019240
:100F3400019A9C08A51C124A52F8257003F003027A
:100F440095000F22AA4027EA0207104A90423FF474
:100F54005CAF02F5806290420AD002F58062904252
:100F640008D002F5806290423FF44DAF07224DE76E
:100F740001224BE7022249E703B0F0BD704700BFEE
:100F840000380140003C01400038024000000240AB
:100F940012B909048161704781617047264B9B68CF
:100FA40003F00C03042B44D0082B01D023487047D2
:100FB4002DE9F04B204B5A6802F03F025B6813F4B2
:100FC400800F13D01C4B5968C1F3881100231C48AF
:100FD400A1FB0001FFF714F9174B5B68C3F301434E
:100FE40001335B00B0FBF3F0BDE8F08B124B5B68A0
:100FF400C3F388131E4600275C010025E41A65EB41
:101004000705A90141EA9461A001001B61EB0501F8
:10101400CB0043EA5073C400A01943EB07018B02D1
:1010240043EA90538402204619460023FFF7E8F868
:10103400D2E70348704700BF003802400024F400A0
:1010440040787D01002800F09E8070B50446504B26
:101054001B6803F00F038B4209D2CBB24C4A1370C6
:10106400136803F00F038B4201D0012070BD236885
:1010740013F0020F17D013F0040F04D0454A9368FD
:1010840043F4E0539360236813F0080F04D0414AFB
:10109400936843F4604393603E4A936823F0F003FB
:1010A400A068034393600D46236813F0010F32D008
:1010B4006368012B21D09A1E012A25D9354A12686A
:1010C40012F0020F61D033498A6822F003021343FD
:1010D4008B60FFF75FFA06462E4B9B6803F00C0308
:1010E4006268B3EB820F16D0FFF754FA801B41F20B
:1010F40088339842F0D90320B8E7264A126812F4DC
:10110400003FE0D10120B1E7224A126812F0007FCB
:10111400D9D10120AAE71E4B1B6803F00F03AB4291
:1011240009D9EAB21A4B1A701B6803F00F03AB42D9
:1011340001D001209AE7236813F0040F06D0154A62
:10114400936823F4E053E1680B439360236813F03E
:10115400080F07D00F4A936823F46043216943EAD8
:10116400C1039360FFF71AFF0A4B9B68C3F3031391
:10117400094AD35CD840094B1860094B1868FFF73B
:10118400BFF9002072E70120704701206EE700BF1D
:10119400003C0240003802400C3F00080C000020D4
:1011A40004000020014B1868704700BF0C000020A9
:1011B40008B5FFF7F7FF044B9B68C3F38223034A88
:1011C400D35CD84008BD00BF003802401C3F000873
:1011D40008B5FFF7E7FF044B9B68C3F34233034AA8
:1011E400D35CD84008BD00BF003802401C3F000853
:1011F40070B582B00446036813F0010F0DD0A54A00
:10120400D2F88C3023F0C06341690B43C2F88C30B0
:101214004369002B6FD0002500E00025236813F0FC
:10122400020F0BD09B4AD2F88C3023F0C053A16933
:101234000B43C2F88C30A36903B90125236813F06A
:10124400080F5AD1236813F0040F03D094F8382000
:10125400914B1A60236813F0100F08D08D4AD2F80E
:10126400943023F44003616A0B43C2F8943023683A
:1012740013F0200F0DD0874AD2F8943023F0006386
:10128400A16A0B43C2F89430A36AB3F1006F00F073
:101294009B80236813F0400F08D07E4AD2F8943024
:1012A40023F08053216A0B43C2F89430002D40F0A0
:1012B4008D802368802B00F08980236813F4807F5D
:1012C40008D0744AD2F88C3023F00043E16A0B430F
:1012D400C2F88C30236813F4007F00F0D8806D4A84
:1012E400D2F88C3023F40043216B0B43C2F88C30CA
:1012F400002002B070BD012590E700230193654BE7
:101304001A6C42F080521A641B6C03F080530193F0
:10131400019B624A136843F480731360FFF73AF940
:1013240006465E4B1B6813F4807F06D1FFF732F943
:10133400801B0228F5D90320DBE7564B1B6F13F4FF
:10134400407312D0E26902F440729A420DD0514BBC
:101354001A6F22F44072524901200860002008608C
:101364001A671B6F13F0010F12D1E36903F4407283
:10137400B2F5407F1DD0474A936823F4F813936075
:1013840044490B6FE269C2F30B0213430B6759E73D
:10139400FFF700F906463F4B1B6F13F0020FE4D131
:1013A400FFF7F8F8801B41F288339842F3D9032001
:1013B4009FE738498A6822F4F81223F0704323F433
:1013C400407313438B60DBE7012562E7354B002252
:1013D4001A60FFF7DFF805462E4B1B6813F0006F09
:1013E40006D0FFF7D7F8401B0228F5D9032080E781
:1013F400626B2D4B1A60236813F0010F01D06269F0
:10140400A2B113F0020F01D0A2697AB113F0200F38
:1014140003D0A26AB2F1006F08D013F0400F12D0CB
:10142400236A83B9A36AB3F1006F0CD16368A2681D
:1014340043EA8213E26843EA0263226943EA0273DD
:10144400144AC2F88430236813F0800F0CD0636808
:10145400A26843EA8213E26843EA0263226943EA28
:1014640002730C4AC2F884300E4B01221A60FFF753
:1014740091F80546074B1B6813F0006F7FF41DAF0E
:10148400FFF788F8401B0228F4D9032031E7002035
:101494002FE700BF00380240E011474200700040CF
:1014A400400E474268004742D810474270B582B0A8
:1014B4000446036813F0010F3BD0A74B9B6803F06D
:1014C4000C03042B2CD0A44B9B6803F00C03082BB7
:1014D40021D06368B3F5803F4FD0B3F5A02F52D02D
:1014E4009D4B1A6822F480321A601A6822F4802212
:1014F4001A606368002B50D0FFF74CF80546964BF2
:101504001B6813F4003F14D1FFF744F8401B642810
:10151400F5D903208AE1904B5B6813F4800FD8D08F
:101524008D4B1B6813F4003F03D06368002B00F05D
:101534007A81236813F0020F55D0874B9B6813F010
:101544000C0F3ED0844B9B6803F00C03082B33D064
:10155400E368002B68D0814B01221A60FFF71AF868
:1015640005467D4B1B6813F0020F54D1FFF712F8A8
:10157400401B0228F5D9032058E1774A136843F445
:1015840080331360B5E7744B1A6842F480221A6002
:101594001A6842F480321A60ABE7FEF7FBFF054697
:1015A4006D4B1B6813F4003FC3D0FEF7F3FF401BE1
:1015B4006428F5D9032039E1674B5B6813F4800F85
:1015C400C6D1654B1B6813F0020F04D0E368012BEE
:1015D40001D001202AE1604A136823F0F80321694D
:1015E40043EAC1031360236813F0080F40D0636912
:1015F40063B35B4B01221A60FEF7CCFF0546564BE2
:101604005B6F13F0020F33D1FEF7C4FF401B0228B7
:10161400F5D903200AE1504A136823F0F80321693D
:1016240043EAC1031360DEE74C4B00221A60FEF765
:10163400B1FF0546484B1B6813F0020FD3D0FEF7E9
:10164400A9FF401B0228F5D90320EFE0444B0022F8
:101654001A60FEF79FFF05463F4B5B6F13F0020FC6
:1016640006D0FEF797FF401B0228F5D90320DDE0E2
:10167400236813F0040F78D0374B1B6C13F0805F92
:1016840033D100230193344B1A6C42F080521A6414
:101694001B6C03F080530193019B0125314B1B68A4
:1016A40013F4807F23D0A368012B34D0052B38D0CA
:1016B400294B1A6F22F001021A671A6F22F00402F2
:1016C4001A67A368002B36D0FEF764FF0646224B48
:1016D4001B6F13F0020F47D1FEF75CFF801B41F232
:1016E40088339842F3D90320A0E00025D6E71D4AA9
:1016F400136843F480731360FEF74CFF0646194BDE
:101704001B6813F4807FCED1FEF744FF801B0228B0
:10171400F5D903208AE0104A136F43F001031367DD
:10172400CFE70D4B1A6F42F004021A671A6F42F0AA
:1017340001021A67C5E7FEF72DFF0646064B1B6F2D
:1017440013F0020F10D0FEF725FF801B41F28833FF
:101754009842F3D9032069E0003802400000474270
:10176400800E474200700040E5B9A369002B5CD0AD
:10177400304A926802F00C02082A59D0022B17D082
:101784002D4B00221A60FEF705FF0446294B1B6807
:1017940013F0007F45D0FEF7FDFE001B0228F5D9AB
:1017A400032043E0234A136C23F080531364DCE7E3
:1017B400214B00221A60FEF7EDFE05461D4B1B6807
:1017C40013F0007F06D0FEF7E5FE401B0228F5D992
:1017D40003202BE0E369226A1343626A43EA82131B
:1017E400A26A5208013A43EA0243E26A43EA026304
:1017F400226B43EA02730F4A53600F4B01221A60B3
:10180400FEF7C8FE04460B4B1B6813F0007F06D19D
:10181400FEF7C0FE001B0228F5D9032006E00020D5
:1018240004E0002002E0012000E0002002B070BDCE
:101834000120FBE7003802406000474238B5044607
:101844000268D36823F0A003D360FEF7A3FE054625
:101854002368DB6813F0200F07D1FEF79BFE401BC3
:10186400B0F57A7FF4D9032000E0002038BD38B504
:101874000368DA6812F0400F01D0002038BD044636
:101884004FF0FF32DA60FEF785FE05462368DB6819
:1018940013F0400F07D1FEF77DFE401BB0F57A7FB1
:1018A400F4D90320EAE70020E8E738B500285CD043
:1018B4000446437F002B40D0022363772368CA2267
:1018C4005A62236853225A622046FFF7D0FF054626
:1018D400002836D12268936823F4E00323F0400300
:1018E400936021688A6863682069034360690343DD
:1018F40013438B602368E2681A6122681369A16844
:1019040043EA014313612268D36823F08003D36060
:1019140023689B6813F0200F1BD02268136C23F4F8
:10192400802313642268136CA1690B431364236836
:10193400FF225A620123637709E0037702F05CF81F
:10194400BAE72368FF225A620423637701252846F5
:1019540038BD2046FFF772FF0028DED02368FF223F
:101964005A62042363770125F1E70125EFE70000BC
:1019740070B582B0044600230193006801F0DAFBDD
:10198400064610B1304602B070BD206801F0E5FB98
:1019940038B90123A364A36C012B0BD03546304620
:1019A40014E00023A364206801F0C4FB0028F2D0F3
:1019B4000646E7E70021206801F0E6FB0028EDD0A9
:1019C4004FF08056DEE7019B01330193019A4FF6F5
:1019D400FE739A4213D895B90021206801F0D4FB14
:1019E400D8B91249206801F0E7FB0546B8B90021CF
:1019F400206801F0E2F9C30FE5D01D46E3E7019A40
:101A04004FF6FE739A420DD810F0804F02D1002396
:101A14006364B7E701236364B4E70646B2E74FF0B3
:101A24008056AFE74FF08076ACE700BF000010C1EE
:101A3400F8B5846AC66AAEB1074600250EE0386878
:101A440001F092F92070C0F307236370C0F30743D9
:101A5400A370000EE0700434043E0135072DEED966
:101A6400BC62FE62F8BDF0B583B0046A466AE6B1B2
:101A74000746002515E023780193627843EA0223A0
:101A84000193A27843EA02430193E27843EA0263B2
:101A940002A941F8043D0434043E386801F067F9B2
:101AA4000135072DE7D93C627E6203B0F0BD70B505
:101AB40081B10D460446016D0904006801F0D7FBAD
:101AC400064608B1304670BD0021206801F075F962
:101AD4002860F7E74FF00066F4E700002DE9F047CF
:101AE40086B004460D4690461E46FEF753FD6DB182
:101AF400074694F83430DBB2012B0DD0A36B43F0CE
:101B04000053A363012006B0BDE8F087A36B43F044
:101B14000063A3630120F6E70023A36308EB060335
:101B2400E26D93421BD8032384F8343023680022E7
:101B3400DA62636C012B01D04FEA48284FF400713C
:101B4400206801F04DFA034678B122687B4991631D
:101B5400A06B1843A063012084F83400D3E7A36B7F
:101B640043F00073A3630120CDE74FF0FF330093EC
:101B7400730201939023029302230393002304939B
:101B8400012305936946206801F018FA012E0CD947
:101B9400022323634146206801F052FA8246BAF1D7
:101BA400000F0AD1DDF804902FE00123236341469E
:101BB400206801F02DFA8246F1E723685F4A9A63B0
:101BC400A36B43EA0A03A363012084F834000023CF
:101BD400236398E7206801F0C7F82870C0F307234F
:101BE4006B70C0F30743AB70000EE8700435A9F1C5
:101BF400040908F10108B8F1070FEBD9FEF7CAFC94
:101C0400C01B0E9B98420ED26BB12068436B13F439
:101C1400957F16D1436B13F4004FEFD0B9F1000F49
:101C2400ECD0D046E7E72368444A9A63A36B43F0B9
:101C34000043A363012384F8343000232363032087
:101C440061E7436B13F4807F08D0012E06D9636CDF
:101C5400032B03D001F03CFA002837D123685A6BD8
:101C640012F0080F3ED15A6B12F0020F46D15A6B94
:101C740012F0200F4ED12068436B13F4001F55D08F
:101C8400B9F1000F52D001F06FF82870C0F30723A8
:101C94006B70C0F30743AB70000EE8700435A9F114
:101CA4000409FEF777FCC01B0E9B984201D2002B5F
:101CB400E1D12368214A9A63A36B43F00043A363F1
:101CC400012084F83400002323631CE723681B49A4
:101CD4009963A36B0343A363012084F834000023B6
:101CE400236310E7154A9A63A36B43F00803A363C5
:101CF400012084F834000023236304E70F4A9A6325
:101D0400A36B43F00203A363012084F8340000238F
:101D14002363F8E6094A9A63A36B43F02003A363A1
:101D2400012084F8340000232363ECE640F23A53A4
:101D34008363012384F834300020E4E6FF05400087
:101D44002DE9F04788B004460D4690461E46FEF73E
:101D540021FC6DB1074694F83430DBB2012B0DD071
:101D6400A36B43F00053A363012008B0BDE8F087E0
:101D7400A36B43F00063A3630120F6E70023A3638E
:101D840008EB0603E26D93421BD8032384F8343036
:101D940023680022DA62636C012B01D04FEA4828E1
:101DA4004FF40071206801F01BF9034678B12268F2
:101DB40067499163A06B1843A063012084F8340041
:101DC400D3E7A36B43F00073A3630120CDE74FF087
:101DD400FF33029373020393902304930023059328
:101DE40006930123079302A9206801F0E7F8012E66
:101DF4000CD9202323634146206801F051F982461F
:101E0400BAF1000F0AD1DDF80C9033E010232363FC
:101E14004146206801F02CF98246F1E723684C4AD8
:101E24009A63A36B43EA0A03A363012084F8340092
:101E34000023236399E72B786A7843EA0223AA787C
:101E440043EA0243EA7843EA026308A941F81C3DE5
:101E54000435A9F10409206800F089FF08F101089C
:101E6400B8F1070FE7D9FEF795FBC01B109B98420A
:101E74000ED26BB12068436B13F48D7F16D1436B84
:101E840013F4804FEFD0B9F1000FECD0D046E7E760
:101E940023682F4A9A63A36B43EA0A03A3630123CB
:101EA40084F834300023236303205EE7436B13F488
:101EB400807F07D0012E05D9636C032B02D001F07B
:101EC40007F9C0B923685A6B12F0080F1FD15A6B77
:101ED40012F0020F27D15A6B12F0100F2FD01C4AA8
:101EE4009A63A36B43F01003A363012084F83400C6
:101EF4000023236339E7236815499963A36B0343DC
:101F0400A363012084F83400002323632DE7104ADF
:101F14009A63A36B43F00803A363012084F834009D
:101F24000023236321E70A4A9A63A36B43F0020365
:101F3400A363012084F834000023236315E740F2EF
:101F44003A529A63012384F8343000200DE700BF2D
:101F5400FF0540007047000010B4436E9B0F0B70E8
:101F6400436EC3F383634B7090F8673003F003034D
:101F74008B7090F86630CB7090F865300B7190F8E8
:101F840064304B71836E1B0DCB80B0F86A3003F064
:101F94000F030B72836EC3F3C0334B72836EC3F3B0
:101FA40080338B72836EC3F34033CB72836EC3F37F
:101FB40000330B7300234B73436C002B40F0888079
:101FC400826E40F6FC7303EA8203C26E43EA9273A4
:101FD4000B61C36EC3F3C2630B7590F86F3003F0EB
:101FE40007034B75C36EC3F342538B75C36EC3F3C0
:101FF4008243CB75C36EC3F3C2330B760B690133D3
:1020040043650A7E02F00702023203FA02F24265D5
:102014000B7A03F00F040123A34083655B0A03FBDF
:1020240002F3C3654FF400730366C36EC3F38033D6
:102034004B76C36EC3F3C6138B76C36E03F07F0374
:10204400CB76036FDB0F0B77036FC3F341734B77CF
:10205400036FC3F382638B77036FC3F38353CB772D
:10206400036FC3F3405381F82030002381F82130FB
:10207400B0F8722002F0010281F82220026FC2F34C
:10208400C03281F82320026FC2F3803281F8242009
:10209400026FC2F3403281F82520026FC2F300328E
:1020A40081F82620026FC2F3812281F82720026F73
:1020B400C2F3012281F82820026FC2F3460281F89C
:1020C4002920012281F82A2018465DF8044B704724
:1020D400012B0BD003680E4A9A63836B43F0805341
:1020E4008363012380F834301846EEE7836E1B04C3
:1020F40003F47C13B0F86E2013430B610B690133B6
:102104009B024365C3654FF40073836503668CE7E4
:10211400FF05400070B590B004460123ADF81230BD
:10212400006800F031FE00286CD0636C032B45D1AD
:10213400636C032B5DD1636C032B1DD0BDF81210AF
:1021440021650904206801F065F8054600285BD183
:102154000021206800F031FE60660421206800F050
:102164002CFEA0660821206800F027FEE0660C2102
:10217400206800F022FE20670421206800F01DFE84
:10218400000DE06405A92046FFF7E6FE00283ED1D5
:10219400226D12040023206800F0B4FF054698BBAA
:1021A400234653F8106B93E807008DE807000434C6
:1021B40094E80E00304600F0BBFD25E0206801F0F5
:1021C40014F8054600BB0021206800F0F6FD6067A6
:1021D4000421206800F0F1FDA0670821206800F0C8
:1021E400ECFDE0670C21206800F0E7FDC4F88000F6
:1021F4009EE70DF11201206801F021F80546002840
:1022040099D001E04FF08065284610B070BD4FF0C2
:102214008055F9E770B58AB0054600230493059309
:10222400069307930893762309930AAB13E90700EF
:102234008DE8070004AB0ECB286800F079FD18B1D7
:10224400012420460AB070BD0446104E00233360BA
:10225400286800F091FD012333602846FFF788FBCE
:10226400034630B1012485F83440A86B1843A863B1
:10227400E7E72846FFF74EFF03460028E1D0012494
:1022840085F83440A86B1843A863DAE7A080254298
:10229400C0B110B5044690F834307BB1032384F800
:1022A40034302046FFF7B6FF034670B90022A2631C
:1022B4002263012284F83420184610BD037701F00C
:1022C400A9FBEBE70123184670470123F4E7436CAD
:1022D4000B60836C4B60C36C8B60036DCB60436D90
:1022E4000B61836D4B61C36D8B61036ECB61002009
:1022F400704710B582B0044602A9002341F8043D9A
:10230400FFF7D5FB18B10346A06B1843A0630198EF
:10231400C0F3432002B010BD10B5846B236840F2B3
:102324003A529A632046FFF7E4FF012384F83430DD
:10233400002323630538012805D9A36B53B1204634
:10234400FFF708FE10BD206800F0C2FEA36B18431F
:10235400A063F2E7204601F000F8F3E710B5846BC0
:10236400236840F23A529A632046FFF7C2FF0123E2
:1023740084F83430002323630538012805D9A36B7E
:1023840053B12046FFF7E6FD10BD206800F0A0FE23
:10239400A36B1843A063F2E7204600F0DEFFF3E7E7
:1023A40038B50446056B03685A6B12F4004F02D02B
:1023B40015F0080F28D15A6B12F4807F5AD04FF4CD
:1023C40080729A632268D36B23F4414323F03A0367
:1023D400D3632268D36A23F00103D36215F0080F94
:1023E40026D015F0220F12D1236840F23A529A6394
:1023F400012384F834300023236315F0030F13D032
:10240400204600F0B4FF01E0FFF712FB38BD20685E
:1024140000F05EFE03460028E6D0A26B1343A363DC
:102424002046FFF797FDDFE7204600F09BFFEDE72E
:1024340015F0800FEAD015F0200F0ED115F0030F20
:10244400E4D12268D36A23F00803D362012384F819
:102454003430204600F086FFD8E7206800F038FECC
:1024640003460028EAD0A26B1343A3632046FFF778
:1024740071FDE3E75A6B12F4804F02D015F0080F98
:102484004AD15A6B12F03A0FC0D05A6B12F0020FB5
:1024940003D0A26B42F00202A2635A6B12F0080F3F
:1024A40003D0A26B42F00802A2635A6B12F0200F11
:1024B40003D0A26B42F02002A2635A6B12F0100FF9
:1024C40003D0A26B42F01002A26340F23A529A6324
:1024D4002268D36B23F49D73D363206800F0F8FD66
:1024E400A36B1843A06315F0080F19D115F0800FE2
:1024F4008CD015F0300F1CD115F0030F26D0236CAF
:10250400174A1A65206CFEF775FB00283FF47EAF6E
:10251400206CFFF723FF79E72046FFF7A4FA75E75D
:10252400012384F83430002323632046FFF712FD8F
:102534006CE7E36B0B4A1A65E06BFEF75BFB002864
:102544003FF464AFE06BFFF7E7FE5FE70023A363AC
:10255400012284F834202363204600F0FEFE55E770
:10256400612300081D2300080368304A904212D0FA
:10257400B0F1804F0FD0A2F57C4290420BD002F50F
:102584008062904207D002F58062904203D002F547
:102594007842904203D123F070034A681343234ADC
:1025A40090422AD0B0F1804F27D0A2F57C429042CD
:1025B40023D002F5806290421FD002F580629042DF
:1025C4001BD002F57842904217D002F57052904227
:1025D40013D002F5806290420FD002F580629042DF
:1025E4000BD0A2F59832904207D002F58062904257
:1025F40003D002F58062904203D123F44073CA6889
:10260400134323F080034A69134303608B68C36256
:102614000B688362054B984203D003F580639842AC
:1026240001D10B690363012343617047000001403A
:10263400A8B110B5044690F83D305BB1022384F88C
:102644003D30211D2068FFF78FFF012384F83D30C2
:10265400002010BD80F83C3001F0AAFAEEE701201A
:102664007047000090F83C30012B3BD030B401237C
:1026740080F83C30022380F83D3003685C689D6834
:1026840024F070040A6822435A600368164A93428D
:102694001AD0B3F1804F17D0A2F57C42934213D0E5
:1026A40002F5806293420FD002F5806293420BD010
:1026B40002F57842934207D002F57052934203D058
:1026C400A2F59432934204D125F080054A6815435B
:1026D4009D60012380F83D30002380F83C3018468B
:1026E40030BC704702207047000001400268D36884
:1026F40023F49073D3600268536923F00103536198
:10270400202380F83A30704790F83930DBB2212B1F
:102714002AD18368B3F5805F16D0036A5A1C02621B
:102724001A7803685A60C38C013B9BB2C384EBB92B
:102734000268D36823F08003D3600268D36843F04F
:102744004003D36000207047036A1B880268C3F308
:102754000803536003691BB9036A02330362E2E7A7
:10276400036A01330362DEE70220704700207047EA
:102774002DE9F04B04460268136923F44053C16801
:102784000B43136183680269134342691343C269AB
:102794001A430168CB6823F4164323F00C03134354
:1027A400CB600268536923F4407381690B4353611E
:1027B400C369B3F5004F3BD00368714A934200F0FC
:1027C400AB8002F58062934200F0A680FEF7F0FC35
:1027D4004FF00009061849EB090716EB000B47EB0D
:1027E400090C4FEACC0343EA5B734FEACB029346EE
:1027F4009C4663689A009B0F10EB0B0049EB0C019D
:10280400FDF7FEFC5F4DA5FB00325109642202FB7B
:10281400110213013233A5FB03235B0903F0F00219
:1028240002EB011203F00F03216813448B60A4E050
:102834000368534A934239D002F58062934235D0FB
:10284400FEF7B6FC83464FF0000C06184CEB0C0761
:1028540016EB000847EB0C094FEAC90343EA587327
:102864004FEAC8029046994662680021921841EBEB
:1028740001031BEB08004CEB0901FDF7C1FC414DC2
:10288400A5FB00325109642202FB1102D30032334A
:10289400A5FB03235B095A0002F4F87202EB011250
:1028A40003F00703216813448B6066E0FEF790FC95
:1028B40080464FF00009061849EB090716EB000B98
:1028C40047EB090C4FEACC0343EA5B734FEACB02B4
:1028D40093469C4662680021921841EB010318EB71
:1028E4000B0049EB0C01FDF78BFC264DA5FB0032D8
:1028F4005109642202FB1102D3003233A5FB0323E6
:102904005B095A0002F4F87202EB011203F00703A8
:10291400216813448B6030E0FEF75AFC4FF0000945
:10292400061849EB090716EB000B47EB090C4FEAB5
:10293400CC0343EA5B734FEACB0293469C4663683D
:102944009A009B0F10EB0B0049EB0C01FDF758FCB0
:102954000C4DA5FB00325109642202FB1102130144
:102964003233A5FB03235B0903F0F00202EB0112EF
:1029740003F00F03216813448B60BDE8F08B00BFA4
:10298400001001401F85EB5158B310B5044690F870
:1029940039300BB3242384F839302268D36823F404
:1029A4000053D3602046FFF7E3FE2268136923F443
:1029B400904313612268536923F02A035361226808
:1029C400D36843F40053D3600020E063202384F8E9
:1029D400393084F83A3010BD80F8383001F000F90D
:1029E400D8E701207047704708B50168CB6823F029
:1029F4004003CB60202380F83930FFF7F4FF002038
:102A040008BD704708B590F83A30DBB2222B45D1A7
:102A14008368B3F5805F0ED0036903BB03685A680B
:102A2400836A591C81621A70C38D013B9BB2C385B2
:102A3400F3B1002033E0826A036943B903685B6839
:102A4400C3F308031380836A02338362ECE70368E9
:102A54005B68DBB21380836A01338362E4E7036853
:102A64005B68826A511C816203F07F031370DBE7A9
:102A74000268D36823F02003D3600268D36823F488
:102A84008073D3600268536923F0010353612023E8
:102A940080F83A30FFF7B5FF002000E0022008BDBF
:102AA4007047000010B5044602681368D168526983
:102AB40013F00F0005D113F0200F02D011F0200FF6
:102AC40056D100286AD012F0010202D111F4907F8D
:102AD40064D013F0010F06D011F4807F03D0E06BB3
:102AE40040F00100E06313F0040F04D01AB1E06B6E
:102AF40040F00200E06313F0020F04D01AB1E06B5F
:102B040040F00400E06313F0080F07D011F0200F29
:102B140000D11AB1E26B42F00802E263E26B002AD0
:102B240048D013F0200F02D011F0200F24D12368D5
:102B34005B6903F04003E26B12F0080F00D13BB372
:102B44002046FFF7D3FD23685A6912F0400F1BD0CB
:102B54005A6922F040025A61636B8BB11A4A1A65B2
:102B6400606BFEF747F828B3606B036D984721E06C
:102B74002046FFF747FF1DE02046FFF743FFD6E757
:102B84002046FFF78DFF15E02046FFF789FF11E08F
:102B94002046FFF785FF0023E3630BE013F0800F6B
:102BA40002D011F0800F06D113F0400F02D011F0C3
:102BB400400F04D110BD2046FFF7A6FDFAE72046DA
:102BC400FFF712FFF6E700BFD12B000808B5806BB2
:102BD4000023C385C384FFF763FF08BD0B4B1B6849
:102BE4000B4AA2FB03235A0A41F2883303FB02F384
:102BF4005A1E43B1416B134611F0800FF8D0C52320
:102C04008363002070474FF0004070470C000020A1
:102C1400D34D6210154B1B68154AA2FB03235A0AB5
:102C240041F2883303FB02F35A1EDBB1416B1346B6
:102C340011F0450FF8D011F4006FF5D1436B13F088
:102C4400040F07D1436B13F0010F07D1C52383632E
:102C5400002070470423836318467047012383636D
:102C6400184670474FF00040704700BF0C0000202A
:102C7400D34D6210114B1B68114AA2FB03235A0A5D
:102C840041F2883303FB02F35A1E9BB1416B134696
:102C940011F0450FF8D011F4006FF5D1436B13F028
:102CA400040F03D1C5238363002070470423836387
:102CB400184670474FF00040704700BF0C000020DA
:102CC400D34D6210184B1B68184AA2FB03235A0AFF
:102CD40041F2883303FB02F35A1EFBB1416B1346E6
:102CE40011F0450FF8D011F4006FF5D1436B13F0D8
:102CF400040F0BD1436B13F0010F0BD1436B13F093
:102D0400400F0ED040238363002070470423836365
:102D14001846704701238363184670474FF00040FC
:102D240070470020704700BF0C000020D34D621094
:102D340084B010B402AC84E80E000B46039A13432B
:102D4400049A1343059A1343069A1343079A1343A9
:102D5400426822F4FD4222F07F02134343600020C4
:102D64005DF8044B04B07047D0F8800070470B68DE
:102D7400C0F880300020704708B5032303600220A8
:102D8400FDF70EFC002008BD006800F0030070474A
:102D94000B6883604B688A681343CA6813430A69E3
:102DA4001343C26822F47F6222F00F021343C3600C
:102DB400002070470069C0B2704714304058704713
:102DC40038B5524B1B68524CA4FB03435B0A02FB0D
:102DD40003F2531E002A60D0446B1A4614F0450FC8
:102DE400F7D014F4006FF4D1436B13F0040F07D140
:102DF400436B13F0010F07D00123836318464EE0A1
:102E04000423836318464AE00D460446C5238363BE
:102E1400FFF7D0FFA84201D0012040E00021204666
:102E2400FFF7CBFF3B4B0340D3B300283ADB10F052
:102E3400804F3AD110F0005F39D110F0805F38D163
:102E440010F0006F38D110F0806F38D110F0807F0F
:102E540038D110F4000F38D110F4800F38D110F4A9
:102E6400001F38D110F4801F38D110F4802F38D1CE
:102E740010F4003F38D110F4803F38D110F4004FE3
:102E840038D110F4804F38D110F4005F38D110F0ED
:102E9400080F38D04FF4000001E04FF0004038BD77
:102EA4000020FCE74FF00070F9E74020F7E78020AE
:102EB400F5E74FF48070F2E74FF40070EFE74FF45A
:102EC4008060ECE74FF40060E9E74FF48050E6E7F8
:102ED4004FF40050E3E74FF48040E0E74FF4004044
:102EE400DDE74FF40030DAE74FF48020D7E74FF402
:102EF4000020D4E74FF48010D1E74FF40010CEE760
:102F04004FF48000CBE74FF48030C8E70C0000207A
:102F1400D34D621008E0FFFD70B5264B1B68264CAC
:102F2400A4FB03435C0A41F2883303FB04F35C1EF5
:102F3400B3B3456B234615F0450FF8D015F4006F75
:102F4400F5D1436B13F0040F07D1436B13F0010F5A
:102F540007D001238363184624E0042383631846BF
:102F640020E016460D460446FFF724FFA84201D090
:102F7400012017E0C523A36300212046FFF71DFFAE
:102F840010F4604F08D010F4804F0CD110F4004FAF
:102F94000CD04FF4805005E0000C3080002001E09C
:102FA4004FF0004070BD4FF40050FBE74FF4803009
:102FB400F8E700BF0C000020D34D62100B68436299
:102FC4004B6883628B68CA6813430A6913434A696E
:102FD4001343C26A22F0F7021343C362002070470E
:102FE40030B587B005460191102402944023039321
:102FF400002304934FF48063059301A9FFF7C8FEEF
:1030040041F2883221462846FFF7DAFE07B030BD88
:1030140030B587B0054601911124029440230393EF
:10302400002304934FF48063059301A9FFF7B0FED6
:1030340041F2883221462846FFF7C2FE07B030BD70
:1030440030B587B0054601911224029440230393BE
:10305400002304934FF48063059301A9FFF798FEBE
:1030640041F2883221462846FFF7AAFE07B030BD58
:1030740030B587B005460191182402944023039388
:10308400002304934FF48063059301A9FFF780FEA6
:1030940041F2883221462846FFF792FE07B030BD40
:1030A40030B587B005460191192402944023039357
:1030B400002304934FF48063059301A9FFF768FE8E
:1030C40041F2883221462846FFF77AFE07B030BD28
:1030D40030B587B00546002301930C2402944022A6
:1030E400039204934FF48063059301A9FFF750FE04
:1030F400034A21462846FFF763FE07B030BD00BFF0
:1031040000E1F50530B587B0054601920724029425
:1031140040230393002304934FF48063059301A990
:10312400FFF736FE41F2883221462846FFF748FE73
:1031340007B030BD10B586B0044600230193029356
:10314400039304934FF48063059301A9FFF720FED2
:103154002046FFF743FD06B010BD10B586B0044607
:103164004FF4D57301930823029340230393002360
:1031740004934FF48063059301A9FFF709FE2046E9
:10318400FFF7A0FD06B010BD30B587B0054601912C
:103194003724029440230393002304934FF4806361
:1031A400059301A9FFF7F4FD41F288322146284630
:1031B400FFF706FE07B030BD10B586B0044641F0F7
:1031C400004141F480110191292302934023039388
:1031D400002304934FF48063059301A9FFF7D8FDFE
:1031E4002046FFF747FD06B010BD10B586B0044673
:1031F4000023019302220292C022039204934FF40B
:103204008063059301A9FFF7C3FD2046FFF702FD84
:1032140006B010BD10B586B004460191092302938F
:10322400C0230393002304934FF48063059301A9FF
:10323400FFF7AEFD2046FFF7EDFC06B010BD70B5FC
:1032440086B005460E4600230193032402944022CF
:10325400039204934FF48063059301A9FFF798FD4B
:10326400324621462846FFF757FE06B070BD30B5FA
:1032740087B0054601910D24029440230393002353
:1032840004934FF48063059301A9FFF781FD41F294
:10329400883221462846FFF793FD07B030BD000071
:1032A400104B5B7ADBB930B40E4B5D7AEDB200247F
:1032B4005C555D7A03EB85056860587A18440272A0
:1032C4005A7AD2B2501CC0B2587230320A703A23C1
:1032D4004B702F238B70CC70204630BC704701207C
:1032E400704700BF2C00002008B50022FFF7D8FF6C
:1032F40008BD000000B583B0009313460A4601469A
:103304000348FEF7EBFB00B1012003B05DF804FBBA
:103314007422002000B583B0009313460A46014688
:103324000348FEF70DFD00B1012003B05DF804FB76
:103334007422002008B50348FEF7DBFF043818BFE9
:10334400012008BD7422002008B501460148FEF79B
:10335400BEFF08BD74220020704708B5FFF7FCFFCC
:1033640008BD704708B5FFF7FCFF08BD704708B5F6
:10337400FFF7FCFF08BD82B001238DF807309DF8EC
:10338400070002B07047000008B5FFF7F4FF0128FA
:1033940001D0012008BD0248FEF77AFFFAE700BF1A
:1033A4007422002008B503490348FFF79DFF034B2F
:1033B400187008BD44000020F83E000840000020BA
:1033C400054B064A1A6000225A609A60DA601A6154
:1033D4005A619A61704700BF74220020002C01409A
:1033E4002DE9F0438BB000240594069407940894C7
:1033F400099400943C4B1A6B42F004021A631A6B52
:1034040002F004020092009A01941A6B42F08002C6
:103414001A631A6B02F080020192019A02941A6BE9
:1034240042F001021A631A6B02F001020292029A3C
:1034340003941A6B42F002021A631A6B02F002023E
:103444000392039A04941A6B42F008021A631B6BEA
:1034540003F008030493049B244D22464FF4804157
:103464002846FDF795FDDFF88C9022464FF4007155
:103474004846FDF78DFDDFF8808022460421404652
:10348400FDF786FD4FF480430593012606960794C5
:10349400089405A92846FDF7AFFC4FF4007705977B
:1034A40006960794089405A94846FDF7A5FC4FF431
:1034B400807305930694079405A90D48FDF79CFCB9
:1034C4000423059306960794089405A94046FDF73E
:1034D40093FC059706940223079305A92846FDF754
:1034E4008BFC0BB0BDE8F0830038024000040240BE
:1034F4000000024000080240000C024010B582B0F7
:10350400002401940D4B1A6B42F480021A631B6B66
:1035140003F480030193019B224621463B20FDF7DF
:1035240045FA3B20FDF776FA224621464520FDF771
:103534003DFA4520FDF76EFA02B010BD0038024096
:1035440008B50B480B4B03601423436000238360CE
:10355400C3604FF4E02202614361037601224276A4
:103564008376C37603774377FDF72EF808BD00BF53
:10357400382300200064004008B50B480B4B03605F
:103584001423436000238360C3604FF4E02202618C
:1035940043610376012242768376C37603774377C9
:1035A400FDF712F808BD00BF4C2100200068004060
:1035B40008B50748074B0360002343607F228260FD
:1035C400FF22C260036143618361FEF76EF908BDA7
:1035D400B42100200028004030B583B000250095B8
:1035E40001950A4C0A4B236040F2E7336360A560FF
:1035F4006323E360A5612046FFF71AF8009501955F
:1036040069462046FFF72EF803B030BD342200206F
:103614000010004008B50848084B03604FF46143AC
:10362400436000238360C36003610C2242618361B1
:10363400C361FFF7A9F908BD7421002000100140FF
:1036440008B50848084B03604FF416534360002341
:103654008360C36003610C2242618361C361FFF72D
:1036640093F908BDF82200200044004008B508483A
:10367400084B03604FF41653436000238360C36018
:1036840003610C2242618361C361FFF77DF908BDC8
:103694000C2100200048004030B5A5B034220021A0
:1036A40017A800F00FFC002412941394149415949A
:1036B40016943C22214603A800F004FC0194224BFA
:1036C4001A6C42F080521A641B6C03F0805301930D
:1036D400019B02941D4B1A6842F440421A601B6815
:1036E40003F440430293029B052317934FF4803362
:1036F40018930123199302251D954FF480031E93FB
:103704000C231F9360232093219504232293239554
:1037140017A8FDF7CBFE0F231293139514944FF4BF
:10372400805315931694032112A8FDF78BFC68238C
:1037340003934FF480730A930D940B9403A8FDF73D
:1037440057FD25B030BD00BF003802400070004076
:1037540008B5FCF7F9FEFFF79FFFFFF741FEFFF7FF
:10376400CDFEFFF7EDFEFFF707FFFFF721FFFFF7A1
:1037740027FEFFF731FFFFF74DFFFFF761FFFFF76C
:1037840075FFFFF70FFEFEE77047000008B5074B13
:1037940001221A70FFF7CEFD20B9044A137803F012
:1037A400FE031370014B187808BD00BF0800002009
:1037B40010B50446074B01221A70FFF7E5FD10B15E
:1037C400044B187810BD2046FFF7E0FF014B18703A
:1037D400F6E700BF0800002008B5FFF7D7FF08BDD3
:1037E40008B5084611461A464FF0FF33FFF782FD2D
:1037F40020B9FFF79FFD0028FBD108BD0120FCE79D
:1038040008B5084611461A464FF0FF33FFF782FD0C
:1038140020B9FFF78FFD0028FBD108BD0120FCE78C
:10382400154B1B7813F0010F21D110B588B0144645
:1038340003291ED8DFE801F002050C13002008B0AC
:1038440010BD6846FFF780FD069B23600020F6E765
:103854006846FFF779FD079B23800020EFE7684661
:10386400FFF772FD079B5B0A23600020E7E7032054
:1038740070470420E3E700BF0800002082B0002165
:1038840000910B4B5A6C42F480425A645A6C02F415
:1038940080420092009A01911A6C42F080521A649C
:1038A4001B6C03F080530193019B02B0704700BF6F
:1038B4000038024010B58AB000230593069307939D
:1038C400089309930368464A934204D0454A9342B5
:1038D4003ED00AB010BD444A136801331360012B73
:1038E40029D000240194414B1A6B42F001021A635F
:1038F4001B6B03F001030193019B4FF4C053059329
:1039040002230693032308930923099305A938483E
:10391400FDF772FA224621461420FDF747F81420D9
:10392400FDF778F8224621461520FDF73FF81520CB
:10393400FDF770F8CDE7002300932C4B1A6C42F08E
:1039440000721A641B6C03F000730093009BC8E7B9
:10395400254A136801331360012B33D000240394E8
:10396400224B1A6C42F080621A641A6C02F0806274
:103974000392039A04941A6B42F002021A631B6BBB
:1039840003F002030493049B4FF440530593022372
:103994000693032308930923099305A91548FDF702
:1039A4002BFA224621464020FDF700F84020FDF77F
:1039B40031F8224621464120FCF7F8FF4120FDF76B
:1039C40029F886E700230293084B1A6C42F0007230
:1039D4001A641B6C03F000730293029BBEE700BFE2
:1039E40000640040006800403800002000380240B5
:1039F40000000240000402400268044B9A4200D0D6
:103A04007047034B01221A60FAE700BF0028004008
:103A14003C0E47422DE9F0438BB0002305930693F7
:103A24000793089309930268594B9A4202D00BB04A
:103A3400BDE8F08304460025019503F586335A6CEE
:103A440042F400625A645A6C02F400620192019AD0
:103A540002951A6B42F001021A631A6B02F001021A
:103A64000292029A03951A6B42F002021A631A6BCD
:103A740002F002020392039A04951A6B42F00402C4
:103A84001A631B6B03F004030493049B4FF0400977
:103A9400CDF814904FF00208CDF81880032608964C
:103AA4000C27099705A93B48FDF7A6F94FF40043F5
:103AB4000593CDF8188007950896099705A9364807
:103AC400FDF79AF94FF480730593CDF818800795A4
:103AD4000896099705A93148FDF78EF93048314B0E
:103AE40003604FF000634360C0F80890C5604FF472
:103AF400806303614FF4805343614FF480438361D7
:103B04002023C36105620423436286624FF40003E9
:103B1400C3624FF400130363FDF706F8002830D1A5
:103B24001F4BE3639C632048204B03604FF000630A
:103B3400436000238360C3604FF4806202614FF4EA
:103B4400805242614FF4804282612022C26103624A
:103B540004234362032383624FF40003C3624FF4DC
:103B640000130363FCF7E0FF70B90F4B23649C63FD
:103B7400002211463120FCF719FF3120FCF74AFFDF
:103B840055E7FFF701FECBE7FFF7FEFDEDE700BFCA
:103B9400002C0140000002400004024000080240E2
:103BA400D421002058640240AC200020A0640240CC
:103BB4000268094B9A4200D0704782B000230193F7
:103BC400064B1A6C42F010021A641B6C03F01003CB
:103BD4000193019B02B0704700100040003802407E
:103BE400F0B58DB000230793089309930A930B93C0
:103BF4000368514A934207D0504A934230D0504A06
:103C0400934258D00DB0F0BD002400944D4B5A6C33
:103C140042F010025A645A6C02F010020092009AA8
:103C240001941A6B42F001021A631B6B03F0010347
:103C34000193019B4FF4C06307930223089303236A
:103C44000A9307230B9307A93F48FDF7D5F82246AB
:103C540001212520FCF7AAFE2520FCF7DBFED1E795
:103C640000240294374B1A6C42F400321A641A6C22
:103C740002F400320292029A03941A6B42F0010297
:103C84001A631B6B03F001030393039B0C23079339
:103C94000223089303230A9307230B9307A92A48B3
:103CA400FDF7AAF8224601212620FCF77FFE2620F4
:103CB400FCF7B0FEA6E700240494224B1A6C42F4ED
:103CC40080221A641A6C02F480220492049A0594E5
:103CD4001A6B42F004021A631A6B02F00402059292
:103CE400059A06941A6B42F002021A631B6B03F0E6
:103CF40002030693069B20230793022708970325B4
:103D04000A9507260B9607A91048FDF775F84FF496
:103D140080630793089709940A950B9607A90C48A2
:103D2400FDF76AF8224629462720FCF73FFE2720A4
:103D3400FCF770FE66E700BF00100140004400403D
:103D440000480040003802400000024000080240E1
:103D5400000402407047FEE7FEE7FEE7FEE7704717
:103D64007047704708B5FCF709FC08BD08B5024860
:103D7400FCF7DDFC08BD00BF3823002008B502486D
:103D8400FCF7D5FC08BD00BF3823002008B5024865
:103D9400FEF788FE08BD00BF7421002008B5024864
:103DA400FEF780FE08BD00BFF822002008B50248D7
:103DB400FEF778FE08BD00BF0C21002008B50248BC
:103DC400FEF7EEFA08BD00BF7422002008B50248D1
:103DD400FCF724FF08BD00BFD421002008B5024829
:103DE400FCF7A5FC08BD00BF4C21002008B5024823
:103DF400FCF79DFC08BD00BF4C21002008B502481B
:103E0400FCF70CFF08BD00BFAC200020054BD3F825
:103E1400882042F47002C3F888204FF000629A6050
:103E2400704700BF00ED00E0DFF834D0002103E06C
:103E34000C4B5B58435004310B480C4B42189A42CC
:103E4400F6D30B4A02E0002342F8043B094B9A42A2
:103E5400F9D3FFF7DBFF00F011F8FFF779FC7047A7
:103E640000000420343F000800000020100000205F
:103E74001000002060230020FEE7000070B50D4E06
:103E84000D4CA41BA4100025A54209D10B4E0C4CCB
:103E940000F020F8A41BA4100025A54205D170BD94
:103EA40056F8253098470135EEE756F825309847FF
:103EB4000135F2E72C3F00082C3F00082C3F000896
:103EC400303F000802440346934200D1704703F890
:103ED400011BF9E7F8B500BFF8BC08BC9E46704763
:0C3EE400F8B500BFF8BC08BC9E46704753
:103EF0000006101600061016B5370008DD3700085A
:103F0000E5370008053800082538000800000000E3
:103F10000000000001020304060708090000000079
:043F20000102030493
:083F240010C3FF7F0100000043
:043F2C00E90100089F
:043F3000C5010008BF
:103F34000100000010000000010000000024F40053
:0400000508003E2D84
:00000001FF
