:020000040800F2
:1000000088340020D9010008C34A0008DB450008F5
:10001000A14A0008270C0008795A000800000000D7
:100020000000000000000000000000003155000842
:100030005D0E000800000000C54A00085555000884
:10004000F3010008F3010008F3010008F3010008C0
:10005000F3010008F3010008F3010008F3010008B0
:10006000F3010008F3010008F3010008F3010008A0
:10007000F3010008F3010008F3010008F301000890
:10008000950D0008F3010008F3010008F3010008D2
:10009000290C0008350C0008F3010008F3010008E2
:1000A000F3010008F3010008F3010008F301000860
:1000B000F3010008F3010008F3010008F301000850
:1000C000F3010008F3010008F3010008F301000840
:1000D000F3010008555A0008615A00086D5A0008DB
:1000E000F3010008F3010008F3010008F301000820
:1000F000F3010008F3010008F3010008F301000810
:10010000000000009D4B0008F3010008F301000807
:10011000000000000000000019560008F30100086C
:10012000F3010008F3010008F3010008A10D000825
:10013000F3010008F3010008F3010008F3010008CF
:10014000410C00084D0C0008F3010008F301000801
:10015000F3010008AD0D0008F3010008F3010008E9
:10016000F3010008F3010008000000000000000097
:10017000000000000000000000000000000000007F
:10018000F3010008F3010008000000000000000077
:10019000F3010008F3010008000000000000000067
:1001A000000000000000000000000000000000004F
:1001B000F30100080000000000000000F301000847
:1001C000F3010008DFF80CD000F0CCFB004800473A
:1001D0008D83000888340020064880470648004781
:1001E000FEE7FEE7FEE7FEE7FEE7FEE7FEE7FEE7E7
:1001F000FEE7FEE7FD550008C50100082DE9F05FA8
:100200000546002092469B46884606468146402485
:100210001BE0284641464746224600F079FA5346FD
:100220005A46C01A914110D311461846224600F092
:1002300060FA2D1A67EB01084F4622460120002183
:1002400000F057FA17EB00094E41201EA4F10104FB
:10025000DFDC484631462A464346BDE8F09F40EA87
:1002600001039B0703D009E008C9121F08C0042A34
:10027000FAD203E011F8013B00F8013B521EF9D21B
:100280007047D2B201E000F8012B491EFBD2704743
:100290000022F6E710B513460A4604461946FFF752
:1002A000F0FF204610BD421E12F8013F002BFBD18B
:1002B00011F8013B02F8013B002BF9D1704730B532
:1002C00005462A460B4612F8010B13F8014B08B1FC
:1002D000A042F8D01CB1002802D06D1CF1E72846DE
:1002E00030BDCAB2401E10F8011F8A4202D0002958
:1002F000F9D100207047421C10F8011B0029FBD1E6
:10030000801A70472DE9FE4F804681EA0300C00F36
:100310000C46009021F0004123F00045B8EB0200AC
:10032000A94105D24046214690461C460B4602464E
:1003300023F00040104347D0270DC7F30A00C3F352
:100340000A510290401A019040286BDAC3F313005F
:1003500040F4801B0098924620B10023D2EB030AA0
:1003600063EB0B0B01985946C0F14002504600F078
:10037000C0F906460D4650465946019A00F0D8F994
:1003800010EB08006141002487EA115284EAE77308
:100390001A4340D0009A62B3019A012A4FEA0752E9
:1003A00015DC001B61EB02014FF0004202EA07522C
:1003B000CDE90042001C41F5801132462B4600F089
:1003C0000FFA03B0BDE8F08F40462146F9E7001B65
:1003D00061EB0201001C41F5801300185B412018FD
:1003E000A2F5001747EB030140EAD570B6196D413D
:1003F00011E06D084FEA360645EAC0754FEA07522C
:10040000001B61EB0201001C41F5801149084FEA15
:1004100030000019514132462B4603B0BDE8F04F81
:1004200000F0CFB90098012240000023D0EB020277
:1004300063EBE073009821464FEAE074B8EB0000EC
:1004400061EB0401E9E783F000435BE781F00041E1
:1004500058E72DE9FE4F81EA030404F0004421F03F
:10046000004100944FF0000B23F0004350EA0104D8
:100470005ED052EA03045BD0C3F30A54C1F30A55B9
:100480002C44A4F2F3340194A0FB0254C1F31301F1
:1004900041F48011C3F3130343F4801301FB0244BE
:1004A00000FB034E840A970A44EA815447EA8357C3
:1004B000A4FB076802958D0A05FB07854FEA932C7C
:1004C00004FB0C542705029D4FEA065847EA1637ED
:1004D000B5EB08056EEB070C870E920E47EA811705
:1004E00042EA8312A7FB0201B6EB0B0164EB0004A6
:1004F0002B0D43EA0C335E1844EB1C50DA46514690
:10050000E7FB0201C5F313044FEA0B3343EA14532C
:100510004FEA0432019C43EA0603A4F10C0402945E
:10052000009CCDE900B400F05BF903B0BDE8F08FAA
:1005300000200146F9E72DE9F04D81EA030404F0BB
:10054000004B21F0004514464FF0000A23F0004113
:1005500050EA050220D054EA01021DD0C5F30A5723
:100560000246C5F31303C1F31300C1F30A5640F466
:10057000801543F48013A7EB0608101BD64608F23B
:10058000FD3873EB050002D308F1010801E0921871
:100590005B41B8F1000F03DA00200146BDE8F08DA1
:1005A00000204FF48011064684460EE0171B73EBC3
:1005B000050705D3121B63EB050306434CEA010C48
:1005C00049084FEA300092185B4150EA0107EDD12B
:1005D00052EA030012D082EA040083EA05010843CC
:1005E00005D0101BAB4106D20122002306E00022F9
:1005F0004FF0004302E06FF0010253101AEB0600C7
:100600004CEB085110EB0A0041EB0B01BDE8F04D3B
:1006100000F0D7B80EB5C10F80EAE0700844CA07F1
:10062000002140F233438DE80E000A460B4600F0ED
:10063000D7F803B000BDC1F30A5210B5C1F31301DE
:1006400040F2FF3341F480119A4201DA002010BDDC
:1006500040F233439A42A2F2334203DC524200F0AA
:1006600057F810BD904010BD00F0004230F000403F
:100670000AD0C10D01F56071C0F3160042EA0151C4
:10068000C20840071143704700200146704701F03F
:10069000004330B421F0004150EA010206D00A0DB7
:1006A000A2F56072C1F31301002A02DC30BC002005
:1006B0007047440F44EAC104C100E01830BC00EBAD
:1006C000C25000F047B830B50B460146002020224A
:1006D000012409E021FA02F59D4205D303FA02F54F
:1006E000491B04FA02F52844151EA2F10102F1DCAF
:1006F00030BD202A04DB203A00FA02F100207047C6
:100700009140C2F1200320FA03F31943904070474F
:10071000202A04DB203A21FA02F00021704721FA56
:1007200002F3D040C2F120029140084319467047BD
:10073000202A06DBCB17203A41FA02F043EAE073A5
:1007400006E041FA02F3D040C2F120029140084392
:10075000194670470029A8BF7047401C490008BFD0
:1007600020F00100704710B4B0FA80FC00FA0CF0E1
:1007700050EA010404BF10BC704749B1CCF1200419
:1007800021FA04F411FA0CF118BF012121430843A6
:10079000A3EB0C01CB1D4FEA00614FEA102042BFD2
:1007A000002010BC704700EBC35010440029A4BFC8
:1007B00010BC7047401C490008BF20F0010010BC6D
:1007C000704710B5141E73F1000408DA401C41F1A3
:1007D000000192185B411A4301D120F0010010BDC5
:1007E0002DE9F04D92469B4611B1B1FA81F202E03B
:1007F000B0FA80F220329046FFF77BFF04460F46A6
:1008000040EA0A0041EA0B0153465A46084313D016
:10081000114653EA010019D0C8F140025046FFF7D3
:1008200077FF05460E46504659464246FFF761FFA0
:10083000084305D0012004E020463946BDE8F08D8C
:100840000020054346EAE0762C4337430A986305C7
:10085000E40AA0EB08000022FD0A44EA47540A30EB
:1008600002D500200146E9E7010510196941DDE9DB
:10087000084500196941BDE8F04DA2E72DE9FE4F9A
:10088000C3F30A5701F000450024C1F30A56C3F32D
:100890001303C1F3130143F4801312EB020AA646BB
:1008A00041F48011009543EB030CA7F1010B16E016
:1008B000B0EB0A0061EB0C01071E71F1000707DACB
:1008C0004FF00008D0EB080085F0004568EB01010F
:1008D000171A73EB0107EBD3761E001849415E45EA
:1008E000F6DA50EA010209D0CDE900E5002213460C
:1008F0000296FFF775FF03B0BDE8F08F2046009920
:10090000F9E7C1F30A52C1F3130140F2FF3341F496
:1009100080119A4202DA00200146704740F23343C8
:100920009A42A2F2334202DC5242FFF7F1BEFFF7D5
:10093000E0BE000030B5041E71F1000404DB4FF08E
:100940000044404264EB0101141E73F1000405DB16
:100950001C464FF00043524263EB0403994208BF28
:10096000904230BD064C074D06E0E06840F00103C0
:1009700094E8070098471034AC42F6D3FFF726FC02
:1009800090920008B092000870B50126049C00F116
:10099000700C0025C6678CE87000C1F34F34C46545
:1009A0004FF6FF7404EAC101091D0166C2F34F311D
:1009B000416604EAC201091DC0E91A1300F15C0195
:1009C00000F048FD08B1002070BD012070BD10B5D9
:1009D000044600F02DFD18B9204601F077FC08B15F
:1009E000002010BD012010BD10B500F1880300F1FA
:1009F000400200F0B6FD08B1032010BD012010BD7B
:100A000038B51C880D5D491C8DF80050615C8DF86F
:100A10000110BDF9001000EE101AF8EEC00A00EE49
:100A2000102AB8EE400A80EE801A80ED001A18886D
:100A3000801C188038BD10B5148803780B551388B6
:100A4000491C407858541088801C108010BD1388B1
:100A50000078C8541088401C1080704738B51C8836
:100A60000D5D491C8DF80050615C8DF80110BDF8DA
:100A7000001000EE101AF8EE400A00EE102AB8EE50
:100A8000400A80EE801A80ED001A1888801C1880B9
:100A900038BD10B5148803780B551388491C40786D
:100AA00058541088801C108010BD30B5148803780D
:100AB0000B5515884B1C4478EC5415888B1C847896
:100AC000EC541388C91CC07858541088001D10803D
:100AD00030BD1388C95C01701088401C10807047BD
:100AE00010B51388CB5C037014884B1CE35C437017
:100AF00014888B1CC91CE35C83701388595CC1701B
:100B00001088001D108010BD13880078C85410880C
:100B1000401C108070471388C95C01701088401C0D
:100B200010807047704700000146014802F036BD52
:100B30005001002010B5044802F042FD042801D005
:100B4000012010BD002010BD5001002010B500F0A4
:100B50000BF8012801D0012010BDBDE8104001486C
:100B600002F044BE5001002008B501208DF80000BD
:100B70009DF8000008BD000070B513460A46014606
:100B80000024104802F034FF40B90F4D0D4802F028
:100B90002DFD641C032803D0012804D0012070BD62
:100BA000AC42F3D3FAE70024064802F009FD641CC6
:100BB000042801D0AC42F7D3AC4201D3032070BD6E
:100BC000002070BD5001002000E1F50570470000D5
:100BD00070B513460A4601460024104802F0A8FFEB
:100BE00040B90F4D0D4802F001FD641C032803D0ED
:100BF000012804D0012070BDAC42F3D3FAE70024F1
:100C0000064802F0DDFC641C042801D0AC42F7D396
:100C1000AC4201D3032070BD002070BD5001002004
:100C200000E1F5057047FEE7014800F00EBD000049
:100C3000E0000020014800F008BD0000E0000020B6
:100C4000014800F002BD000008010020014800F04A
:100C5000FCBC00000801002070B504462A21FFF703
:100C600040FB807803F0BCFC05462A212046FFF7B4
:100C700038FB407803F0B4FC05EB001070BD0000B9
:100C80002DE9FC4F414842490446D0F8C050019537
:100C9000F4E931320E6B247AB54205D84D6BAB4284
:100CA00002D88D6BAA4202D924F0040401E044F07A
:100CB000040480F8CC40D0F8A0700097334CD1F8F1
:100CC00020C054F8A46F6745D4E9015408D84F6A8E
:100CD000BE4205D88F6ABD4202D8CF6ABC4204D951
:100CE00090F8CC7027F0020703E090F8CC7047F042
:100CF000020780F8CC70D0F89C70D1F81CC0BB46BD
:100D0000674590F8CC7002D927F0010701E047F061
:100D1000010780F8CC70D1F83C808A461B49D0F896
:100D2000B0E0814651F8B4CFC645D1E901710CD885
:100D3000DAF840805046C44507D8D0F8448047458B
:100D400003D8DAF84800814204D999F8CC0020F0A1
:100D5000080803E099F8CC0040F0080889F8CC8036
:100D60005046CAF81CB0DDF80080C0E90A54C0E95A
:100D70000886019CCAF83CE0CAF83040C0E90D3250
:100D8000CAE910C7CAF84810BDE8FC8F78060020F1
:100D900000000020014801F0E1BA0000FC2D002015
:100DA000014801F0DBBA00009C2D0020014801F051
:100DB000D5BA00003C2D002001681823CAB2103AB1
:100DC000B2FBF3F2054B6FF30901032A9B5CC36589
:100DD00000D9091D8165084670470000808D000814
:100DE00010B5014600208B698A6A4FF0C07453B178
:100DF000B3F5005F15D072B1012A0CD0022A0AD0D7
:100E0000032A09D104E01AB1012A06D0022A03D12B
:100E1000C96AC90100D5012010BDC96AA142FAD032
:100E200010BD002AF7D0012AF2D0022AF3D0032AFB
:100E3000F3D010BD30B50468256825F48025256001
:100E4000046863608368402B036803D0996000687E
:100E5000C26030BD9A600068C16030BD70477047A5
:100E6000002200F001B8000030B50E4B054601200D
:100E70005C7A002C14D1587A1C54587A03EB800009
:100E800045605D7A03F108002A54587A421C5A7270
:100E9000303008703A2048702F208870CC700020C5
:100EA00030BD00007C30002005E002782C2A01D102
:100EB000491EC9B2401C0029F7D170472DE9F04105
:100EC00004468FA1C01CFFF7FAF905468EA1E01C6D
:100ED000FFF7F5F904F58B7704F58176002D76D0D0
:100EE000691CE01C03F0DEFD0546E01CFFF7B4FEC4
:100EF00085426BD10221E01CFFF7D6FF0078412824
:100F000078D10421E01CFFF7CFFF03460321E01C4A
:100F1000FFF7CAFF1B1A0321E01C5B1EFFF7C4FF8B
:100F200001461A463046FFF79AF90621E01CFFF702
:100F3000BBFF03460521E01CFFF7B6FF1B1A052186
:100F4000E01C5B1EFFF7B0FF01461A463846FFF76C
:100F500086F90821E01CFFF7A7FF03460721E01CE4
:100F6000FFF7A2FF1B1A0721E01C5B1EFFF79CFF87
:100F7000014604F595701A460546FFF770F92846B4
:100F800007F0DAFCFFF746FB9FED611B53EC112BDA
:100F9000FFF75FFAFFF74FFB84F85C01304604F57A
:100FA000AA7407F0D3FD05F09BFB51EC100BFFF783
:100FB0006EFB2060384607F0C9FD05F091FB51EC4F
:100FC000100BFFF764FB606073E000E077E000283F
:100FD0007AD0411CE01C03F065FD0546E01CFFF7DC
:100FE0003BFE85426BD10621E01CFFF75DFF0078D8
:100FF000312805D0D4F86401401CC4F8640163E0D2
:101000000321E01CFFF750FF03460221E01CFFF71D
:101010004BFF1B1A0221E01C5B1EFFF745FF014638
:101020001A463046FFF71BF90521E01CFFF73CFF8D
:1010300003460421E01CFFF737FF1B1A0421E01CC4
:101040005B1EFFF731FF01461A463846FFF707F9E6
:101050000821E01CFFF728FF03460721E01CFFF7EB
:1010600023FF1B1A0721E01C5B1EFFF71DFF014633
:1010700004F59F701A460546FFF7F1F8304607F071
:1010800065FD05F02DFB51EC100BFFF700FBC4F8DC
:101090005401384604F5AA7407F058FD05F020FB0A
:1010A00051EC100BFFF7F3FA6060284607F044FCA0
:1010B000A0726069401C6061A4F5AA7404E0D4F8D1
:1010C0006001401CC4F86001F4E958010144A068C3
:1010D000014400EE101AF8EE400A00EE100AB8EED5
:1010E000401A81EE200ADFED0C0A20EE200ABCEE49
:1010F000C00A10EE100A04F8030CBDE8F0810000ED
:1011000024474E524D43000024474E4747410000BC
:101110006F1283C0CAA1FD3F0000C84270B581783C
:10112000002504460A290ED02088E31C421C228098
:10113000C1542088FF2809D1FF212580E01CBDE88B
:101140007040FFF7A5B8FFF7B9FEF5E770BD0000E6
:101150002DE9F043044690F8222000260E250C27A6
:101160002C30C9B04FF0100941F2707304F16C08D3
:10117000112A13D2DFE802F0091512121C252C33B4
:101180003A41486777A4B0B7BE0063A264A1204685
:1011900004F0CFF9012004F8210F667049B0BDE8D2
:1011A000F0835DA260A1204604F0C3F9042005E0AD
:1011B0005FA262A1204604F0BCF9052004F8210FCB
:1011C0003FE055A261A1204604F0B3F90620F5E7FF
:1011D00051A262A1204604F0ACF90720EEE74EA22E
:1011E00065A1204604F0A5F90820E7E74AA265A119
:1011F000204604F09EF90920E0E765A268A1204698
:1012000004F097F90A20D9E7724970A20B260A6404
:1012100071A2CA6472A2CA603C220A838E760A4610
:10122000402103F01DFA0246C4F834026EA168465C
:1012300004F024FC70A26946204604F07AF904F810
:10124000216F6570AAE76DA16162B4F83412D4F819
:101250003C628AB20146304603F061F984F821709D
:1012600084F822509AE76B4F67A004F26B12386043
:10127000ADF81C6147AB9146674907F2A45005F0F1
:1012800067FABDF81C110023CDE9059197E8070026
:1012900002AF0096019687E807001A46FF214046F4
:1012A00003F0A3FA0246C4F838024FA107A804F0DD
:1012B000E5FB1EA207A9204604F03BF90D207DE7BF
:1012C000B4F83802414682B2D4F83C02213403F02B
:1012D00026F96770277061E794F821000D28B1D1D5
:1012E00084F822705AE70D224CA1D4F83C0203F096
:1012F00016F903E04D480068800502D484F8229076
:101300004CE784F82260D4F83C0249B02146BDE89D
:10131000F043012203F030B84F4B0D0A00000000EB
:1013200041540D0A00000000415445300D0A0000F0
:1013300053485554204F4B0D0A00000041542B4395
:101340004950534855540D0A0000000041542B43A6
:10135000474154543D310D0A0000000041542B43D5
:101360005354543D22696E7465726E6574222C224A
:10137000222C22220D0A000041542B43494943529A
:101380000D0A000041542B43494653520D0A0000F8
:10139000434F4E4E454354204F4B0D0A0000000072
:1013A00041542B43495053544152543D22544350CD
:1013B000222C2234362E3130322E3130362E313836
:1013C00033222C2231383833220D0A0064696769D0
:1013D00074616C00540000206165736B00000000B4
:1013E000485944524100000041542B434950534551
:1013F0004E443D25640D0A003E00000053454E4416
:10140000204F4B0D0A0000004859445241444154BA
:1014100041000000D4000020A82B002041542B43A1
:1014200046554E3D312C310D0A000000100402409B
:1014300090F82020012A07D0022A05D0416A41F401
:101440008021416201207047006842690A4342617D
:101450000020704710B590F82020012A07D0022AFA
:1014600005D0416A41F480214162012010BD3B4812
:10147000D0F8002242F00102C0F80022D0F8002289
:1014800022F47C52C0F80022D0F800224B6A42EAD3
:101490000322C0F800220A7D02F01F0301229A40B5
:1014A000D0F81C329343C0F81C32CB69B3B9D0F8E2
:1014B0000C329343C0F80C328C894B6864F31F43A1
:1014C0004C6900EBC404C4F840320C890B6864F327
:1014D0001F434C6900EBC404C4F84432CB69012BB0
:1014E00016D1D0F80C321343C0F80C320C884B687C
:1014F00064F31F434C6900EBC404C4F840320C8908
:10150000CB6864F31F434C6900EBC404C4F8443255
:101510008B69002BD0F804320ED01343C0F804328C
:101520000B69002BD0F8143208D01343C0F81432E2
:10153000096A012904D008E09343EFE79343F5E7F4
:10154000D0F81C121143C0F81C12D0F8001221F080
:101550000101C0F80012002010BD0000006400402E
:10156000704730B590F82040012C05D0022C03D0F4
:10157000416A41F480215DE00468002955D0246966
:10158000A40754D04FF4D874056804EB01142D5906
:1015900015F00405956005682D594ED0ED0855608D
:1015A00005682C5904F00204D4604FF4DA7405681D
:1015B00004EB01142D5905F00F05156105682D592F
:1015C000C5F30725956105682C59240C54614FF427
:1015D000DC72046802EB0112A4581C700468A45861
:1015E000240A5C700468A458240C9C700468A258F7
:1015F000120EDA704FF4DE72046802EB0112A45886
:101600001C710468A458240A5C710468A458240C52
:101610009C710468A258120EDA71006881B10169E8
:1016200041F020010161002030BDE468A8E7416A73
:1016300041F400114162012030BD6D0D1560AFE72E
:10164000C16841F02001C160EDE72DE9F05F05467A
:10165000006800244669D0F804908768D0F80CB080
:10166000D0F810A0D0F81880F10748D0F90714D0AE
:1016700001218160B80703D5284600F054FE0CE034
:10168000780702D54FF4006407E0380702D54FF41D
:10169000805402E0284600F045FEF80516D529687A
:1016A0004FF480708860B80503D5284600F03DFEF1
:1016B0000CE0780502D544F4005407E0380502D563
:1016C00044F4804402E0284600F02EFEF80316D5CC
:1016D00029684FF480308860B80303D5284600F0AD
:1016E00026FE0CE0780302D544F4004407E03803FA
:1016F00002D544F4803402E0284600F017FE30079B
:1017000007D55FEACB6004D52968102044F4007443
:10171000C86070074FF0080707D55FEA0B7004D563
:101720002868C760284600F0A7F9B00706D52868E2
:10173000C068800702D0284600F0A0F9700607D5DF
:101740005FEACA6004D52968102044F48064086107
:10175000B00607D55FEA0A7004D5286807612846F5
:1017600000F088FBF00606D528680069800702D0E3
:10177000284600F081FBB00308D55FEAC96005D5B3
:10178000296810204860284600F09EFDF00307D528
:101790005FEA097004D528684760284600F0C8FD54
:1017A000300446D55FEA497040D5F00504D55FEABC
:1017B000C87001D044F00104B00504D55FEA887018
:1017C00001D544F00204700504D55FEA487001D5E4
:1017D00044F00404300529D518F0700F26D008F025
:1017E0007000402815D006DC102809D020280AD027
:1017F000302816D10AE050280ED0602811D10EE012
:1018000044F008040DE044F010040AE044F0200421
:1018100007E044F0400404E044F0800401E044F4B4
:1018200080742868816921F0700181612968042031
:101830004860002C05D0686A204368622846FFF79C
:101840008FFEBDE8F09F70B5040003D094F820002F
:1018500010B104E0012070BD204600F081F820683E
:10186000016821F00201016000F0C2FF0546052673
:1018700004E000F0BDFF401B0A2811D82068406832
:101880008007F6D42068016841F00101016000F092
:10189000AFFF05460BE000F0ABFF401B0A2806D95E
:1018A000606A40F40030606284F82060D2E720680B
:1018B0004068C007EFD0207E0128206801683DD035
:1018C00021F080010160607E01282068016838D025
:1018D00021F040010160A07E01282068016833D01A
:1018E00021F020010160E07E0128206801682ED0EF
:1018F00041F010010160207F01282068016829D093
:1019000021F008010160607F01282068016824D06F
:1019100021F004010160D4E902010843D4E9041272
:10192000114308436168491E08432168C8610020CB
:101930006062012084F82000002070BD41F0800129
:10194000C0E741F04001C5E741F02001CAE721F0BE
:101950001001CFE741F00801D4E741F00401D9E7D5
:10196000F0B587B0044614216846FEF791FC3D4B64
:101970003D48DFF8ECE0196825683B4A022603275A
:1019800000241030491C4FF0090C75452CD119600A
:10199000012907D1016841F000710160006800F081
:1019A00000700590106840F001001060106802ABF4
:1019B00000F0010005904FF4C050CDE9000683E827
:1019C00090106946294800F04DFE002203211420A2
:1019D00000F07CFF142000F06BFF00220321152093
:1019E00000F074FF152037E0DFF884E0754535D14D
:1019F0001960012907D1016841F000710160016897
:101A000001F000710591016841F08061016000689A
:101A100000F080600590106840F0020010601068CF
:101A200002AB00F0020005904FF44050CDE90006F3
:101A300083E8901069460F4800F014FE002211461A
:101A4000402000F043FF402000F032FF002211460A
:101A5000412000F03BFF412000F02AFF07B0F0BD1D
:101A600000640040B4000020303802400000024012
:101A700000680040000402407047000038B50121B2
:101A8000F748FEF7B1FFF648F64BF74C416C0022E1
:101A9000C81AA4F5477599427ED060DCF34BA1EBE0
:101AA0000300994279D029DCF148081876D000F576
:101AB0008A60B0F5404072D001284FD1EA48ADF8B5
:101AC00000206A4629462630FFF725F8E6486A4690
:101AD00029462730FFF71FF8E3486B460A222946BC
:101AE0001030FEF7BBFFE0486A4629461430FFF786
:101AF00012F8DD486A46294615302DE001287CD0D1
:101B000002282BD1D848ADF800206A462946283053
:101B1000FFF701F8D4486A4629462930FEF7FBFF53
:101B2000D1486A4629462A30FEF7F5FFCE486A4674
:101B300029462B30FEF7EFFFCB486A4629462C306A
:101B4000FEF7E9FFC8486A4629462D30FEF7E3FF55
:101B5000C5486A4629462E30FEF7DDFF38BD41F202
:101B60001113C11A98427DD027DC01285ED00228CB
:101B700079D000F56F60B0F5005FEFD1BA48ADF8ED
:101B800000206B46642229466030FEF739FF6B4621
:101B900064222946B44803E068E0C3E033E0A4E0EF
:101BA0006430FEF72DFFB0486B466422294668304A
:101BB000FEF726FF54F8B00F22E0012975D0022964
:101BC000CCD1A948ADF800206A4629469030FEF7EE
:101BD00080FFA5486B46642229469430FEF73EFFFD
:101BE000A1486A4629469830FEF795FF9E486A4606
:101BF00029469930FEF78FFF00E0C4E054F8BC0F8F
:101C0000401C206038BD9848ADF800206A4629463F
:101C10003430FEF780FF94486A4629463530FEF797
:101C20007AFF91486A462946363095E78E48ADF8E6
:101C300000206B46642229464830FEF7E1FE8A48C0
:101C40006B46642229464C30FEF7DAFE86486B4626
:101C5000642229465030FEF7D3FE6B4664222946A3
:101C6000814801E0C0E021E054301BE07E48ADF83F
:101C700000206B46642229463830FEF7C1FE7A48C0
:101C80006B46642229463C30FEF7BAFE76486B4626
:101C9000642229464030FEF7B3FE73486B46642247
:101CA00029464430FEF7ACFE38BDB7E06E48ADF8CB
:101CB00000206A4629465F30FEF72DFF6A486A46D3
:101CC00029465E30FEF727FF67486A4629465830A6
:101CD000FEF706FF64486A4629465C30FEF71BFFA4
:101CE00061486A4629465D3036E7ADF800206B460C
:101CF000642229465C48FEF7B1FE6B466422294601
:101D0000201DFEF77DFE58486B46642229460830A8
:101D1000FEF7A4FE54486B46642229460C30FEF7B9
:101D20009DFEC1E75048ADF800206A4629461630AE
:101D3000FEF7F1FE4C486A4629461730FEF7EBFEE7
:101D400049486A4629461830FEF7E5FE46486A4685
:101D500029461930FEF7DFFE43486A4629461A3005
:101D6000FEF7D9FE40486A4629461B30FEF7D3FEEF
:101D70003D486A4629461C30FEF7CDFE3A486A4681
:101D800029461D30E8E63848ADF800206A46294665
:101D90001E30FEF7C0FE34486A4629461F30FEF763
:101DA000BAFE31486A4629462030FEF7B4FE2E4876
:101DB0006A4629462130FEF7AEFE2B486A46294680
:101DC0002230FEF7A8FE28486A4629462330FEF74F
:101DD000A2FE25486A4629462430FEF79CFE22488A
:101DE0006A4629462530B7E61F48ADF800206B4605
:101DF000642229466C30FEF703FE1B486B466422C2
:101E000029467030FEF7FCFD17486B4664222946D0
:101E10007430FEF7F5FD54F8B40FF1E61248ADF852
:101E200000206B460A2229467830FEF717FE0E483E
:101E30006B460A2229467C30FEF710FE0A486B46A4
:101E40000A2229468030FEF709FE07486B460A221F
:101E500029468430FEF702FE54F8B80FD0E60000A1
:101E6000D4020020D0DD551578060020B2BB5515F0
:101E70000000ABEA7047000038B50121FC48FEF7CE
:101E8000B3FDFB48FB4BFC4C426C0020D11AA4F57F
:101E900047759A427ED064DCF84BA2EB03019A426C
:101EA00079D02DDCF649511876D001F58A61B1F56B
:101EB000404172D0012953D1ADF80000EE486A4686
:101EC00029462630FEF727FEEB486A46294627308A
:101ED000FEF721FEE8486B460A2229461030FEF73D
:101EE000BDFDE5486A4629461430FEF714FEE24877
:101EF0006A4629461530FEF70EFE54F8A40F88E016
:101F000001297DD002292BD1ADF80000DA486A46BC
:101F100029462830FEF7FFFDD7486A462946293072
:101F2000FEF7F9FDD4486A4629462A30FEF7F3FD4C
:101F3000D1486A4629462B30FEF7EDFDCE486A4669
:101F400029462C30FEF7E7FDCB486A4629462D305E
:101F5000FEF7E1FDC8486A4629462E30FEF7DBFD54
:101F600038BD41F21113CA1A99427DD02EDC0129E5
:101F700069D0022979D001F56F61B1F5005FEFD129
:101F8000ADF80000BC486B46642229466030FEF77D
:101F900037FD03E07BE0DFE03EE0BEE0B6486B46A5
:101FA000642229466430FEF72BFDB3486B46642259
:101FB00029466830FEF724FDAF486B466422294667
:101FC0008C30FEF71DFD54F8B00F22E0012A7DD0C1
:101FD000022AC5D1ADF80000A7486A4629469030CC
:101FE000FEF777FDA4486B46642229469430FEF73D
:101FF00035FDA1486A4629469830FEF78CFD00E081
:10200000DFE09D486A4629469930FEF784FD54F882
:10201000BC0F401C206038BDADF8000096486A46F1
:1020200029463430FEF777FD93486A462946353015
:10203000FEF771FD90486A4629463630FEF76BFD83
:1020400054F89C0FE5E7ADF800008B486B4664221E
:1020500029464830FEF7D4FC87486B46642229465F
:102060004C30FEF7CDFC01E0E0E033E082486B4607
:10207000642229465030FEF7C3FC7F486B46642239
:1020800029465430FEF7BCFC54F8C00FC1E7ADF848
:10209000000079486B46642229463830FEF7B0FCD0
:1020A00075486B46642229463C30FEF7A9FC72480D
:1020B0006B46642229464030FEF7A2FC6E486B4610
:1020C000642229464430FEF79BFC00E0DAE054F835
:1020D000C40F9EE7ADF8000067486A4629465F30A6
:1020E000FEF719FD64486A4629465E30FEF713FD87
:1020F00061486A4629465830FEF7F2FC5E486A4657
:1021000029465C30FEF707FD5B486A4629465D308C
:10211000FEF701FD54F8C80F7BE7ADF800006B46F1
:10212000642229465448FEF799FC6B4664222946EE
:10213000201DFEF765FC50486B4664222946083096
:10214000FEF78CFC4C486B46642229460C30FEF7A7
:1021500085FC54F8A00F5CE7ADF8000046486A46DD
:1021600029461630FEF7D7FC43486A462946173001
:10217000FEF7D1FC40486A4629461830FEF7CBFCF2
:102180003D486A4629461930FEF7C5FC3A486A467A
:1021900029461A30FEF7BFFC37486A4629461B30ED
:1021A000FEF7B9FC34486A4629461C30FEF7B3FCFA
:1021B00031486A4629461D30FEF7ADFC54F8A80F99
:1021C00027E7ADF800002C486A4629461E30FEF786
:1021D000A2FC29486A4629461F30FEF79CFC264887
:1021E0006A4629462030FEF796FC23486A4629466F
:1021F0002130FEF790FC20486A4629462230FEF73F
:102200008AFC1D486A4629462330FEF784FC1A489A
:102210006A4629462430FEF77EFC17486A4629465E
:102220002530FEF778FC54F8AC0FF2E6ADF800006C
:1022300011486B46642229466C30FEF7E1FB0E48DC
:102240006B46642229467030FEF7DAFB0A486B467B
:10225000642229467430FEF7D3FB07486B4664229C
:1022600029468830FEF7CCFB54F8B40FD1E60000C5
:10227000D4020020D0DD551578060020B2BB5515DC
:102280000000ABEAADF800006B460A2229460D4873
:10229000FEF7E4FB0B486B460A222946001DFEF7B9
:1022A000DDFB08486B460A2229460830FEF7D6FBBC
:1022B00004486B460A2229460C30FEF7CFFB54F83F
:1022C000B80FA6E6F00600207047000070B504467F
:1022D00090F82000012804D0606A40F40020606279
:1022E00018E0022084F820002068016821F0010134
:1022F000016000F07DFA05460EE000BF00F078FABC
:10230000401B0A2808D9606A40F40030606205204A
:1023100084F82000012070BD20684068C007EDD11E
:10232000606270BD70477047704770477047704774
:10233000704790F83510022903D0802141650120B3
:102340007047052180F835100068016821F001010F
:10235000016000207047406D704700002DE9F84390
:1023600004464FF00009CDF8009063484FF4165131
:10237000A56D0068B0FBF1F72E6894F85C1008209A
:1023800000FA01F131420FD021680A6852070BD5DB
:102390000A6822F004020A6094F85C108840A86081
:1023A000606D40F00100606594F85C104FF001082A
:1023B00008FA01F0304208D021684969090604D5BD
:1023C000A860606D40F00200606594F85C10042025
:1023D0008840304208D021680968890704D5A86080
:1023E000606D40F00400606594F85C101020884037
:1023F000304218D021680968090714D5A860206800
:102400000168490304D50068000308D5A16C07E002
:102410000168C90503D4016821F008010160216C3D
:1024200009B12046884794F85C102020884030424B
:1024300031D021680968C9062DD5A86094F8350007
:1024400005282068016806D0490347D500680003C5
:102450001DD4616C1CE021F0160101602068416907
:1024600021F080014161206C08B9A06C20B1206886
:10247000016821F00801016094F85C103F20884059
:10248000A86084F8349084F83580216D1FE0E16BFA
:1024900009B120468847606D00282BD0606DC007C9
:1024A00014D0052084F835002068016821F001016E
:1024B00001600098401C0090B84203D82068006872
:1024C000C007F6D184F8349084F83580E16C002997
:1024D00010D001B02046BDE8F04308470168C905A7
:1024E000D5D4016821F01001016084F8349084F89B
:1024F0003580CCE7BDE8F883C40000202DE9F04129
:10250000044600F075F906465CB1002584F83450A5
:10251000022084F835002068016821F00101016083
:102520000DE00120BDE8F08100F062F9801B052874
:1025300005D920206065032084F83500F2E7206883
:102540000068C007F0D12268116820480140D4E932
:1025500001031843D4E9033633431843636918432E
:10256000A3691843E3691843236A18430843616A5F
:10257000042903D1D4E90B131943084310602068E0
:102580004069666A20F0070130460E43012704289F
:102590000CD1A06A0643E06A40B12046FEF720FC59
:1025A00020B14020606584F83570BAE72068466144
:1025B0002046FEF701FC94F85C203F2191408160A9
:1025C000656584F835700020ACE700003F8010F0AE
:1025D0002DE9F0410446866D90F83400002501286D
:1025E0000DD0012084F8340094F835700020012FBC
:1025F00007D084F8340002252846BDE8F081022087
:10260000FBE7022784F8357060652046FEF712FC70
:1026100094F85C103F208840B0602068016841F069
:1026200016010160206C20B12068016841F00801AA
:1026300001602068016841F001010160DCE70000F1
:1026400070B5044600F0D4F80546601C02D004487A
:102650000078044400F0CCF8401BA042FAD370BDCF
:10266000B80000202DE9F84F00224FF001080325A3
:102670004FF00F0E0B6808FA02F42340A3426ED10C
:102680004E68012E05D0022E03D0112E01D0122E3D
:1026900012D186684FEA420C05FA0CF7BE43CF68A8
:1026A00007FA0CF7374387604668A6430C79C4F3F2
:1026B0000014944034434460C668570005FA07FC90
:1026C0008C6826EA0C06BC403443C4604C68022C7B
:1026D00001D0122C13D1D40800EB8404A346D4F803
:1026E000209054074FEAD46A0EFA0AF629EA06093E
:1026F0000E6906FA0AF646EA0906CBF82060066873
:102700000C7926EA0C0604F00304BC403443046050
:102710004C68E40051D52C4C266846F4804626606F
:10272000246822F0030604F480440094274C3444C7
:10273000A446D4F808489607370F0EFA07F6B443B4
:10274000234EB04201D1002610E0224EB04201D10A
:1027500001260BE0204EB04202D1022606E02CE01A
:102760001E4EB04201D1032600E00726BE4026439C
:10277000CCF808681A4E34684F689C43FF0300D5B4
:102780001C433460164E361D34684F689C43BF03AB
:1027900000D51C433460124E083634684F689C43A1
:1027A000FF0200D51C4334600D4E0C3634684F6870
:1027B0009C43BF0200D51C433460521C102AFFF416
:1027C00059AFBDE8F88F00004438024000300140A6
:1027D000000002400004024000080240000C0240D9
:1027E000003C01400AB1816170470904FBE7000029
:1027F0000148806870470000B800002002488168E6
:102800000278114481607047B80000200B4810B571
:10281000016841F400710160016841F48061016068
:10282000016841F480710160032000F06FF800201E
:1028300000F006F800F024F8002010BD003C024033
:1028400070B50D4D04464FF47A712878B1FBF0F065
:102850000A490968B1FBF0F001F002FA48B9102CFE
:1028600007D200222146501E00F030F800206C6094
:1028700070BD012070BD0000B8000020C400002021
:102880000A4808B5016841F480410160006800F41D
:10289000804000900548001F016841F080510160B0
:1028A000006800F08050009008BD000044380240ED
:1028B000002809DB00F01F0201219140400980003F
:1028C00000F1E020C0F8001170470000F0B40E4B9A
:1028D0001B680C46C3F30223C3F10705042D00D97E
:1028E0000425191D072901D2002300E0DB1E012663
:1028F00006FA05F1491E214099409E40761E164079
:102900003143F0BC03F0E0B80CED00E0064900F004
:10291000070208684FF6FF03184040EA0220034A06
:1029200010430860704700000CED00E00000FA055D
:10293000BFF34F8F05480168054A01F4E061114378
:102940000160BFF34F8F00BFFDE700000CED00E01A
:102950000400FA052DE9F84F0446007800268D4D55
:10296000C00708D02868616920F0C060084328606B
:10297000606900B901262078800708D52868A16918
:1029800020F0C05008432860A06900B901262078D3
:102990004FF0000A00074FF0010B55D57D484C3829
:1029A000016841F0805101600068DFF8EC8100F0BF
:1029B00080500090D8F8001041F48071C8F80010E1
:1029C000FFF716FF074604E0FFF712FFC01B0228BF
:1029D0006FD8D8F80000C005F6D56E4F1C3F386898
:1029E00010F440701FD0A18B01F4407181421AD0C5
:1029F000386820F440716948C0F800B0C0F800A001
:102A000039603868C0070ED0FFF7F2FE804641F209
:102A1000883905E0FFF7ECFEA0EB0801494548D8EE
:102A200038688007F6D5E1695A48C1F30122843835
:102A3000032A36D0016821F4F81101603868A18BAF
:102A4000C1F30B01084338602078DFF85491400748
:102A500003D594F83810C9F8E0112078C106514820
:102A600005D50168626A21F44001114301602178B3
:102A70004FF00067890609D50168A26A21F000615C
:102A800011430160A16AB94200D1012621784906AB
:102A900005D50168226A21F080511143016066B9B1
:102AA00008E00268404B22F4F81219400A43026021
:102AB000C4E754E02068802857D15046DFF8ECA0E6
:102AC000CAF86800FFF794FE324E80468C3E05E05F
:102AD000FFF78EFEA0EB0800022840D83068000106
:102AE000F6D4616BC9F8D81020683149C20701D00B
:102AF00062697AB1820701D5A2695AB1820602D50C
:102B0000A26ABA4206D040060FD5206A68B9A06A08
:102B1000B8420AD1D4E9010240EA8210227B237C28
:102B2000120642EA037210430860207800060AD5B4
:102B3000D4E9010240EA8210227B237C120642EA99
:102B4000037210430860CAF868B0FFF751FE0746E9
:102B500008E000BFFFF74CFEC01B022802D903208B
:102B6000BDE8F88F30680001F4D52088C00505D590
:102B70002868E16A20F0004008432860208880052A
:102B800005D52868216B20F4004008432860002008
:102B9000E6E700008C38024000700040400E4742DB
:102BA0000010474294380240FFFCFF0F00004742EC
:102BB000843802402DE9F0470E46050065D0DFF865
:102BC0001481D8F80000F7B200F00F00B04207D22D
:102BD00088F80070D8F8000000F00F00B04254D11F
:102BE00028683D4C810712D5400703D5206840F482
:102BF000E05020602878000703D5206840F460404A
:102C000020602068A96820F0F00008432060287840
:102C1000C0072DD0304968680839012812D0022831
:102C200013D0032811D00968890700292DDA2168FB
:102C300021F0030101432160FFF7DAFD814641F2F3
:102C4000883A0EE009688903EFE709688901ECE733
:102C5000FFF7CEFDA0EB0901514502D90320BDE8E5
:102C6000F0872068696800F00C00B0EB810FEFD1AD
:102C7000D8F80010404601F00F01B14207D90770A3
:102C8000006800F00F00B04201D00120E7E728788B
:102C9000400705D52068E96820F4E050084320602B
:102CA0002878000706D52068296920F4604040EAAA
:102CB000C100206000F038F82168084AC1F3031110
:102CC000515CC8400649086006480068FFF7B8FD37
:102CD0000020C4E7003C024008380240888D00080C
:102CE000C4000020BC0000200448054900680968B1
:102CF000044AC1F38221515CC8407047C4000020DF
:102D000008380240988D00080448054900680968A1
:102D1000044AC1F34231515CC8407047C4000020EE
:102D200008380240988D0008154810B5006810F06A
:102D30000C02144813D01449042A0FD0082A0ED1CB
:102D40000F4C241F2268236802F03F025B0207D564
:102D50002068C0F38810A0FB010106E0084610BD02
:102D60002168C1F38811A1FB00010023FDF746FA99
:102D70002168C1F30141491C4900B0FBF1F010BDCD
:102D8000083802400024F40040787D012DE9F84F16
:102D900005460078DFF800B3C04CC0074AD0DBF826
:102DA00000105846C1F38101012908D00068C0F322
:102DB000810002280AD1201D0068400206D5206843
:102DC000800337D56868002872D033E06868B0F5B2
:102DD000803F10D0B0F5A02F206810D020F48030B4
:102DE0002060206820F4802020606868A8B1FFF788
:102DF000FFFC06460DE0206840F48030F4E740F424
:102E000080202060F7E700BFFFF7F2FC801B6428FA
:102E10006FD820688003F7D50CE0FFF7E9FC064681
:102E200005E000BFFFF7E4FC801B6428F0D82068B1
:102E30008003F7D42878DFF8688280074FF0000914
:102E400040D5DBF80010584611F00C0F09D000688F
:102E5000C0F3810002280BD18F48001F0068400298
:102E600006D42068800715D5E868012820D111E034
:102E7000E868B8B10120C8F80000FFF7B9FC0646C1
:102E800005E000BFFFF7B4FC801B0228C0D8206813
:102E90008007F7D52068296920F0F80040EAC100D2
:102EA00020600FE0C8F80090FFF7A2FC064606E09D
:102EB000EFE000BFFFF79CFC801B022819D82068B8
:102EC0008007F7D42878000722D5734E75486969C2
:102ED0006C3679B101210160FFF78AFC074604E0F6
:102EE000FFF786FCC01B022803D830688007F7D59F
:102EF0000EE089E0C0F80090FFF77AFC074604E096
:102F0000FFF776FCC01B02287ED830688007F7D414
:102F10002878400768D5DFF880A100270AF1380A31
:102F2000DAF80000C0000BD4DAF8001041F080514C
:102F3000CAF80010DAF80000012700F08050009075
:102F4000594E3068C00510D4306840F4807030604D
:102F5000FFF74EFC009005E0FFF74AFC0099401A8D
:102F6000022851D83068C005F6D54B4EA86868369F
:102F700001280FD00528306810D020F00100306003
:102F8000306820F004003060A868B8B1FFF730FC6A
:102F900000900FE0306840F00100F4E740F00400DA
:102FA0003060F7E7FFF724FC0099411A41F28830BE
:102FB000814266D830688007F4D50EE0FFF718FC30
:102FC000009007E0FFF714FC0099411A41F28830A5
:102FD000814256D830688007F4D42FB1DAF8001057
:102FE00021F08051CAF80010A869D0B3DBF80010B6
:102FF000C1F3810102294CD00228484607D0C8F805
:103000006000FFF7F5FB00E03BE005463CE047468B
:10301000C8F86000FFF7ECFB064604E0FFF7E8FBAA
:10302000801B02282DD820688001F7D4F5E907011C
:103030000843E9681D4A490802EB0141AA6841EAD0
:1030400082110843297C40EA0160297D40EA017130
:103050001148001F016001203866FFF7C9FB0546D3
:1030600005E014E0FFF7C4FB401B022809D82068E4
:103070008001F7D50BE000BFFFF7BAFB401B022829
:1030800002D90320BDE8F88F20688001F4D4002025
:10309000F8E70120F6E70000083802400038024057
:1030A00000004742800E4742007000400000FFFFD2
:1030B00010B500680B4641680D480140080CD870F7
:1030C000C1F304245C7001F03F049C70C1F34231F1
:1030D000197052B901F0F7FCD870587801F0F3FC80
:1030E0005870987801F0EFFC9870002010BD000037
:1030F0003FFFFF0010B50B460168896A59600168FF
:103100000969C1F30E019960006801680E48014029
:10311000C1F305401870C1F306245C7001F07F0410
:103120009C70402404EA1141D97052B901F0CBFCE3
:103130001870587801F0C7FC5870987801F0C3FCFB
:103140009870002010BD00007F7F7F0070B50400E4
:1031500002D0607F10B106E0012070BD0020207712
:10316000204600F049F8022060772168CA204862B2
:10317000216853204862204601F0BAFCFF2504264E
:1031800018BB206881681B4A1140816021688868EB
:1031900062681043D4E904231A431043886021680D
:1031A000E068086120680169228941EA0241016101
:1031B0002068C16821F08001C160206880688006B5
:1031C00007D4204600F0FEF818B120684562667703
:1031D000C2E72068016C21F4802101642068016C41
:1031E000A2691143016420684562012060770020D4
:1031F00070BD0000BFFF8FFF00680349884202D105
:103200000249012008607047002800403C0E4742F8
:103210002DE9F0470446007F0B4601281FD04FF0F0
:10322000010984F81C9002206077DAB19878D97887
:1032300040EA014558781978000240EA41300543D8
:103240002168CA204862216853204862204601F064
:103250004FFC0026FF274FF0040860BB1AE0022055
:10326000BDE8F0875878C10603D500F0EF000A30BA
:103270005870D87801F030FC0204587801F02CFC2A
:1032800042EA0022987801F027FC0243187842EACB
:103290004035D5E70F480540206845602068C16883
:1032A00021F08001C1602068806880060AD4204631
:1032B00000F088F830B12068476284F81D802677D6
:1032C0000120CDE72068476284F81D902677002012
:1032D000C6E700003FFFFF002DE9F0470446007FEE
:1032E0000D46012827D04FF0010A84F81CA00220C7
:1032F00060772068002680684FEA4060F2B10028BD
:1033000000DBEE70A878297840EA01476878E97810
:10331000000240EA014007432168CA204862216850
:1033200053204862204601F0E3FB4FF0FF084FF0C6
:103330000409A0BB16E00220BDE8F087002800DBEE
:10334000EE70287801F0C8FB0204687801F0C4FB35
:1033500042EA0022A87801F0BFFB0243E87842EA83
:103360000047D9E716480740206807602068816851
:1033700021F480218160D5E90301084321688A682E
:10338000104388602068C16821F08001C160206816
:10339000806880060BD4204600F014F838B121680C
:1033A000C1F8248084F81D9026770120C4E72168A5
:1033B000C1F8248084F81DA026770020BCE7000017
:1033C0007F7F7F0070B504460068C16821F0A001CE
:1033D000C160FFF70DFA05464FF47A7607E000BFAB
:1033E000FFF706FA401BB04201D9032070BD2068E8
:1033F000C0688006F4D5002070BD10B5FDF792FBC3
:1034000010BD7047F0B5426E920F0A70426EC2F363
:1034100083624A70426EC2F301628A70426E120C7D
:10342000CA70B0F86420120A0A7190F864204A71D8
:10343000826E120DCA80826EC2F303420A72B0F825
:103440006820C2F3C0324A72B0F86820C2F38032FA
:103450008A72B0F86820C2F34032CA72B0F86820AD
:10346000C2F300320A7300264E73426C4FF40075AB
:10347000012462B1012A3AD0026847499163816B05
:1034800041F08051816380F834400120F0BDB0F8F4
:103490006820C36E9205120D42EA93720A61C26EF1
:1034A000C2F3C2620A75C26EC2F302624A75C26E8C
:1034B000C2F342528A75C26EC2F38242CA75C26EAC
:1034C000C2F3C2320A760A69521C42650B7E03F0CF
:1034D00007039B1C9A4042650B7A03F00F0704FA1E
:1034E00007F383655B0A5A43C0E917250EE090F89D
:1034F0006820C36E9206920A42EA13420A610A6980
:10350000521C92024265C0E91652056630F86C2FD3
:10351000C2F3803201F8192F0288C2F3C6124A7032
:10352000027802F07F028A704268D20FCA70426845
:10353000C2F341720A714268C2F382624A71426800
:10354000C2F383528A714268C2F34052CA710E724A
:103550004268C2F300424A728288C2F3C0328A7261
:103560008288C2F38032CA728288C2F340320A7300
:103570008288C2F300324A738288C2F381228A733E
:103580008288C2F30122CA730079C0F3460008742E
:103590004C740020F0BD0000FF054000426C0A6042
:1035A000826C4A60C26C8A60026DCA60426D0A61B8
:1035B000826D4A61C26D8A61006EC86100207047E9
:1035C00070B50446B0F8500000250104206801F0F1
:1035D00044FC18B1A16B0143A16304E00021206801
:1035E00001F0D8FA0546C5F3432070BD90F83400C9
:1035F000704700002DE9F843056B04460068416BF5
:1036000009041CD529071AD5D4E90A56002E14D06E
:103610000027206801F0E2FA05F8010B010A05F81D
:10362000011B010C05F8021B000E361F7F1C05F85C
:10363000010C082FEDD3C4E90A56BDE8F883416BAD
:103640004FF00006C90540F23A584FF0010743D544
:10365000390281632068C16B4CF23A129143C16315
:103660002068C16A21F00101C16228071CD515F04C
:10367000220F09D0206801F021FC28B1A16B014381
:10368000A1632046FFF7BDFE2168C1F8388084F8A9
:1036900034702663A80703D0204600F041FACCE737
:1036A000204600F041FAC8E72806C6D5A80609D585
:1036B000206801F003FC28B1A16B0143A1632046FF
:1036C000FFF79FFEA807B8D12068C16A21F0080162
:1036D000C16284F83470E3E7416B490423D52907BC
:1036E00021D5D4E90856002EA7D0002715F8010BE4
:1036F000009015F8011B361F40EA0120009015F8D4
:10370000021B40EA0140009015F8011C40EA0160EC
:1037100000906946206801F074FA7F1C082FE5D3F9
:10372000C4E9085689E7416B11F03A0F85D0416B27
:10373000890703D5A16B41F00201A163416B090721
:1037400003D5A16B41F00801A163416B890603D544
:10375000A16B41F02001A163416BC90603D5A16BA8
:1037600041F01001A163C0F838802068C16B21F4DA
:103770009D71C163206801F0A1FBA16B0843A063A8
:10378000280706D584F8347026632046FFF739FEF3
:1037900053E7280687D515F0300F0CD0E16B1148A0
:1037A0000865E06BFEF7C5FD0028BBD0E06BBDE807
:1037B000F84301F079BDA8070CD0216C0A480865D0
:1037C000206CFEF7B6FD0028ACD0206CBDE8F843B5
:1037D00001F041BDA66384F8347026632046FFF7EC
:1037E0000CFE2AE7A95200085752000870B50400E1
:1037F0000ED094F83400002518B92577204600F043
:103800003BF8032084F83400204600F00BF808B1A0
:10381000012070BDA5632563012084F834000020D9
:1038200070BD0000FEB50025044676200095CDE968
:10383000015029460B460A46206801F0B5F908B147
:103840000120FEBD0B4E46F8A05F206801F0BEF9D6
:1038500001253560204601F0C1FD20B9204601F068
:1038600045FD0028EDD084F83450A16B0143A163DD
:10387000E6E70000008025422DE9F04F87B00546BD
:1038800014216846FCF704FD5149286888427CD120
:10389000504800684F4940F400600860086800F430
:1038A000006005904B48143800684A4940F0010018
:1038B00014390860086800F001000590086840F0BD
:1038C00002000860086800F002000590086840F0F7
:1038D000040008600868022400F0040005904020FD
:1038E000CDE9000402AA002003260C2782E8C100CB
:1038F00069463948FEF7B6FEA003CDE9000402AAE6
:10390000002082E8C10069463448FEF7ABFEE001C2
:10391000CDE9000402AA002082E8C10069463048CF
:10392000FEF7A0FE304C2F484FF00068C4E90008B5
:103930000020A060E0604FF48060206104F1140179
:1039400080004FF480494FF0200A81E801060020F2
:1039500020624FF0040BC4E909B64FF40006B7101B
:103960002046C4E90B67FEF7C9FD08B1FDF777FAF9
:103970002C64A5631B481D4C48384FF48061C4E992
:1039800000084020A060002000E01DE0C4E9030121
:10399000C4F824B0C4E907A004F12802032082E897
:1039A000C1008900C4E905192046FEF7A7FD08B14A
:1039B000FDF755FAEC63002211463120A563FEF7AE
:1039C00085FF3120FEF774FF07B0BDE8F08F0000DF
:1039D000002C014044380240000002400004024034
:1039E00000080240A06402403C2D00209C2D0020D5
:1039F0002DE9F04786B01F460446154639B194F8C4
:103A00003400012807D0022006B0BDE8F087A06B83
:103A100040F0006008E00020A063E36DEA199A42DC
:103A200004D9A06B40F00070A0636EE0032284F81C
:103A3000342022688246D0622268D36B43F49573A7
:103A4000D363236C324A4FEA4729DA63236C314A45
:103A5000DA64226C4FEA9903106520680A46266CE6
:103A600000F180013046FEF7B3FDDFF8AC8001269F
:103A700060B12068C16B21F49571C1632168C1F800
:103A80003880A06B40F08040A06311E023480660BE
:103A9000606C012800D06D024FF40071206801F0C5
:103AA000E9F840B12268C2F83880A16B0143A163F4
:103AB00084F8346029E04FF0FF30CDE90009902010
:103AC000029002200596CDE9030AD1466946206896
:103AD00001F04AF8012F06D9822020632946206888
:103AE00001F044F905E0812020632946206801F0B7
:103AF00056F9002888D02268C2F83880A16B0143AB
:103B0000A16384F83460C4F8309001207CE70000A1
:103B100015520008B1510008FF0540008C85254270
:103B200010B5FDF753F810BD10B5FDF77BF810BDCB
:103B30002DE9F04F87B01F465FEA010B0446164699
:103B400007D094F83400012807D0022007B0BDE860
:103B5000F08FA06B40F0006008E00025A563E16DE8
:103B6000F019884204D9A06B40F00070A0635FE0B8
:103B7000032084F834002068C5622068C16B41F0DE
:103B80001A01C163E16B3248C863E16B3148C86414
:103B9000E06B0565606C012800D056024FF400719F
:103BA000206801F067F8DFF8B0904FF0010840B1ED
:103BB0002268C2F83890A16B0143A16384F8348075
:103BC00036E04FF0900A012F06D9A020206331463D
:103BD000206801F08DF905E0C4F830A03146206876
:103BE00001F09FF940B12268C2F83890A16B0143FF
:103BF000A16384F834801AE018484646C0F8008073
:103C000022687F02BB0859468032E06BFEF7E0FC79
:103C100080B12068C16B21F01A01C1632168C1F82D
:103C20003890A06B40F08040A06384F83460256336
:103C300001208BE74FF0FF30CDE90007CDE902A569
:103C4000CDE904566946206800F08EFF00207DE72C
:103C50009B520008B1510008FF0540008C852542A9
:103C600010B5401EB0F1807F01D3012010BD4FF090
:103C7000E02460610F21601701F026FF0020A061A1
:103C800007202061002010BD7047704770B590F884
:103C90003C20012A32D0012480F83C40022280F8E6
:103CA0003D2003685A689D6822F070060A68324316
:103CB0005A60134B02689A4214D0B2F1804F11D06F
:103CC000104B9A420ED0104B9A420BD00F4B9A4297
:103CD00008D00F4B9A4205D00E4B9A4202D00E4BA1
:103CE0009A4204D1496825F080031943916080F815
:103CF0003D40002180F83C10084670BD022070BD98
:103D0000000001400004004000080040000C00409A
:103D100000040140004001400018004010B50400BC
:103D200003D094F83D0010B107E0012010BD002041
:103D300084F83C00204600F00DF8022084F83D0095
:103D4000211D206801F06EFC012084F83D00002058
:103D500010BD000008B500680B49884212D10B481D
:103D6000016841F0100101600068002200F01000BD
:103D7000009002213620FEF7A9FDBDE8084036205C
:103D8000FEF796BD08BD000000100040403802401C
:103D90000168CA6842F00102CA600068816801F0E7
:103DA0000701062903D0016841F0010101600020EC
:103DB0007047704770B50446006801694FF0000510
:103DC000C943890715D4C168C943890711D4E91EBD
:103DD000016101202077206880698007204602D099
:103DE000FFF7E7FF04E000F098F8204600F096F8AF
:103DF000257720680169C943490717D4C168C943B9
:103E0000490713D46FF00401016102202077206874
:103E1000806910F4407F204602D0FFF7CAFF04E01B
:103E200000F07BF8204600F079F8257720680169DA
:103E3000C943090716D4C168C943090712D46FF0F2
:103E400008010161042020772068C06980072046AE
:103E500002D0FFF7AEFF04E000F05FF8204600F06C
:103E60005DF8257720680169C943C90617D4C16880
:103E7000C943C90613D46FF01001016108202077EF
:103E80002068C06910F4407F204602D0FFF791FF00
:103E900004E000F042F8204600F040F82577206862
:103EA0000169C943C90708D1C168C943C90704D119
:103EB000891E0161204600F033F820680169C9437A
:103EC000090609D4C168C943090605D46FF0800109
:103ED00001612046FFF7D8FE20680169C943490601
:103EE00009D4C168C943490605D46FF04001016196
:103EF000204600F047F820680169C94389060BD4C1
:103F0000C168C943890607D46FF0200101612046CA
:103F1000BDE87040FFF7B9BE70BD70477047000044
:103F200070B517480022811C05696D1C0561C668C3
:103F3000761CC66043695B1C43618469641C8461B0
:103F4000322E04D10E8846F002060E80C260502D3B
:103F500004D10D8845F004050D800261B3F5FA7FA8
:103F600004D10B8843F400730B804261A4F598538D
:103F7000883B04D10B8843F400630B80826170BDE1
:103F8000000000207047704710B504460068C16803
:103F900021F49071C1602068416921F00101416103
:103FA000206841694FF020024B064FF000010FD509
:103FB000436923F040034361606B48B108490165E0
:103FC000606BFEF7B6F948B1606B016D884705E09C
:103FD000E18584F83A202046FFF7D5FF002010BD88
:103FE0008D5700087047000070B5026804461068DD
:103FF000D168536910F00F0F52D003F0010501F49E
:1040000090762E435FD0C20705D0CA0503D5E26B78
:1040100042F00102E263420705D5DA0703D0E26B02
:1040200042F00202E263820705D5DA0703D0E26BB1
:1040300042F00402E263020707D501F020022A439E
:1040400003D0E26B42F00802E263E26B002A33D055
:10405000800604D5880602D5204601F0B8FB20680A
:104060004069E16BC0F38010090700D428B32046F3
:1040700001F096FB2068416949061AD5416921F093
:1040800040014161606BA0B11B490165606BFEF7A7
:1040900050F9002810D0606B016DBDE870400847F2
:1040A000830610D58B060ED52046BDE8704001F082
:1040B0008EBB2046FFF796FF70BD2046FFF792FFAC
:1040C0000020E06370BD030606D50B0604D520462C
:1040D000BDE8704001F05ABC4006F3D54806F1D562
:1040E000D168204621F04001D160202184F83910A8
:1040F00000F072FA70BD0000ED56000870B50400C3
:1041000004D094F83900002510B106E0012070BDFC
:1041100084F83850204600F023F8242084F8390031
:104120002068C16821F40051C160204601F09AFB6B
:104130002068016921F4904101612068416921F002
:104140002A0141612068C16841F40051C160E56302
:10415000202084F8390084F83A00002070BD000067
:104160002DE9F04387B0074614216846FCF790F824
:1041700052493B680024524802250326514A4FF019
:1041800007088B4222D14E4914310B6843F01003CB
:104190000B60096801F010010591016841F001010F
:1041A0000160006802AB00F0010005907002CDE9EB
:1041B000000583E8500169461046FEF753FA0022D5
:1041C00001212520FEF782FB25203DE03C49DFF858
:1041D000F8C010314FF4806963453AD10B6843F45D
:1041E00000330B60096801F400310591016841F06A
:1041F00001010160006802AB00F0010005900C2095
:10420000CDE9000583E8500169461046FEF72AFA19
:104210002F4D2E4828604FF00060C5E90104C5E924
:1042200003496C61AC61EC612C6228466C62FEF75C
:1042300065F908B1FCF713FE7D63002201212620F9
:10424000AF63FEF743FB2620FEF732FB07B0BDE865
:10425000F083204A9342F9D10A6842F480220A602E
:10426000096801F480210591016841F004010160B1
:10427000016801F004010591016841F0020101604B
:10428000006802AA00F0020005902020CDE9000598
:1042900082E8500169461048FEF7E4F902AA69462F
:1042A00082E85001CDE900950C48FEF7DBF90022C9
:1042B00003212720FEF70AFB2720C5E70010014055
:1042C0003038024000000240004400408860024054
:1042D000FC2D00200048004000080240000402407D
:1042E000F8B5044690F83A0020283CD1C1B3BAB3DF
:1042F00094F83800012836D0012084F83800A162F3
:10430000A2850025E563222084F83A00636B1748F4
:10431000D863636B16481864636B1648D864606B87
:10432000134605650846666B216802463046091D3E
:10433000FEF74EF9206801684168009184F8385012
:10434000C16841F48071C1602068416941F0010198
:1043500041612068416941F0400141610020F8BDA0
:10436000FFE70120FBE70220F9E7000047570008BC
:1043700083570008FD56000890F83A30202B22D1D0
:10438000F9B1F2B190F83830012B1CD081628285EE
:10439000C2850021C163222280F83A2080F83810BB
:1043A0000168CA6842F48072CA6001684A6942F0D2
:1043B00001024A610068C16841F02001C16000202B
:1043C0007047012070470220704700002DE9F0413E
:1043D00006464C4800F50874864252D12046611CBE
:1043E00010F8042BC37F5A54C17F491CC177016A5E
:1043F000601CFBF764FF002510B194F8210007E072
:1044000041A1601CFBF75BFF50B194F82100401EF6
:1044100084F822002021601CFBF73AFF84F8235027
:1044200020783B4F2E2802D13978491C39703978D1
:1044300003290CD10A280AD194F8210084F822001B
:104440002021601CFBF724FF84F823503D7094F872
:1044500021000D2802D121783E2904D094F82300B0
:104460001F2802D007E084F822002021601CFBF7FF
:104470000FFF84F8235001222649D4F83C02FFF7AD
:104480007BFF20484030864209D12348FCF746FE96
:1044900021491C480122891C4030FFF721FF19489F
:1044A000803086422CD100F1D0050120297831B12D
:1044B000012908D002290BD0032912D10DE0697817
:1044C00034290DD00DE06978FF2909D1022007E0D9
:1044D0006978AF2904D1032002E06978BF2908D0A8
:1044E0002870691CBDE8F041064801228030FFF7C2
:1044F00043BF0F2084F822000248FFF745FDF0E794
:10450000BDE8F081140200204552524F52000000D5
:104510000000002034040020A82B002070472DE963
:10452000F843044690F839001F4616460D462028E9
:1045300050D1B5B1AEB194F8380001284AD001206D
:1045400084F838004FF00008C4F83C80212084F83B
:104550003900FEF74DF9A6848146E68484F8388058
:1045600026E00120BDE8F883E08C401EE084A068CE
:104570004B46B0F5805F4FF000024FF080012046BF
:10458000009703D001F033FAE8B90DE001F02FFAFB
:10459000C8B928882168C0F308004860206908B1BC
:1045A0006D1C05E0AD1C03E0216815F8010B4860A7
:1045B000E08C0028D8D14B460022402120460097AD
:1045C00001F015FA08B10320CCE7202084F8390067
:1045D0000020C7E70220C5E77047FEF7A9F9FCE70E
:1045E0000021A0F13002092A00D8D1B2A0F1410285
:1045F000052A02D8A0F13701C9B2A0F16102052A4B
:1046000001D85738C1B208467047000010B50346BC
:104610000020CA1701EB526424F07F02891ACAB243
:10462000E111002902DD00BF42F080021A5400F1BE
:104630000100EEDC10BD0000401C802801DA401CA7
:104640007047B0F5804F01DA801C704703498842FB
:1046500001DAC01C7047001D70470000FFFF1F00FB
:10466000F8B5074600900E4614460025104600F0A7
:1046700081F80346FFF7E0FFB04201DDA81EF8BD58
:104680002E46314666F307016846103104F03EFBC2
:1046900019460098FFF7BAFF009908440090207A65
:1046A00004281DD02FA1684604F01CFB0321684696
:1046B00004F02CFBA07E66F3070560F34105E07E65
:1046C00008B145F00405680707D594F83D0060F38C
:1046D000C40594F83C0060F34515206C40B905E032
:1046E00022A1684604F0FEFA0421E0E7A06C08B1BC
:1046F00045F08005E06C08B9606D08B145F04005F3
:104700002946684604F002FB218B684604F004FB4E
:1047100004F10C0168460EC904F00DFBE07E68B19F
:104720002434684694E80E00243C04F004FB303442
:10473000684694E80E00303C04F0FDFA280605D5E2
:1047400004F1400168460EC904F0F5FA680605D583
:104750004C34684694E80E0004F0EDFA0098C01B53
:10476000F8BD00004D514973647000004D51545420
:104770000000000070B50446007A0025032802D02E
:10478000042802D002E00C2500E00A2504F10C0008
:1047900007C800F07CF80544E07EAD1C78B12434F5
:1047A00094E80700243C00F072F83034064694E8A0
:1047B0000700303C00F06BF8304405442D1D206CA0
:1047C00008B9A16C29B1D4E9111200F060F80544D0
:1047D000AD1CE06C08B9616D29B1D4E9141200F088
:1047E00056F80544AD1C284670BD2DE9FC5F1C46FB
:1047F000DDE90EAB129DCDE900501746884606460E
:10480000DDF830905A4651462046109B00F030F8B3
:104810000346FFF711FF404503DD6FF00100BDE8DF
:10482000FC9F302167F3C30164F3420169F3000187
:1048300001A804F06BFA19460198FFF7E7FE019909
:104840005A4608440190514601A8109B04F073FA9F
:10485000002C03DD01A80D9904F05EFA2A46119997
:104860000198FBF7FCFC019828440190801BD6E7D7
:1048700070B50E46114604461A463046049D00F0B7
:1048800006F82844801C002C00DD801C70BD10B58B
:1048900010B1FBF730FD0146084610BD0B480A4930
:1048A0004FF4E02201601421416000218160C0E9E1
:1048B000031241610176012242768176C176017749
:1048C0004177FCF7C0BF000000640040E00000201A
:1048D0000B480A494FF4E022016014214160002195
:1048E0008160C0E90312416101760122427681763E
:1048F000C17601774177FCF7A6BF00000068004051
:1049000008010020154808B5016841F40011016054
:10491000016801F400110091016841F48001016017
:104920000068002200F48000009011461020FDF77E
:10493000CDFF1020FDF7BCFF002211463B20FDF704
:10494000C5FF3B20FDF7B4FF002211464520FDF7CF
:10495000BDFFBDE808404520FDF7AABF3038024042
:1049600010B504490448FCF77BFA0249491E087057
:1049700010BD0000AE0000206C8D00082DE9F04352
:1049800087B014216846FBF783FC37480024016890
:1049900041F004010160016801F004010591016822
:1049A00041F080010160016801F08001059101681A
:1049B00041F001010160016801F001010591016808
:1049C00041F002010160016801F0020105910168F6
:1049D00041F0080101600068DFF8909000F00800E5
:1049E0004FF480450590002229464846FDF7FAFE1F
:1049F0001F4F6E11002231463846FDF7F3FEDFF8F7
:104A00007480002204214046FDF7ECFE009501254C
:104A1000CDE90154694648460394FDF723FE00960C
:104A2000CDE90154694638460394FDF71BFE280280
:104A3000CDE90004694610480294FDF713FE0420F6
:104A40000090CDE90154694640460394FDF70AFE03
:104A500002200096CDE9014069464846FDF702FE76
:104A600007B0BDE8F0830000303802400004024087
:104A700000080240000C02400000024007480649BE
:104A80007F2201600021C0E90112FF22C0E9032159
:104A900041618161FEF75ABB0028004030010020CF
:104AA000FEE7000070B50C4600252A21FBF719FC33
:104AB00003E000BF14F8011B4D408442FAD12846A0
:104AC00070BD70477047010901EB810100F00F00D4
:104AD00000EB4100C0B27047002102E00A38C0B2CA
:104AE000491C0A28FAD2090740EA11607047000001
:104AF00070B504460068C168490614D44FF0FF3110
:104B0000C160FDF775FE05464FF47A7607E000BFF9
:104B1000FDF76EFE401BB04201D9032070BD206836
:104B2000C0684006F4D5002070BD000070B50B4C85
:104B300000256068012805D1002209490948FEF7CF
:104B4000CBFB6560A068012806D1044900224C31E6
:104B50000448FEF75DFBA56070BD0000000000206A
:104B6000142D0020300100200A6842624A688262E7
:104B7000D1E902231A43D1E904310B43C16A1A4334
:104B800021F0F7011143C16200207047006800F076
:104B90000300704708444069704700000148FEF771
:104BA00029BD00005001002070B50DF1100C11431B
:104BB0009CE870002343194329434268314347F678
:104BC000FF639A430A434260002070BD10B5032181
:104BD00001600220FDF734FD002010BDD0F88000F8
:104BE00070470A688260D1E901231A43D1E9033191
:104BF0000B43C1681A436FF30B011143C1600020DE
:104C000070470968C0F880100020704710B586B062
:104C100004463720CDE90010402002900020039088
:104C20004FF48060049069462046FFF7DAFF41F2B6
:104C300088323721204600F08DF906B010BD000003
:104C400010B504460A4886B001432920CDE900107A
:104C500040200290002003904FF480600490694649
:104C60002046FFF7BEFF204600F02CFA06B010BD2C
:104C70000000108010B586B004461020CDE9001069
:104C800040200290002003904FF480600490694619
:104C90002046FFF7A6FF41F288321021204600F09F
:104CA00059F906B010BD000030B585B000240546A6
:104CB000009401944FF480600294CDE9034069466A
:104CC0002846FFF78EFF0B484FF4FA510068B0FBFF
:104CD000F1F041F288314843401E03D24FF00040CA
:104CE00005B030BD696B0906F6D5C520A86320461E
:104CF000F6E70000C400002070B585B004464FF40C
:104D0000D570009001A908204025002681E86100A7
:104D1000C001049069462046FFF763FF12484FF434
:104D2000FA510068B0FBF1F041F288314843401E6F
:104D300003D24FF0004005B070BD616B11F0450F1C
:104D4000F5D00905F3D4606B400701D5042003E0DA
:104D5000606BC00702D00120A063ECE7606B4006E7
:104D600000D5A5633046E6E7C400002010B586B044
:104D700004461220CDE9001040200290002003904C
:104D80004FF48060049069462046FFF72AFF41F205
:104D900088321221204600F0DDF806B010BD10B5B3
:104DA00086B004461120CDE900104020029000207A
:104DB00003904FF48060049069462046FFF711FF8E
:104DC00041F288321121204600F0C4F806B010BD2F
:104DD00010B586B004460720CDE90020402002909F
:104DE000002003904FF48060049069462046FFF74E
:104DF000F8FE41F288320721204600F0ABF806B0F9
:104E000010BD10B586B0044600210220CDE9001087
:104E1000C020CDE902014FF480600490694620462D
:104E2000FFF7DFFE204600F025F906B010BD10B5F3
:104E300086B004460920CDE90010C0200290002071
:104E400003904FF48060049069462046FFF7C9FE46
:104E5000204600F00FF906B010BD10B586B004462C
:104E60000D20CDE9001040200290002003904FF467
:104E70008060049069462046FFF7B3FE41F2883215
:104E80000D21204600F066F806B010BD30B585B0A3
:104E90000C46054600210320CDE900104020CDE955
:104EA00002010001049069462846FFF79AFE224657
:104EB0000321284600F028F905B030BD10B586B0B2
:104EC000044600210C20CDE900104020CDE902016C
:104ED0000001049069462046FFF783FE034A0C2137
:104EE000204600F037F806B010BD000000E1F505DF
:104EF00010B586B004461920CDE90010402002907C
:104F0000002003904FF48060049069462046FFF72C
:104F100068FE41F288321921204600F01BF806B0E5
:104F200010BD10B586B004461820CDE90010402011
:104F30000290002003904FF4806004906946204660
:104F4000FFF74FFE41F288321821204600F002F8A8
:104F500006B010BD454B10B51B684FF4FA54B3FBB7
:104F6000F4F353435B1E02D24FF0004010BD426B7E
:104F700012F0450FF6D01205F4D4426B520703D558
:104F800004218163084610BD426BD20702D0012183
:104F9000816305E0C52282630269D2B28A4201D0F0
:104FA000012010BD0021FFF7F5FD3149084201D174
:104FB000002010BD002802DA4FF0007010BD410043
:104FC00001D5402010BD810001D5802010BDC10059
:104FD00002D54FF4807010BD010102D54FF400706E
:104FE00010BD410102D54FF4806010BDC10102D552
:104FF0004FF4006010BD010202D54FF4805010BD87
:10500000410202D54FF4005010BD810202D54FF489
:10501000804010BDC10202D54FF4004010BD4103D5
:1050200002D54FF4003010BD810302D54FF480202B
:1050300010BDC10302D54FF4002010BD010402D5FC
:105040004FF4801010BD410402D54FF4001010BD84
:10505000810402D54FF4800010BD000702D54FF443
:10506000000010BD4FF4803010BD0000C4000020CF
:1050700008E0FFFD12494FF4FA520968B1FBF2F162
:1050800041F288325143491E02D24FF0004070472E
:10509000426B12F0450FF6D01205F4D4416B49076C
:1050A00003D50421816308467047416BC90703D0CB
:1050B0000121816308467047C52181630020704744
:1050C000C40000200F494FF4FA520968B1FBF2F115
:1050D00041F288325143491E02D24FF000407047DE
:1050E000426B12F0450FF6D01205F4D4416B49071C
:1050F00003D50421816308467047C52181630020E0
:1051000070470000C400002030B5204B4FF4FA5423
:105110001B68B3FBF4F341F2883463435B1E02D295
:105120004FF0004030BD446B14F0450FF6D024051D
:10513000F4D4436B5B0703D504218163084630BD7B
:10514000436BDB0702D00121816303E00369DBB21B
:105150008B4201D0012030BDC52181630021FFF7C2
:1051600019FD10F4604F04D0410406D54FF40050EF
:1051700030BD000C1080002030BD000402D54FF47B
:10518000805030BD4FF4803030BD0000C40000209E
:1051900010B5064C01202070FBF7CCFC18B9207824
:1051A00020F001002070207810BD0000AC0000202D
:1051B00010B5846BFDF7CFF8022828D0206C416D24
:1051C000E06B406D012901D001281DD121681048F4
:1051D00088632068C16B21F49D71C163A06B40F0AE
:1051E0008040A0632046FEF7EBF9062801D0052891
:1051F00005D12068FFF762FEA16B0843A063012080
:1052000084F83400002020632046FEF7FAF810BD31
:10521000FF05400010B5846B206B822809D12068FF
:10522000FFF74CFE28B1A16B0143A1632046FEF7B6
:10523000E8F82068C16A21F00801C162216840F2E3
:105240003A508863012084F834000020206320460F
:10525000FEF766FC10BD10B5846B40F23A50216831
:1052600088632046FEF7ACF9012184F83410002150
:105270002163062801D0052805D12068FFF71EFE0E
:10528000A16B0843A063A06B0028204602D0FEF764
:10529000B8F810BDFEF7B1F810BD806B0068C16BA7
:1052A00041F48071C163704710B5846B40F23A508D
:1052B000216888632046FEF783F9012184F83410C1
:1052C00000212163062801D0052805D12068FFF7B9
:1052D000F5FDA16B0843A063A06B0028204602D017
:1052E000FEF78FF810BDFEF788F810BD10B590B02E
:1052F00004460120ADF838002068FFF747FC00287D
:1053000054D0606C032842D02068FFF77AFD002853
:105310004AD100212068FFF73DFC60670421206826
:10532000FFF738FCA06708212068FFF733FCE0672F
:105330000C212068FFF72EFCC4F88000606C032865
:1053400025D00EA92068FFF7A1FD00282CD1606CA4
:1053500003281CD0BDF83800206501042068FFF741
:1053600066FD002820D100212068FFF713FC60664D
:1053700004212068FFF70EFCA06608212068FFF7D3
:1053800009FCE0660C212068FFF704FC206704217B
:105390002068FFF7FFFB000DE06403A92046FEF73D
:1053A00031F830B14FF0805010B010BD4FF0806038
:1053B000FAE7B4F85000002302042068FFF708FD64
:1053C0000028F1D104F1100007C88DE8070094E827
:1053D0000F00FFF7E9FB0020E6E700002DE9F84F9A
:1053E0000026044600963546B0460068FFF75CFC90
:1053F000002827D12068FFF77FFC4FF0805B4FF03B
:1054000001094FF6FF7748B1A6642068FFF74CFC0E
:10541000002817D1A06C012802D020E0C4F84890E1
:1054200000212068FFF7F2FB58B918E0002120683E
:10543000FFF7ECFB002805D151462068FFF700FC80
:1054400010B15846BDE8F88F00212068FFF7A2FB95
:1054500005464FEAD0780098401C009002E0DFF843
:105460002CA00098B84202D2B8F1000FDED000980C
:10547000B84202D34FF08070E4E7680002D5C4F868
:10548000449000E066640020DCE70000000010C1EA
:1054900070B5064C054601202070FBF757FB18B984
:1054A0002846FFF775FE2070207870BDAC00002004
:1054B00010B5124888B014460078C00702D0032007
:1054C00008B010BDC1B1012905D0022908D00329B7
:1054D0000CD00420F4E76846FBF726FB06980AE0A8
:1054E0006846FBF721FB0798208005E06846FBF73C
:1054F0001BFB0798400A20600020E1E7AC00002079
:1055000010B5144608461A462146FBF735FB00281D
:1055100000D0012010BDFFF73BBE10B51446084671
:105520001A462146FBF754FB002800D0012010BD8D
:10553000704770B5044642620D460846FAF7DBFE36
:1055400082B22946D4F83C02BDE8704041F2707343
:10555000FEF7E5BFFDF752B930B5A3B03421684678
:10556000FAF796FE14211CA8FAF792FE3C210DA82A
:10557000FAF78EFE1F480024016841F08051016057
:10558000006800F0805021901B48016841F44041C0
:1055900001600068022500F4404021900520009041
:1055A0004FF480300190012002908005CDE9065033
:1055B0000C2008906020CDE909050420CDE90B05F9
:1055C0006846FDF7E3FB0F20CDE91C05E802CDE9B5
:1055D0001E4003211CA82094FDF7ECFA68200D90D2
:1055E000E801CDE9140417940DA8FDF7B3F923B031
:1055F00030BD00004038024000700040054801689E
:1056000041F47001016003494FF000608039086087
:105610007047000088ED00E00148FEF7CBBB0000BA
:10562000D4010020F0B50268254C264D264E274FA8
:10563000274B4FF0804CA04209D0604507D0A842CC
:1056400005D0B04203D0B84201D0984204D122F034
:10565000700E4A6842EA0E02A0421BD0604519D083
:10566000A84217D0B04215D0B84213D0984211D0FA
:10567000184DA8420ED0184DA8420BD0174DA84285
:1056800008D0174DA84205D0164DA84202D0164D9D
:10569000A84203D122F44075CA682A434D6922F01A
:1056A00080022A4302608A68C2620A688262A0425B
:1056B00001D0984201D10969016301214161F0BD26
:1056C000000001400004004000080040000C0040C1
:1056D00000040140004001400044014000480140F6
:1056E00000180040001C00400020004010B5806BF6
:1056F0000021C185C184FEF775FC10BD70B5846BB7
:105700002068406994F83910C0F3C01000252129A1
:1057100004D118B1E584204600F050F820684069B3
:1057200094F83A10C0F38010222904D118B1E5850D
:10573000204600F035F8E06B40F01000E0632046B2
:10574000FEF750FC70BD10B50146806B0968096812
:10575000C90513D40021C1850168CA6822F480728A
:10576000CA6001684A6922F001024A6101684A6917
:1057700022F040024A61202180F83A10FEF726FE0E
:1057800010BD10B5806BFEF7C9FE10BD10B5806B63
:105790000021C185202180F83A10FEF7F4FB10BDEE
:1057A0000168CA6822F49072CA6001684A6922F0EE
:1057B00001024A61202180F83A1070470168CA68E6
:1057C00022F0C002CA60202180F83910704710B55D
:1057D00090F83A10222901D0022010BD8168B1F55D
:1057E000805F11D00169002901681FD0496801F06C
:1057F0007F03816A4A1C82620B70C18D491E0904B5
:10580000090CC18518D02BE00269816A002A026860
:10581000526805D0D2B20A80816A491C8162ECE7E5
:10582000C2F308020A80816A891CF7E74A68816A24
:105830004B1C83620A70E0E70168CA6822F020020C
:10584000CA600168CA6822F48072CA6001684A6945
:1058500022F001024A61202180F83A10FEF7B6FDDD
:10586000002010BD2DE9F041044600680169E2689E
:1058700021F44051114301612169A068E2690843A4
:105880006169114308432168CA6849F20C639A436D
:105890000243CA6020684169A26921F44071114342
:1058A0004161E069192764253226B0F5004F354A79
:1058B000354920684FF0000806D0884201D0904258
:1058C00036D1FDF721FA35E0884201D0904202D16D
:1058D000FDF71AFA01E0FDF707FA61684A18A0FB24
:1058E000070148EB0803FAF789FC0146B0FBF5F025
:1058F0000201B1FBF5F06FF01803584301EB800093
:1059000006EBC000B0FBF5F000F0F80002EB40023F
:10591000B1FBF5F0584301EB800006EBC000B0FB93
:10592000F5F000F00700216810448860BDE8F081C0
:10593000FDF7DAF961688B0F8A00A0FB0701FAF71F
:105940005DFC0146B0FBF5F06FF01802504301EB2F
:10595000800006EB0010B0FBF5F000F0F002B1FBA8
:10596000F5F002EB0012B1FBF5F06FF018035843AD
:1059700001EB800006EB0010B0FBF5F000F00F002B
:10598000D1E70000001401400010014090F83910E8
:10599000212901D0022070478168B1F5805F016A3A
:1059A0000BD04A1C0262026809785160C18C491E02
:1059B0000904090CC1840ED017E009880268C1F3FC
:1059C0000801516001690029016A02D0491C016285
:1059D000ECE7891CFBE70168CA6822F08002CA6014
:1059E0000068C16841F04001C160002070472DE9A6
:1059F000F041984617460E460446069D1DE0681C79
:105A00001BD02DB1FCF7F4FEA0EB0800A84214D97E
:105A10002068C16821F4D071C1602068416921F01B
:105A200001014161202084F8390084F83A00002007
:105A300084F838000320BDE8F0812068006836EA69
:105A4000000004D00020B842D9D00020F3E70120A4
:105A5000F9E700000148FEF7C7BA00001402002071
:105A60000148FEF7C1BA0000540200200148FEF7C9
:105A7000BBBA000094020020FEE700000FB4084B00
:105A800010B504A902AA039800F09AF9044602A9E5
:105A9000002000F02CFD204610BC5DF814FB000037
:105AA000EF64000837B514460846064B6A4621469F
:105AB00000F086F904466946002000F018FD2046F3
:105AC0003EBD0000EF6400080907090E002804DB52
:105AD00000F1E02080F80014704700F00F0000F1A2
