:020000040800F2
:1000000070330020D9010008D7410008513D000895
:10001000B5410008CF100008D950000800000000CA
:10002000000000000000000000000000454C000837
:10003000E511000800000000D9410008694C0008E3
:10004000F3010008F3010008F3010008F3010008C0
:10005000F3010008F3010008F3010008F3010008B0
:10006000F3010008F3010008F3010008F3010008A0
:10007000F3010008F3010008F3010008F301000890
:10008000F3010008F3010008F3010008F301000880
:10009000D1100008DD100008F3010008F30100088A
:1000A000F3010008F3010008F3010008F301000860
:1000B000F3010008F3010008F3010008F301000850
:1000C000F3010008F3010008F3010008F301000840
:1000D000F3010008B5500008C1500008CD500008D9
:1000E000F3010008F3010008F3010008F301000820
:1000F000F3010008F3010008F3010008F301000810
:1001000000000000B1420008F3010008F3010008FC
:1001100000000000000000002D4D0008F301000861
:10012000F3010008F3010008F30100082911000899
:10013000F3010008F3010008F3010008F3010008CF
:10014000E9100008F5100008F3010008F3010008A9
:10015000F301000835110008F3010008F30100085D
:10016000F3010008F3010008000000000000000097
:10017000000000000000000000000000000000007F
:10018000F3010008F3010008000000000000000077
:10019000F3010008F3010008000000000000000067
:1001A000000000000000000000000000000000004F
:1001B000F30100080000000000000000F301000847
:1001C000F3010008DFF80CD000F060FC00480047A5
:1001D0003D730008703300200648804706480047FA
:1001E000FEE7FEE7FEE7FEE7FEE7FEE7FEE7FEE7E7
:1001F000FEE7FEE7114D0008C50100082DE9F05F9C
:100200000546002092469B46884606468146402485
:100210001BE0284641464746224600F086FA5346F0
:100220005A46C01A914110D311461846224600F092
:100230006DFA2D1A67EB01084F4622460120002176
:1002400000F064FA17EB00094E41201EA4F10104EE
:10025000DFDC484631462A464346BDE8F09F40EA87
:1002600001039B0703D009E008C9121F08C0042A34
:10027000FAD203E011F8013B00F8013B521EF9D21B
:100280007047D2B201E000F8012B491EFBD2704743
:100290000022F6E710B513460A4604461946FFF752
:1002A000F0FF204610BD421E12F8013F002BFBD18B
:1002B00011F8013B02F8013B002BF9D1704730B532
:1002C00005462A460B4612F8010B13F8014B08B1FC
:1002D000A042F8D01CB1002802D06D1CF1E72846DE
:1002E00030BDCAB2401E10F8011F8A4202D0002958
:1002F000F9D100207047421C10F8011B0029FBD1E6
:10030000801A704770B5064604F01EFF0468054663
:100310000A220021304600F079FA2C6070BD2DE9E8
:10032000FE4F804681EA0300C00F0C46009021F08A
:10033000004123F00045B8EB0200A94105D2404638
:10034000214690461C460B46024623F000401043CF
:1003500047D0270DC7F30A00C3F30A510290401A91
:10036000019040286BDAC3F3130040F4801B00981F
:10037000924620B10023D2EB030A63EB0B0B0198EA
:100380005946C0F14002504600F0C0F906460D46FD
:1003900050465946019A00F0D8F910EB0800614127
:1003A000002487EA115284EAE7731A4340D0009A86
:1003B00062B3019A012A4FEA075215DC001B61EB78
:1003C00002014FF0004202EA0752CDE90042001C50
:1003D00041F5801132462B4600F096FA03B0BDE895
:1003E000F08F40462146F9E7001B61EB0201001C3B
:1003F00041F5801300185B412018A2F5001747EB68
:10040000030140EAD570B6196D4111E06D084FEA5D
:10041000360645EAC0754FEA0752001B61EB020140
:10042000001C41F5801149084FEA30000019514184
:1004300032462B4603B0BDE8F04F00F056BA0098A4
:10044000012240000023D0EB020263EBE07300982E
:1004500021464FEAE074B8EB000061EB0401E9E7E4
:1004600083F000435BE781F0004158E72DE9FE4F40
:1004700081EA030404F0004421F0004100944FF0AD
:10048000000B23F0004350EA01045ED052EA03045B
:100490005BD0C3F30A54C1F30A552C44A4F2F334DD
:1004A0000194A0FB0254C1F3130141F48011C3F382
:1004B000130343F4801301FB024400FB034E840A40
:1004C000970A44EA815447EA8357A4FB07680295D8
:1004D0008D0A05FB07854FEA932C04FB0C54270576
:1004E000029D4FEA065847EA1637B5EB08056EEB52
:1004F000070C870E920E47EA811742EA8312A7FB88
:100500000201B6EB0B0164EB00042B0D43EA0C3344
:100510005E1844EB1C50DA465146E7FB0201C5F376
:1005200013044FEA0B3343EA14534FEA0432019C9D
:1005300043EA0603A4F10C040294009CCDE900B444
:1005400000F0E2F903B0BDE8F08F00200146F9E7C2
:100550002DE9F04D81EA030404F0004B21F0004541
:1005600014464FF0000A23F0004150EA050220D063
:1005700054EA01021DD0C5F30A570246C5F313031E
:10058000C1F31300C1F30A5640F4801543F48013FD
:10059000A7EB0608101BD64608F2FD3873EB0500E2
:1005A00002D308F1010801E092185B41B8F1000F95
:1005B00003DA00200146BDE8F08D00204FF48011E1
:1005C000064684460EE0171B73EB050705D3121B86
:1005D00063EB050306434CEA010C49084FEA30007F
:1005E00092185B4150EA0107EDD152EA030012D0A4
:1005F00082EA040083EA0501084305D0101BAB41E1
:1006000006D20122002306E000224FF0004302E060
:100610006FF0010253101AEB06004CEB085110EB7F
:100620000A0041EB0B01BDE8F04D00F05EB90EB5DC
:10063000C10F80EAE0700844CA07002140F233434A
:100640008DE80E000A460B4600F05EF903B000BDCF
:10065000C1F30A5210B5C1F3130140F2FF3341F464
:1006600080119A4201DA002010BD40F233439A42D1
:10067000A2F2334203DC524200F057F810BD904022
:1006800010BD00F0004230F000400AD0C10D01F56D
:100690006071C0F3160042EA0151C20840071143DD
:1006A000704700200146704701F0004330B421F04C
:1006B000004150EA010206D00A0DA2F56072C1F3B2
:1006C0001301002A02DC30BC00207047440F44EACA
:1006D000C104C100E01830BC00EBC25000F0CEB83D
:1006E00030B50B46014600202022012409E021FA02
:1006F00002F59D4205D303FA02F5491B04FA02F5FF
:100700002844151EA2F10102F1DC30BD202A04DBD1
:10071000203A00FA02F1002070479140C2F1200314
:1007200020FA03F3194390407047202A04DB203A53
:1007300021FA02F00021704721FA02F3D040C2F101
:1007400020029140084319467047202A06DBCB1748
:10075000203A41FA02F043EAE07306E041FA02F37C
:10076000D040C2F120029140084319467047000072
:100770000FB4002300B589B00CA900910B996FF05C
:100780000042CB601E4B06931E4B07930423CDE91A
:1007900001321D4A089202466B46002000F02AFAF8
:1007A00009B05DF814FB70B586B006464FF0FF3017
:1007B0000091CDE90101002015460C460490324617
:1007C000694604A8FFF7D4FF02460498211825B112
:1007D00008B1084600E020462860049800280DD0A3
:1007E000002A02DD0098884208D0081B0094CDE959
:1007F00001043246694604A8FFF7BAFF06B070BD8F
:100800002D0E00084B0E0008B90A00082DE9F0472C
:1008100091460F4680460446002614F8015B2DB130
:1008200000F046F90068405DC007F6D12B2D02D0DC
:100830002D2D18D0641E4A463946204600F016FB7E
:1008400027B13968A14201D1C7F8008071054FF086
:1008500002040BD54042002803DD04F075FC04605F
:10086000A007BDE8F08746F48066E4E70028F8DAE0
:1008700004F06AFC04606FF00040F2E70029A8BFB2
:100880007047401C490008BF20F00100704710B4B9
:10089000B0FA80FC00FA0CF050EA010404BF10BC6E
:1008A000704749B1CCF1200421FA04F411FA0CF19B
:1008B00018BF012121430843A3EB0C01CB1D4FEAD4
:1008C00000614FEA102042BF002010BC704700EBCF
:1008D000C35010440029A4BF10BC7047401C4900FD
:1008E00008BF20F0010010BC704710B5141E73F152
:1008F000000408DA401C41F1000192185B411A43E0
:1009000001D120F0010010BD2DE9F04D92469B462B
:1009100011B1B1FA81F202E0B0FA80F220329046D1
:10092000FFF7F4FE04460F4640EA0A0041EA0B01D5
:1009300053465A46084313D0114653EA010019D0D2
:10094000C8F140025046FFF7F0FE05460E465046FD
:1009500059464246FFF7DAFE084305D0012004E07D
:1009600020463946BDE8F08D0020054346EAE07692
:100970002C4337430A986305E40AA0EB08000022E1
:10098000FD0A44EA47540A3002D500200146E9E74F
:10099000010510196941DDE9084500196941BDE803
:1009A000F04DA2E72DE9FE4FC3F30A5701F00045D1
:1009B0000024C1F30A56C3F31303C1F3130143F434
:1009C000801312EB020AA64641F48011009543EB16
:1009D000030CA7F1010B16E0B0EB0A0061EB0C0170
:1009E000071E71F1000707DA4FF00008D0EB08008E
:1009F00085F0004568EB0101171A73EB0107EBD393
:100A0000761E001849415E45F6DA50EA010209D027
:100A1000CDE900E5002213460296FFF775FF03B00B
:100A2000BDE8F08F20460099F9E7C1F30A52C1F3FF
:100A3000130140F2FF3341F480119A4202DA0020A0
:100A40000146704740F233439A42A2F2334202DC3D
:100A50005242FFF76ABEFFF759BE000030B5041ED0
:100A600071F1000404DB4FF00044404264EB0101EB
:100A7000141E73F1000405DB1C464FF00043524284
:100A800063EB0403994208BF904230BD064C074D0A
:100A900006E0E06840F0010394E80700984710344E
:100AA000AC42F6D3FFF792FB84810008A4810008D2
:100AB000004870470081000810B50446FFF7F8FFB2
:100AC0000068005D00F0010010BD00002DE9FF4F3F
:100AD000087883B09946FF2805D0491C2D2804D0FA
:100AE0000024002008E000200BE00124F9E700EBDF
:100AF000800003EB4000491C0B78FF2BF7D104B1B9
:100B0000404200230293147819461D462D2C01D033
:100B10002B2C04D1521C2D2C13D000240294AA4655
:100B20001478FF2C0FD00A25A3FB057801FB058163
:100B30004FF0000C03FB0C11521CE3194AEB0101AE
:100B4000EEE70124EAE7814453EA010002D019F5F7
:100B5000C87F06DA03980021C0E9001107B0BDE89C
:100B6000F08F0025AE4E2F46DFF8B882184600F011
:100B7000DAF9CDE90001B9F1000002DAC9F10004A7
:100B800000E004460023A74A1AEB030B42EB045A89
:100B900012E0E00707D02A46334638464146FFF7C1
:100BA00065FC074688462A46334610461946FFF735
:100BB0005DFC05460E466410002CEAD1DDE900011B
:100BC000B9F1000F5A46534606DAFFF7C1FC3A4620
:100BD0004346FFF7BDFC05E0FFF748FC3A464346B5
:100BE000FFF744FC029A0AB181F00041039AC2E97E
:100BF0000001B3E72DE9FF4F1F468DB0D7E901464D
:100C00004FF0FF382E2045464FF000090B90B96990
:100C10006D1C0E988847396A824688470028F6D1AD
:100C2000BAF1FF3F0AD024F4D064002E11DDBAF1EE
:100C30002B0F08D0BAF12D0F0BD102E0404611B0B6
:100C40008DE744F48064B9696D1C0E98884782462C
:100C5000761E6946600501D52D2000E02B208DF819
:100C6000000001F1010B0DF1200809E0B9696D1CCC
:100C70000E98884782460F9844F40074761E0560EB
:100C8000002E02DDBAF1300FF0D00B998A453ED12B
:100C900044F0800406E00F99681CA9F1010944F4AE
:100CA00000740860B9696D1C761E0E9888478246EC
:100CB0003028F0D02BE00B998A4505D1200603D4CB
:100CC00044F08004761E18E0504604F0CFFB08B3D1
:100CD0000DF11301761E44F400748B4508D2AAF17D
:100CE00030000BF8010B200607D5A9F1010003E045
:100CF000200602D409F101008146A00502D50F9912
:100D0000681C0860B9696D1C0E9888478246002EE1
:100D1000D1DC53E0002E51DDBAF1650F02D0BAF1FB
:100D2000450F4BD1A00549D5B9696D1C24F4407419
:100D3000761E0E9888478246002E0CDD2B2804D0A4
:100D4000BAF12D0F07D144F48074B9696D1C0E9867
:100D500088478246761EE00501D52D2100E02B2133
:100D600008F8011BCDF82C8021E00DF12901761E39
:100D700044F4007488450CD2AAF1300010F0FF0052
:100D800088F8000002D10B99884509D908F10108BB
:100D900006E0E00501D5244801E042F20F708146EB
:100DA000B9696D1C0E98884782460F980560002E21
:100DB00004DD504604F05AFB0028D6D1F9690E989C
:100DC0008847FF208BF8000088F80000002006907C
:100DD00007904B466A4608A906A8FFF777FEA005CC
:100DE00002D46FF001002AE714F0240F0AD0E007C4
:100DF00014D1DDE906123868031D3B600068C0E9C4
:100E000000120BE0DDE90601FFF74EFC0146E007AA
:100E100004D13868021D3A600068016028460EE778
:100E2000000014400000F03FF1D8FFFF426842B1DB
:100E3000016811F8013B23B1521EC0E900121846A7
:100E400070470121C160881E704742685AB1C3686B
:100E5000016843B983688B4205D0491E521CC0E922
:100E60000012002070474FF0FF3070472DE9F05F0F
:100E700082460078002715468B460AF10104B946E0
:100E8000302801D09DB113E014F8010B0127782818
:100E900003D0582801D045B10AE00DB1102D07D17B
:100EA0000027102514F8010B02E0082500E00A25B0
:100EB0000026B0460EE005FB080005FB06F1012701
:100EC00001EB10461FFA80F8B6F5803F00D3B94613
:100ED00014F8010B294600F018F80028EBDABBF1F2
:100EE000000F05D00FB1641E00E05446CBF800405F
:100EF000B9F1000F06D004F027F902210160C81EE5
:100F0000BDE8F09F48EA0640FAE73A2800D23038B8
:100F100020F02002412A01D3A2F13700884201D3F8
:100F20004FF0FF3070470EB540F23342029200227C
:100F3000CDE900221346FFF7E7FC03B000BD30B552
:100F4000148803780B5515884B1C4478EC5415888D
:100F50008B1C8478EC541388C91CC07858541088B2
:100F6000001D108030BD10B5148803780B55138810
:100F7000491C407858541088801C108010BD10B552
:100F8000148803780B551388491C407858541088EE
:100F9000801C108010BD30B5148803780B5515885F
:100FA0004B1C4478EC5415888B1C8478EC541388C3
:100FB000C91CC07858541088001D108030BD13889B
:100FC0000078C8541088401C10807047704700009B
:100FD0000146014801F048BF1801002010B504483F
:100FE00001F054FF042801D0012010BD002010BDE5
:100FF0001801002010B500F00BF8012801D00120E5
:1010000010BDBDE81040014802F056B8180100209C
:1010100008B501208DF800009DF8000008BD000013
:1010200070B513460A4601460024104802F044F900
:1010300040B90F4D0D4801F03FFF641C032803D059
:10104000012804D0012070BDAC42F3D3FAE700249C
:10105000064801F01BFF641C042801D0AC42F7D302
:10106000AC4201D3032070BD002070BD18010020E8
:1010700000E1F5057047000070B513460A460146C9
:101080000024104802F0B8F940B90F4D0D4801F0A6
:1010900013FF641C032803D0012804D0012070BD75
:1010A000AC42F3D3FAE70024064801F0EFFE641CDB
:1010B000042801D0AC42F7D3AC4201D3032070BD69
:1010C000002070BD1801002000E1F5057047FEE723
:1010D000014800F084BB0000A8000020014800F097
:1010E0007EBB0000A8000020014800F078BB000093
:1010F000D0000020014800F072BB0000D0000020AA
:1011000070B504462A21FFF7ECF8807802F021FE42
:1011100005462A212046FFF7E4F8407802F019FE40
:1011200005EB001070BD0000014800F08FBD00000D
:10113000802C0020014800F089BD0000E02C002038
:1011400001681823CAB2103AB2FBF3F2054B6FF3F1
:101150000901032A9B5CC36500D9091D8165084606
:1011600070470000047C000810B5014600208B6920
:101170008A6A4FF0C07453B1B3F5005F15D072B1F5
:10118000012A0CD0022A0AD0032A09D104E01AB19C
:10119000012A06D0022A03D1C96AC90100D501205B
:1011A00010BDC96AA142FAD010BD002AF7D0012AA9
:1011B000F2D0022AF3D0032AF3D010BD30B5046870
:1011C000256825F480252560046863608368402BCA
:1011D000036803D099600068C26030BD9A600068FF
:1011E000C16030BD70477047002200F001B80000B8
:1011F00030B50E4B054601205C7A002C14D1587A8C
:101200001C54587A03EB800045605D7A03F10800B6
:101210002A54587A421C5A72303008703A2048706A
:101220002F208870CC70002030BD0000602F00207F
:1012300005E002782C2A01D1491EC9B2401C0029C0
:10124000F7D170472DE9F04104469CA1C01CFFF77F
:1012500036F805469BA1E01CFFF731F804F217278A
:1012600004F20326002D7DD0691CE01C02F0A4FFCF
:101270000546E01CFFF744FF854274D10221E01CC3
:10128000FFF7D6FF007841286ED10421E01CFFF75C
:10129000CFFF03460321E01CFFF7CAFF1B1A0321FF
:1012A000E01C5B1EFFF7C4FF01461A463046FEF7FE
:1012B000D6FF0621E01CFFF7BBFF03460521E01C1B
:1012C000FFF7B6FF1B1A0521E01C5B1EFFF7B0FFFE
:1012D00001461A463846FEF7C2FF0821E01CFFF718
:1012E000A7FF03460721E01CFFF7A2FF1B1A0721F7
:1012F000E01C5B1EFFF79CFF014604F22B201A4600
:101300000546FEF7ACFF2846FEF7FCFFFFF78FF916
:101310009FED6E1B53EC112BFFF7A8F8FFF798F920
:1013200084F85C02304604F5157403F011FF51ECAB
:10133000100BFFF7B9F900EE100A04F019FD51EC9B
:10134000100BFFF7B1F92060384603F001FF51ECB4
:10135000100BFFF7A9F900EE100A04F009FD51EC9B
:10136000100B02E005E088E016E0FFF79DF96060F1
:101370007DE0002815D0411CE01C02F01DFF054651
:10138000E01CFFF7BDFE854278D10621E01CFFF787
:101390004FFF0078312805D0D4F86402401CC4F80F
:1013A000640270E00321E01CFFF742FF03460221C4
:1013B000E01CFFF73DFF1B1A0221E01C5B1EFFF73C
:1013C00037FF01461A463046FEF749FF0521E01C6B
:1013D000FFF72EFF03460421E01CFFF729FF1B1A2D
:1013E0000421E01C5B1EFFF723FF01461A46384626
:1013F000FEF735FF0821E01CFFF71AFF034607211F
:10140000E01CFFF715FF1B1A0721E01C5B1EFFF70E
:101410000FFF014604F23F201A460546FEF71FFF64
:10142000304603F095FE51EC100BFFF73DF900EE4E
:10143000100A04F09DFC51EC100BFFF735F9C4F8CD
:101440005402384604F5157403F082FE51EC100B7B
:10145000FFF72AF900EE100A04F08AFC51EC100B99
:10146000FFF722F960602846FEF74CFFA072606922
:10147000401C6061A4F5157405E0FFE7D4F8600234
:10148000401CC4F86002F4E998010144A0680144DA
:1014900000EE101AF8EE400A00EE100AB8EE401AFC
:1014A00081EE200ADFED0B0A20EE200ABCEEC00A16
:1014B00010EE100A04F8030CBDE8F08124475052E6
:1014C0004D43000024475047474100006F1283C03E
:1014D000CAA1FD3F0000C84210B5827804460A2A1E
:1014E00005D02088E31C411C2180C25410BDFFF7A9
:1014F000A9FE002020803022E01CBDE810404FF4FF
:101500000071FEF7BEBE00002DE9F043044690F8DE
:10151000221000260E252C30C9B04FF010084FF0D5
:101520000C0941F2707304F16C07112913D2DFE842
:1015300001F0091512121C252C333A41486777A88F
:1015400012B5BC005EA260A1204603F07CFB012026
:1015500004F8210F667049B0BDE8F08358A25CA181
:10156000204603F070FB042005E05BA25DA120464D
:1015700003F069FB052004F8210F3FE050A25DA1B4
:10158000204603F060FB0620F5E74DA25DA1204652
:1015900003F059FB0720EEE749A261A1204603F0C2
:1015A00052FB0820E7E746A260A1204603F04BFB70
:1015B0000920E0E760A264A1204603F044FB0A2072
:1015C000D9E76E496BA20B260A646DA2CA646EA2AB
:1015D000CA603C220A838E760A46402102F0F8FB5C
:1015E0000246C4F8D0016AA1684603F077FD6CA2F8
:1015F0006946204603F027FB04F8216F6570AAE7CF
:1016000068A16162B4F8D011D4F8D8618AB20146F9
:10161000304602F03FFB84F8219084F822509AE78C
:10162000DFF8988162A104F26B12C8F80010ADF8DF
:101630001C6147AB9146624908F2AC4004F0D0FB14
:10164000BDF81C110023CDE90591D8E90012D8F8A6
:1016500008000096CDE90320CDE901611A46FF217B
:10166000384602F07AFC0246C4F8D40148A107A823
:1016700003F034FD53A207A9204603F0E4FA0D203D
:1016800079E7B4F8D401394682B2D4F8D80102F02F
:1016900001FB84F8229084F821505CE70D224AA1D6
:1016A000D4F8D80102F0F6FA03E04B480068800550
:1016B00002D484F822804EE784F822604BE70000D1
:1016C0004F4B0D0A0000000041540D0A00000000BD
:1016D000415445300D0A000053485554204F4B0DDE
:1016E0000A00000041542B434950534855540D0AF9
:1016F0000000000041542B43474154543D310D0A32
:101700000000000041542B435354543D22696E7431
:1017100065726E6574222C22222C22220D0A000092
:1017200041542B43494943520D0A000041542B4375
:10173000494653520D0A0000434F4E4E4543542034
:101740004F4B0D0A0000000041542B4349505354A5
:101750004152543D22544350222C223135372E32EF
:1017600033302E32392E3633222C22313838332280
:101770000D0A00006469676974616C001C00002038
:101780006165736B000000004C595241000000007D
:1017900041542B43495053454E443D25640D0A00A6
:1017A0000D0A3E0053454E44204F4B0D0A000000E9
:1017B0004C59524144415441000000009C0000201B
:1017C000EC2900203E00000041542B4346554E3D7D
:1017D000312C310D0A0000001004024070472DE941
:1017E000F05F0546006800244669D0F804908768D9
:1017F000D0F80CB0D0F810A0D0F81880F10748D07D
:10180000F90714D001218160B80703D5284600F0FC
:1018100003FA0CE0780702D54FF4006407E03807BC
:1018200002D54FF4805402E0284600F0F4F9F805A0
:1018300016D529684FF480708860B80503D528460E
:1018400000F0ECF90CE0780502D544F4005407E010
:10185000380502D544F4804402E0284600F0DDF962
:10186000F80316D529684FF480308860B80303D593
:10187000284600F0D5F90CE0780302D544F4004482
:1018800007E0380302D544F4803402E0284600F033
:10189000C6F9300707D55FEACB6004D52968102068
:1018A00044F40074C86070074FF0080707D55FEA7A
:1018B0000B7004D52868C760284600F0A7F9B00768
:1018C00006D52868C068800702D0284600F09FF936
:1018D000700607D55FEACA6004D52968102044F471
:1018E00080640861B00607D55FEA0A7004D52868ED
:1018F0000761284600F08CF9F00606D528680069D3
:10190000800702D0284600F084F9B00308D55FEACA
:10191000C96005D5296810204860284600F07AF98A
:10192000F00307D55FEA097004D5286847602846A8
:1019300000F077F9300446D55FEA497040D5F005EC
:1019400004D55FEAC87001D044F00104B00504D5A5
:101950005FEA887001D544F00204700504D55FEA9F
:10196000487001D544F00404300529D518F0700FF3
:1019700026D008F07000402815D006DC102809D0C9
:1019800020280AD0302816D10AE050280ED060282E
:1019900011D10EE044F008040DE044F010040AE018
:1019A00044F0200407E044F0400404E044F08004E4
:1019B00001E044F480742868816921F0700181613C
:1019C000296804204860002C05D0686A20436862BA
:1019D0002846FFF703FFBDE8F09F70B5040003D071
:1019E00094F8200010B104E0012070BD204600F002
:1019F00081F82068016821F00201016000F070FBAD
:101A00000546052604E000F06BFB401B0A2811D8B0
:101A1000206840688007F6D42068016841F0010121
:101A2000016000F05DFB05460BE000F059FB401B38
:101A30000A2806D9606A40F40030606284F82060A9
:101A4000D2E720684068C007EFD0207E01282068D8
:101A500001683DD021F080010160607E012820688E
:101A6000016838D021F040010160A07E0128206883
:101A7000016833D021F020010160E07E0128206858
:101A800001682ED041F010010160207F01282068FC
:101A9000016829D021F008010160607F01282068D9
:101AA000016824D021F004010160D4E90201084357
:101AB000D4E90412114308436168491E08432168B0
:101AC000C86100206062012084F82000002070BD01
:101AD00041F08001C0E741F04001C5E741F020013D
:101AE000CAE721F01001CFE741F00801D4E741F047
:101AF0000401D9E7F0B587B0044614216846FEF723
:101B0000C7FB3D4B3D48DFF8ECE0196825683B4AD0
:101B10000226032700241030491C4FF0090C75459C
:101B20002CD11960012907D1016841F000710160D1
:101B3000006800F000700590106840F0010010602F
:101B4000106802AB00F0010005904FF4C050CDE9E1
:101B5000000683E890106946294800F0FBF900224E
:101B60001146142000F02AFB142000F019FB00227B
:101B70001146152000F022FB152037E0DFF884E045
:101B8000754535D11960012907D1016841F000710F
:101B90000160016801F000710591016841F0806108
:101BA0000160006800F080600590106840F002005D
:101BB0001060106802AB00F0020005904FF4405036
:101BC000CDE9000683E8901069460F4800F0C2F99D
:101BD00000221146402000F0F1FA402000F0E0FA27
:101BE00000221146412000F0E9FA412000F0D8FA25
:101BF00007B0F0BD006400407C0000203038024097
:101C00000000024000680040000402407047704736
:101C1000704770477047704770477047704770470C
:101C20007047704790F83510022903D08021416534
:101C300001207047052180F835100068016821F007
:101C40000101016000207047406D70472DE9F843A5
:101C500004464FF00009CDF8009063484FF4165148
:101C6000A56D0068B0FBF1F72E6894F85C100820B1
:101C700000FA01F131420FD021680A6852070BD5F2
:101C80000A6822F004020A6094F85C108840A86098
:101C9000606D40F00100606594F85C104FF0010841
:101CA00008FA01F0304208D021684969090604D5D4
:101CB000A860606D40F00200606594F85C1004203C
:101CC0008840304208D021680968890704D5A86097
:101CD000606D40F00400606594F85C10102088404E
:101CE000304218D021680968090714D5A860206817
:101CF0000168490304D50068000308D5A16C07E01A
:101D00000168C90503D4016821F008010160216C54
:101D100009B12046884794F85C1020208840304262
:101D200031D021680968C9062DD5A86094F835001E
:101D300005282068016806D0490347D500680003DC
:101D40001DD4616C1CE021F016010160206841691E
:101D500021F080014161206C08B9A06C20B120689D
:101D6000016821F00801016094F85C103F20884070
:101D7000A86084F8349084F83580216D1FE0E16B11
:101D800009B120468847606D00282BD0606DC007E0
:101D900014D0052084F835002068016821F0010185
:101DA00001600098401C0090B84203D82068006889
:101DB000C007F6D184F8349084F83580E16C0029AE
:101DC00010D001B02046BDE8F04308470168C905BE
:101DD000D5D4016821F01001016084F8349084F8B2
:101DE0003580CCE7BDE8F8838C0000202DE9F04178
:101DF000044600F075F906465CB1002584F83450BD
:101E0000022084F835002068016821F0010101609A
:101E10000DE00120BDE8F08100F062F9801B05288B
:101E200005D920206065032084F83500F2E720689A
:101E30000068C007F0D12268116820480140D4E949
:101E400001031843D4E90336334318436369184345
:101E5000A3691843E3691843236A18430843616A76
:101E6000042903D1D4E90B131943084310602068F7
:101E70004069666A20F0070130460E4301270428B6
:101E80000CD1A06A0643E06A40B12046FFF76CF926
:101E900020B14020606584F83570BAE7206846615B
:101EA0002046FFF74DF994F85C203F219140816076
:101EB000656584F835700020ACE700003F8010F0C5
:101EC0002DE9F0410446866D90F834000025012884
:101ED0000DD0012084F8340094F835700020012FD3
:101EE00007D084F8340002252846BDE8F08102209E
:101EF000FBE7022784F8357060652046FFF75EF93E
:101F000094F85C103F208840B0602068016841F080
:101F100016010160206C20B12068016841F00801C1
:101F200001602068016841F001010160DCE7000008
:101F300070B5044600F0D4F80546601C02D0044891
:101F40000078044400F0CCF8401BA042FAD370BDE6
:101F5000800000202DE9F84F00224FF001080325F2
:101F60004FF00F0E0B6808FA02F42340A3426ED123
:101F70004E68012E05D0022E03D0112E01D0122E54
:101F800012D186684FEA420C05FA0CF7BE43CF68BF
:101F900007FA0CF7374387604668A6430C79C4F309
:101FA0000014944034434460C668570005FA07FCA7
:101FB0008C6826EA0C06BC403443C4604C68022C92
:101FC00001D0122C13D1D40800EB8404A346D4F81A
:101FD000209054074FEAD46A0EFA0AF629EA060955
:101FE0000E6906FA0AF646EA0906CBF8206006688A
:101FF0000C7926EA0C0604F00304BC403443046068
:102000004C68E40051D52C4C266846F48046266086
:10201000246822F0030604F480440094274C3444DE
:10202000A446D4F808489607370F0EFA07F6B443CB
:10203000234EB04201D1002610E0224EB04201D121
:1020400001260BE0204EB04202D1022606E02CE031
:102050001E4EB04201D1032600E00726BE402643B3
:10206000CCF808681A4E34684F689C43FF0300D5CB
:102070001C433460164E361D34684F689C43BF03C2
:1020800000D51C433460124E083634684F689C43B8
:10209000FF0200D51C4334600D4E0C3634684F6887
:1020A0009C43BF0200D51C433460521C102AFFF42D
:1020B00059AFBDE8F88F00004438024000300140BD
:1020C000000002400004024000080240000C0240F0
:1020D000003C01400AB1816170470904FBE7000040
:1020E0000148806870470000800000200248816835
:1020F0000278114481607047800000200B4810B5C1
:10210000016841F400710160016841F4806101607F
:10211000016841F480710160032000F06FF8002035
:1021200000F006F800F024F8002010BD003C02404A
:1021300070B50D4D04464FF47A712878B1FBF0F07C
:102140000A490968B1FBF0F001F0EEF948B9102C2A
:1021500007D200222146501E00F030F800206C60AB
:1021600070BD012070BD0000800000208C000020A8
:102170000A4808B5016841F480410160006800F434
:10218000804000900548001F016841F080510160C7
:10219000006800F08050009008BD00004438024004
:1021A000002809DB00F01F02012191404009800056
:1021B00000F1E020C0F8001170470000F0B40E4BB1
:1021C0001B680C46C3F30223C3F10705042D00D995
:1021D0000425191D072901D2002300E0DB1E01267A
:1021E00006FA05F1491E214099409E40761E164090
:1021F0003143F0BC02F098BF0CED00E0064900F05E
:10220000070208684FF6FF03184040EA0220034A1D
:1022100010430860704700000CED00E00000FA0574
:102220002DE9F84F0446007800268D4DC00708D0F0
:102230002868616920F0C06008432860606900B9BF
:1022400001262078800708D52868A16920F0C050B1
:1022500008432860A06900B9012620784FF0000AE1
:1022600000074FF0010B55D57D484C38016841F00F
:10227000805101600068DFF8EC8100F08050009030
:10228000D8F8001041F48071C8F80010FFF728FF5B
:10229000074604E0FFF724FFC01B02286FD8D8F8D8
:1022A0000000C005F6D56E4F1C3F386810F4407032
:1022B0001FD0A18B01F4407181421AD0386820F4FC
:1022C00040716948C0F800B0C0F800A039603868B3
:1022D000C0070ED0FFF704FF804641F2883905E0C1
:1022E000FFF7FEFEA0EB0801494548D83868800793
:1022F000F6D5E1695A48C1F301228438032A36D061
:10230000016821F4F81101603868A18BC1F30B0159
:10231000084338602078DFF85491400703D594F8DB
:102320003810C9F8E0112078C106514805D5016878
:10233000626A21F440011143016021784FF0006787
:10234000890609D50168A26A21F000611143016084
:10235000A16AB94200D101262178490605D5016854
:10236000226A21F080511143016066B908E00268D9
:10237000404B22F4F81219400A430260C4E754E0CB
:102380002068802857D15046DFF8ECA0CAF86800D2
:10239000FFF7A6FE324E80468C3E05E0FFF7A0FE1A
:1023A000A0EB0800022840D830680001F6D4616B29
:1023B000C9F8D81020683149C20701D062697AB1E2
:1023C000820701D5A2695AB1820602D5A26ABA4231
:1023D00006D040060FD5206A68B9A06AB8420AD173
:1023E000D4E9010240EA8210227B237C120642EAF1
:1023F000037210430860207800060AD5D4E9010270
:1024000040EA8210227B237C120642EA03721043C8
:102410000860CAF868B0FFF763FE074608E000BF2F
:10242000FFF75EFEC01B022802D90320BDE8F88F2B
:1024300030680001F4D52088C00505D52868E16A18
:1024400020F00040084328602088800505D52868D2
:10245000216B20F40040084328600020E6E70000DC
:102460008C38024000700040400E47420010474246
:1024700094380240FFFCFF0F0000474284380240BE
:102480002DE9F0470E46050065D0DFF81481D8F835
:102490000000F7B200F00F00B04207D288F80070D9
:1024A000D8F8000000F00F00B04254D128683D4C2D
:1024B000810712D5400703D5206840F4E050206022
:1024C0002878000703D5206840F460402060206829
:1024D000A96820F0F000084320602878C0072DD0BC
:1024E000304968680839012812D0022813D003281F
:1024F00011D00968890700292DDA216821F003012C
:1025000001432160FFF7ECFD814641F2883A0EE07D
:1025100009688903EFE709688901ECE7FFF7E0FD47
:10252000A0EB0901514502D90320BDE8F0872068DE
:10253000696800F00C00B0EB810FEFD1D8F8001003
:10254000404601F00F01B14207D90770006800F062
:102550000F00B04201D00120E7E72878400705D5F9
:102560002068E96820F4E0500843206028780007DC
:1025700006D52068296920F4604040EAC100206047
:1025800000F038F82168084AC1F30311515CC840D3
:102590000649086006480068FFF7CAFD0020C4E746
:1025A000003C0240083802400C7C00088C000020EF
:1025B000840000200448054900680968044AC1F302
:1025C0008221515CC84070478C00002008380240CE
:1025D0001C7C00080448054900680968044AC1F3E6
:1025E0004231515CC84070478C00002008380240DE
:1025F0001C7C0008154810B5006810F00C02144847
:1026000013D01449042A0FD0082A0ED10F4C241FCE
:102610002268236802F03F025B0207D52068C0F3FE
:102620008810A0FB010106E0084610BD2168C1F337
:102630008811A1FB00010023FDF7E0FD2168C1F333
:102640000141491C4900B0FBF1F010BD08380240BF
:102650000024F40040787D012DE9F84F054600780C
:10266000DFF800B3C04CC0074AD0DBF80010584672
:10267000C1F38101012908D00068C0F3810002285C
:102680000AD1201D0068400206D52068800337D596
:102690006868002872D033E06868B0F5803F10D0D9
:1026A000B0F5A02F206810D020F480302060206882
:1026B00020F4802020606868A8B1FFF711FD06466D
:1026C0000DE0206840F48030F4E740F48020206082
:1026D000F7E700BFFFF704FD801B64286FD8206870
:1026E0008003F7D50CE0FFF7FBFC064605E000BFD2
:1026F000FFF7F6FC801B6428F0D820688003F7D42D
:102700002878DFF8688280074FF0000940D5DBF8B1
:102710000010584611F00C0F09D00068C0F381007A
:1027200002280BD18F48001F0068400206D42068A1
:10273000800715D5E868012820D111E0E868B8B114
:102740000120C8F80000FFF7CBFC064605E000BFFB
:10275000FFF7C6FC801B0228C0D820688007F7D589
:102760002068296920F0F80040EAC10020600FE0ED
:10277000C8F80090FFF7B4FC064606E0EFE000BFA3
:10278000FFF7AEFC801B022819D820688007F7D419
:102790002878000722D5734E754869696C3679B17F
:1027A00001210160FFF79CFC074604E0FFF798FC5D
:1027B000C01B022803D830688007F7D50EE089E0F7
:1027C000C0F80090FFF78CFC074604E0FFF788FC98
:1027D000C01B02287ED830688007F7D428784007CD
:1027E00068D5DFF880A100270AF1380ADAF800007E
:1027F000C0000BD4DAF8001041F08051CAF8001084
:10280000DAF80000012700F080500090594E30683F
:10281000C00510D4306840F480703060FFF760FC71
:10282000009005E0FFF75CFC0099401A022851D89F
:102830003068C005F6D54B4EA868683601280FD021
:102840000528306810D020F001003060306820F09A
:1028500004003060A868B8B1FFF742FC00900FE0B8
:10286000306840F00100F4E740F004003060F7E722
:10287000FFF736FC0099411A41F28830814266D850
:1028800030688007F4D50EE0FFF72AFC009007E0DF
:10289000FFF726FC0099411A41F28830814256D850
:1028A00030688007F4D42FB1DAF8001021F080519D
:1028B000CAF80010A869D0B3DBF80010C1F3810199
:1028C00002294CD00228484607D0C8F86000FFF71C
:1028D00007FC00E03BE005463CE04746C8F86000E6
:1028E000FFF7FEFB064604E0FFF7FAFB801B022819
:1028F0002DD820688001F7D4F5E907010843E9687D
:102900001D4A490802EB0141AA6841EA82110843C5
:10291000297C40EA0160297D40EA01711148001FCD
:10292000016001203866FFF7DBFB054605E014E097
:10293000FFF7D6FB401B022809D820688001F7D595
:102940000BE000BFFFF7CCFB401B022802D903209D
:10295000BDE8F88F20688001F4D40020F8E701205A
:10296000F6E7000008380240003802400000474205
:10297000800E4742007000400000FFFF10B5006865
:102980000B4641680D480140080CD870C1F304247F
:102990005C7001F03F049C70C1F34231197052B970
:1029A00001F01BFCD870587801F017FC587098782B
:1029B00001F013FC9870002010BD00003FFFFF00E5
:1029C00010B50B460168896A596001680969C1F34D
:1029D0000E019960006801680E480140C1F305408E
:1029E0001870C1F306245C7001F07F049C704024D1
:1029F00004EA1141D97052B901F0EFFB1870587810
:102A000001F0EBFB5870987801F0E7FB987000201C
:102A100010BD00007F7F7F0070B5040002D0607F92
:102A200010B106E0012070BD00202077204600F0A4
:102A300049F8022060772168CA2048622168532043
:102A40004862204601F0DEFBFF25042618BB206803
:102A500081681B4A11408160216888686268104360
:102A6000D4E904231A43104388602168E0680861B0
:102A700020680169228941EA024101612068C16838
:102A800021F08001C16020688068800607D420465C
:102A900000F0FEF818B1206845626677C2E720684A
:102AA000016C21F4802101642068016CA26911434A
:102AB00001642068456201206077002070BD00003D
:102AC000BFFF8FFF00680349884202D102490120FD
:102AD00008607047002800403C0E47422DE9F0474F
:102AE0000446007F0B4601281FD04FF0010984F8EF
:102AF0001C9002206077DAB19878D97840EA0145D5
:102B000058781978000240EA413005432168CA200C
:102B10004862216853204862204601F073FB00267A
:102B2000FF274FF0040860BB1AE00220BDE8F087E1
:102B30005878C10603D500F0EF000A305870D878F5
:102B400001F054FB0204587801F050FB42EA0022E5
:102B5000987801F04BFB0243187842EA4035D5E7FC
:102B60000F480540206845602068C16821F0800159
:102B7000C1602068806880060AD4204600F088F88A
:102B800030B12068476284F81D8026770120CDE7A8
:102B90002068476284F81D9026770020C6E7000071
:102BA0003FFFFF002DE9F0470446007F0D46012856
:102BB00027D04FF0010A84F81CA00220607720681B
:102BC000002680684FEA4060F2B1002800DBEE701A
:102BD000A878297840EA01476878E978000240EA55
:102BE000014007432168CA20486221685320486297
:102BF000204601F007FB4FF0FF084FF00409A0BB8F
:102C000016E00220BDE8F087002800DBEE7028788F
:102C100001F0ECFA0204687801F0E8FA42EA0022D6
:102C2000A87801F0E3FA0243E87842EA0047D9E7DE
:102C300016480740206807602068816821F48021D9
:102C40008160D5E90301084321688A6810438860E0
:102C50002068C16821F08001C1602068806880061A
:102C60000BD4204600F014F838B12168C1F8248054
:102C700084F81D9026770120C4E72168C1F82480DC
:102C800084F81DA026770020BCE700007F7F7F002E
:102C900070B504460068C16821F0A001C160FFF76B
:102CA0001FFA05464FF47A7607E000BFFFF718FADF
:102CB000401BB04201D9032070BD2068C068800667
:102CC000F4D5002070BD10B5FEF780F910BD704737
:102CD000F0B5426E920F0A70426EC2F383624A7080
:102CE000426EC2F301628A70426E120CCA70B0F872
:102CF0006420120A0A7190F864204A71826E120DE3
:102D0000CA80826EC2F303420A72B0F86820C2F32E
:102D1000C0324A72B0F86820C2F380328A72B0F8CA
:102D20006820C2F34032CA72B0F86820C2F30032A1
:102D30000A7300264E73426C4FF40075012462B191
:102D4000012A3AD0026847499163816B41F0805172
:102D5000816380F834400120F0BDB0F86820C36E74
:102D60009205120D42EA93720A61C26EC2F3C26208
:102D70000A75C26EC2F302624A75C26EC2F3425253
:102D80008A75C26EC2F38242CA75C26EC2F3C23283
:102D90000A760A69521C42650B7E03F007039B1CEE
:102DA0009A4042650B7A03F00F0704FA07F3836534
:102DB0005B0A5A43C0E917250EE090F86820C36EFD
:102DC0009206920A42EA13420A610A69521C92026E
:102DD0004265C0E91652056630F86C2FC2F38032A6
:102DE00001F8192F0288C2F3C6124A70027802F065
:102DF0007F028A704268D20FCA704268C2F3417281
:102E00000A714268C2F382624A714268C2F3835215
:102E10008A714268C2F34052CA710E724268C2F3AC
:102E200000424A728288C2F3C0328A728288C2F338
:102E30008032CA728288C2F340320A738288C2F337
:102E400000324A738288C2F381228A738288C2F375
:102E50000122CA730079C0F3460008744C74002044
:102E6000F0BD0000FF054000426C0A60826C4A60C1
:102E7000C26C8A60026DCA60426D0A61826D4A61ED
:102E8000C26D8A61006EC8610020704770B504464B
:102E9000B0F8500000250104206801F068FB18B16B
:102EA000A16B0143A16304E00021206801F0FCF95B
:102EB0000546C5F3432070BD90F83400704700000C
:102EC0002DE9F843056B04460068416B09041CD5E5
:102ED00029071AD5D4E90A56002E14D000272068F5
:102EE00001F006FA05F8010B010A05F8011B010CB7
:102EF00005F8021B000E361F7F1C05F8010C082F79
:102F0000EDD3C4E90A56BDE8F883416B4FF00006E3
:102F1000C90540F23A584FF0010743D539028163A1
:102F20002068C16B4CF23A129143C1632068C16AB8
:102F300021F00101C16228071CD515F0220F09D02C
:102F4000206801F045FB28B1A16B0143A163204635
:102F5000FFF7BDFE2168C1F8388084F8347026631D
:102F6000A80703D0204600F03FFACCE7204600F047
:102F70003FFAC8E72806C6D5A80609D5206801F09B
:102F800027FB28B1A16B0143A1632046FFF79FFEF9
:102F9000A807B8D12068C16A21F00801C16284F88D
:102FA0003470E3E7416B490423D5290721D5D4E9DF
:102FB0000856002EA7D0002715F8010B009015F831
:102FC000011B361F40EA0120009015F8021B40EA61
:102FD0000140009015F8011C40EA0160009069462C
:102FE000206801F098F97F1C082FE5D3C4E9085642
:102FF00089E7416B11F03A0F85D0416B890703D502
:10300000A16B41F00201A163416B090703D5A16BDC
:1030100041F00801A163416B890603D5A16B41F022
:103020002001A163416BC90603D5A16B41F01001DA
:10303000A163C0F838802068C16B21F49D71C16321
:10304000206801F0C5FAA16B0843A063280706D5E4
:1030500084F8347026632046FFF739FE53E72806CC
:1030600087D515F0300F0CD0E16B11480865E06B87
:10307000FEF7D8FD0028BBD0E06BBDE8F84301F0B7
:103080009DBCA8070CD0216C0A480865206CFEF78F
:10309000C9FD0028ACD0206CBDE8F84301F065BC48
:1030A000A66384F8347026632046FFF70CFE2AE7F7
:1030B000BD4900086B49000870B504000ED094F8B3
:1030C0003400002518B92577204600F03BF803208E
:1030D00084F83400204600F00BF808B1012070BDE0
:1030E000A5632563012084F83400002070BD000032
:1030F000FEB50025044676200095CDE9015029460D
:103100000B460A46206801F0D9F808B10120FEBD3F
:103110000B4E46F8A05F206801F0E2F8012535600B
:10312000204601F0E5FC20B9204601F069FC0028AA
:10313000EDD084F83450A16B0143A163E6E70000B1
:10314000008025422DE9F04F87B0054614216846DE
:10315000FDF79EF85049286888427CD14F480068A6
:103160004E4940F400600860086800F40060059073
:103170004A4814380068494940F001001439086091
:10318000086800F001000590086840F0020008603F
:10319000086800F002000590086840F0040008602C
:1031A000086802AA00F004000590002003260C27FE
:1031B00082E8C1004FF040080224CDE9008469464E
:1031C0003748FEF7C7FEA003CDE9000402AA00209D
:1031D00082E8C10069463348FEF7BCFEE001CDE954
:1031E000000402AA002082E8C10069462E48FEF7CA
:1031F000B1FE2F4C2D484FF00069C4E900090020B2
:10320000C4E902804FF4806804F114014FF4805047
:103210004FF4804A4FF0200BC4F8108081E8010C75
:10322000002020620420C4E909064605C7042046A0
:10323000C4E90B67FEF7DAFD08B1FDF7D4FFEC63D4
:10324000A5631A481B4C48304FF48051C4E900096B
:103250000020A06000E01CE0C4E90308C4E907B056
:103260000420606204F12802032082E8C100C4E95E
:10327000051A2046FEF7BAFD08B1FDF7B4FF2C642D
:10328000002211463120A563FEF798FF3120FEF79A
:1032900087FF07B0BDE8F08F002C014044380240A2
:1032A000000002400004024000080240586402404E
:1032B000802C0020E02C00202DE9F04786B01F462E
:1032C0000446154639B194F83400012807D002208D
:1032D00006B0BDE8F087A06B40F0006008E0002079
:1032E000A063E36DEA199A4204D9A06B40F0007024
:1032F000A0636EE0032284F8342022688246D06204
:103300002268D36B43F49573D363236C324A4FEA3C
:103310004729DA63236C314ADA64226C4FEA990355
:10332000106520680A46266C00F180013046FEF7E1
:10333000C7FDDFF8AC80012660B12068C16B21F4C5
:103340009571C1632168C1F83880A06B40F080405E
:10335000A06311E023480660606C012800D06D0274
:103360004FF40071206801F00FF840B12268C2F8F4
:103370003880A16B0143A16384F8346029E04FF0E9
:10338000FF30CDE900099020029002200596CDE99A
:10339000030AD1466946206800F070FF012F06D964
:1033A000822020632946206801F06AF805E0812028
:1033B00020632946206801F07CF8002888D0226824
:1033C000C2F83880A16B0143A16384F83460C4F86B
:1033D000309001207CE7000029490008C54800081A
:1033E000FF0540008C85254210B5FDF743FE10BD5A
:1033F00010B5FDF76BFE10BD2DE9F04F87B01F46ED
:103400005FEA010B0446164607D094F83400012801
:1034100007D0022007B0BDE8F08FA06B40F000603D
:1034200008E00025A563E16DF019884204D9A06B7E
:1034300040F00070A0635FE0032084F8340020684F
:10344000C5622068C16B41F01A01C163E16B32486B
:10345000C863E16B3148C864E06B0565606C0128A6
:1034600000D056024FF40071206800F08DFFDFF8A5
:10347000B0904FF0010840B12268C2F83890A16BBB
:103480000143A16384F8348036E04FF0900A012FA5
:1034900006D9A02020633146206801F0B3F805E08A
:1034A000C4F830A03146206801F0C5F840B1226868
:1034B000C2F83890A16B0143A16384F834801AE00C
:1034C00018484646C0F8008022687F02BB0859466B
:1034D0008032E06BFEF7F4FC80B12068C16B21F014
:1034E0001A01C1632168C1F83890A06B40F0804098
:1034F000A06384F83460256301208BE74FF0FF3030
:10350000CDE90007CDE902A5CDE90456694620685A
:1035100000F0B4FE00207DE7AF490008C548000870
:10352000FF0540008C85254210B5401EB0F1807F1C
:1035300001D3012010BD4FF0E02460610F2160171E
:1035400001F0F2FD0020A06107202061002010BDE5
:103550007047704770B590F83C20012A32D00124A2
:1035600080F83C40022280F83D2003685A689D683C
:1035700022F070060A6832435A60134B02689A427E
:1035800014D0B2F1804F11D0104B9A420ED0104B94
:103590009A420BD00F4B9A4208D00F4B9A4205D05B
:1035A0000E4B9A4202D00E4B9A4204D1496825F044
:1035B00080031943916080F83D40002180F83C1061
:1035C000084670BD022070BD0000014000040040AC
:1035D00000080040000C0040000401400040014091
:1035E0000018004010B5040003D094F83D0010B15D
:1035F00007E0012010BD002084F83C00204600F0C8
:103600000DF8022084F83D00211D206801F094FB94
:10361000012084F83D00002010BD000008B50068BE
:103620000B49884212D10B48016841F0100101603A
:103630000068002200F01000009002213620FEF702
:10364000BDFDBDE808403620FEF7AABD08BD00005C
:1036500000100040403802400168CA6842F0010290
:10366000CA600068816801F00701062903D001687B
:1036700041F00101016000207047704770B50446B9
:10368000006801694FF00005C943890715D4C16876
:10369000C943890711D4E91E016101202077206800
:1036A00080698007204602D0FFF7E7FF04E000F0C2
:1036B00098F8204600F096F8257720680169C943FC
:1036C000490717D4C168C943490713D46FF00401EF
:1036D0000161022020772068806910F4407F204635
:1036E00002D0FFF7CAFF04E000F07BF8204600F0AC
:1036F00079F8257720680169C943090716D4C1689C
:10370000C943090712D46FF0080101610420207732
:103710002068C0698007204602D0FFF7AEFF04E0B2
:1037200000F05FF8204600F05DF825772068016919
:10373000C943C90617D4C168C943C90613D46FF079
:1037400010010161082020772068C06910F4407FD3
:10375000204602D0FFF791FF04E000F042F8204637
:1037600000F040F8257720680169C943C90708D1EE
:10377000C168C943C90704D1891E0161204600F010
:1037800033F820680169C943090609D4C168C943EF
:10379000090605D46FF0800101612046FFF7D8FECD
:1037A00020680169C943490609D4C168C94349066B
:1037B00005D46FF040010161204600F031F8206827
:1037C0000169C94389060BD4C168C943890607D476
:1037D0006FF0200101612046BDE87040FFF7B9BEDF
:1037E00070BD7047704700000C4810B50369002495
:1037F0005B1C0361C268811C521CC260322A04D166
:103800000A8842F002020A80C4603C2B04D10A8874
:1038100042F004020A80046110BD00000000002094
:103820007047704770B5026804461068D1685369E4
:1038300010F00F0F52D003F0010501F490762E43E3
:103840005FD0C20705D0CA0503D5E26B42F0010282
:10385000E263420705D5DA0703D0E26B42F00202C9
:10386000E263820705D5DA0703D0E26B42F0040277
:10387000E263020707D501F020022A4303D0E26B7E
:1038800042F00802E263E26B002A33D0800604D5DE
:10389000880602D5204601F0C9FA20684069E16B2C
:1038A000C0F38010090700D428B3204601F0B0FA15
:1038B0002068416949061AD5416921F040014161FA
:1038C000606BA0B11B490165606BFEF7ABF9002886
:1038D00010D0606B016DBDE870400847830610D5BD
:1038E0008B060ED52046BDE8704001F09FBA2046F9
:1038F000FFF797FF70BD2046FFF793FF0020E063BE
:1039000070BD030606D50B0604D52046BDE8704001
:1039100001F06CBB4006F3D54806F1D5D1682046CE
:1039200021F04001D160202184F8391000F00FFA15
:1039300070BD0000014E000870B5040004D094F87A
:103940003900002510B106E0012070BD84F8385020
:10395000204600F023F8242084F839002068C1684C
:1039600021F40051C160204601F0ACFA20680169E1
:1039700021F4904101612068416921F02A014161EF
:103980002068C16841F40051C160E563202084F8DB
:10399000390084F83A00002070BD0000F0B587B00F
:1039A000044614216846FCF773FC464A2368002449
:1039B00045490225032607274448934221D1424A1C
:1039C0001432136843F010031360126802F01002FF
:1039D00005920A6842F001020A60096802AA01F031
:1039E000010105917102CDE9001582E8D000694618
:1039F000FEF7B0FA002202212520FEF7DFFB25208A
:103A000024E0314ADFF8C8C01032634522D1136880
:103A100043F400331360126802F4003205920A681E
:103A200042F001020A60096802AB01F00101059150
:103A30000C21CDE9001583E8D0006946FEF78AFA2B
:103A4000002201212620FEF7B9FB2620FEF7A8FB65
:103A500007B0F0BD1F488342FAD1106840F48020BF
:103A60001060106800F480200590086840F00400A1
:103A70000860086800F004000590086840F0020043
:103A80000860086802AB00F0020005902020CDE934
:103A9000000583E8D00069460F48FEF75BFA4FF453
:103AA0008060CDE9000502AB694683E8D0000B4891
:103AB000FEF750FA002203212720FEF77FFB272084
:103AC000C4E700000010014030380240000002400E
:103AD000004400400048004000080240000402404A
:103AE00090F83A30202B22D1F9B1F2B190F8383069
:103AF000012B1CD081628285C2850021C1632222F4
:103B000080F83A2080F838100168CA6842F4807260
:103B1000CA6001684A6942F001024A610068C168EE
:103B200041F02001C1600020704701207047022051
:103B30007047000070B500684E49401867D04E4C81
:103B4000B0F5806F6BD0B0F54C4F76D194F8232050
:103B5000601C2178115494F823000025401C84F83F
:103B6000230094F821000C280BD0601C616AFCF73C
:103B7000A6FB10B194F8210011E094F821000C2864
:103B800005D13EA1601CFCF79AFB0028F2D13CA1B4
:103B9000601CFCF794FB50B194F82100401E84F89F
:103BA00022002021601CFCF773FB84F8235020784E
:103BB000354E2E2802D13178491C317031780329D5
:103BC0000CD10A280AD194F8210084F8220020217F
:103BD000601CFCF75DFB84F82350357094F82100DD
:103BE0000D2802D121783E2904D094F823001F2803
:103BF00002D007E084F822002021601CFCF748FB7B
:103C000084F8235001221C49D4F8D80129E01F4828
:103C1000FDF762FC1D490122891C1D4821E01C4959
:103C2000803108460B78407801223BB1012B08D047
:103C3000022B0AD0032B10D10CE01AE034280BD051
:103C40000BE0FF2808D1022002E0AF2804D10320B6
:103C5000087002E0BF2808D00A700D4801224030E9
:103C6000491CBDE87040FFF73BBF0F2084F82200DD
:103C7000F3E770BD00BCFFBF6803002053450000A0
:103C80004552524F5200000000000020EC29002055
:103C90001C0200202DE9F843044690F839001F4625
:103CA00016460D46202850D1B5B1AEB194F8380073
:103CB00001284AD0012084F838004FF00008C4F8E9
:103CC0003C80212084F83900FEF70AFAA684814658
:103CD000E68484F8388026E00120BDE8F883E08C93
:103CE000401EE084A0684B46B0F5805F4FF00002B4
:103CF0004FF080012046009703D001F0A8F9E8B901
:103D00000DE001F0A4F9C8B928882168C0F30800C3
:103D10004860206908B16D1C05E0AD1C03E0216816
:103D200015F8010B4860E08C0028D8D14B460022E2
:103D300040212046009701F08AF908B10320CCE722
:103D4000202084F839000020C7E70220C5E770472B
:103D5000FEE70021A0F13002092A00D8D1B2A0F17B
:103D60004102052A02D8A0F13701C9B2A0F16102CF
:103D7000052A01D85738C1B20846704710B5034626
:103D80000020CA1701EB526424F07F02891ACAB2DC
:103D9000E111002902DD00BF42F080021A5400F157
:103DA0000100EEDC10BD0000401C802801DA401C40
:103DB0007047B0F5804F01DA801C70470349884294
:103DC00001DAC01C7047001D70470000FFFF1F0094
:103DD000F8B5074600900E4614460025104600F040
:103DE00081F80346FFF7E0FFB04201DDA81EF8BDF1
:103DF0002E46314666F307016846103103F0C8FECF
:103E000019460098FFF7BAFF009908440090207AFD
:103E100004281DD02FA1684603F0A6FE03216846A2
:103E200003F0B6FEA07E66F3070560F34105E07E71
:103E300008B145F00405680707D594F83D0060F324
:103E4000C40594F83C0060F34515206C40B905E0CA
:103E500022A1684603F088FE0421E0E7A06C08B1C7
:103E600045F08005E06C08B9606D08B145F040058B
:103E70002946684603F08CFE218B684603F08EFECF
:103E800004F10C0168460EC903F097FEE07E68B1AC
:103E90002434684694E80E00243C03F08EFE30344F
:103EA000684694E80E00303C03F087FE280605D5EE
:103EB00004F1400168460EC903F07FFE680605D58F
:103EC0004C34684694E80E0003F077FE0098C01B5F
:103ED000F8BD00004D514973647000004D515454B9
:103EE0000000000070B50446007A0025032802D0C7
:103EF000042802D002E00C2500E00A2504F10C00A1
:103F000007C800F07CF80544E07EAD1C78B124348D
:103F100094E80700243C00F072F83034064694E838
:103F20000700303C00F06BF8304405442D1D206C38
:103F300008B9A16C29B1D4E9111200F060F8054468
:103F4000AD1CE06C08B9616D29B1D4E9141200F020
:103F500056F80544AD1C284670BD2DE9FC5F1C4693
:103F6000DDE90EAB129DCDE90050174688460646A6
:103F7000DDF830905A4651462046109B00F030F84C
:103F80000346FFF711FF404503DD6FF00100BDE878
:103F9000FC9F302167F3C30164F3420169F3000120
:103FA00001A803F0F5FD19460198FFF7E7FE019916
:103FB0005A4608440190514601A8109B03F0FDFDAC
:103FC000002C03DD01A80D9903F0E8FD2A461199A4
:103FD0000198FCF744F9019828440190801BD6E72A
:103FE00070B50E46114604461A463046049D00F050
:103FF00006F82844801C002C00DD801C70BD10B524
:1040000010B1FCF778F90146084610BD0B480A4983
:104010004FF4E02201601421416000218160C0E979
:10402000031241610176012242768176C1760177E1
:104030004177FDF7D2BC000000640040A8000020DA
:104040000B480A494FF4E02201601421416000212D
:104050008160C0E9031241610176012242768176D6
:10406000C17601774177FDF7B8BC000000680040D9
:10407000D000002010B504490448FDF7B5F8024906
:10408000491E087010BD000076000020F07B00087B
:104090002DE9F04387B014216846FCF7F9F837485A
:1040A0000024016841F004010160016801F004018D
:1040B0000591016841F080010160016801F0800113
:1040C0000591016841F001010160016801F0010101
:1040D0000591016841F002010160016801F00201EF
:1040E0000591016841F0080101600068DFF89090D7
:1040F00000F008004FF4804505900022294648460C
:10410000FDF7E8FF1F4F6E11002231463846FDF7DC
:10411000E1FFDFF87480002204214046FDF7DAFF5A
:1041200000950125CDE90154694648460394FDF701
:1041300011FF0096CDE90154694638460394FDF716
:1041400009FF2802CDE90004694610480294FDF7F2
:1041500001FF04200090CDE90154694640460394D4
:10416000FDF7F8FE02200096CDE901406946484679
:10417000FDF7F0FE07B0BDE8F083000030380240E4
:104180000004024000080240000C0240000002400F
:10419000074806497F2201600021C0E90112FF2281
:1041A000C0E9032141618161FEF736BC002800406F
:1041B000F8000020FEE7000070B50C4600252A211B
:1041C000FCF78FF803E000BF14F8011B4D40844258
:1041D000FAD1284670BD70477047010901EB810193
:1041E00000F00F0000EB4100C0B27047002102E078
:1041F0000A38C0B2491C0A28FAD2090740EA1160FD
:104200007047000070B504460068C168490614D4C0
:104210004FF0FF31C160FDF763FF05464FF47A763A
:1042200007E000BFFDF75CFF401BB04201D903204F
:1042300070BD2068C0684006F4D5002070BD000045
:1042400070B50B4C00256068012805D10022094992
:104250000948FEF7A7FC6560A068012806D104495B
:10426000002214310448FEF739FCA56070BD00003F
:1042700000000020582C0020F80000200A6842624C
:104280004A688262D1E902231A43D1E904310B431F
:10429000C16A1A4321F0F7011143C162002070473F
:1042A000006800F003007047084440697047000050
:1042B0000148FEF705BE00001801002070B50DF1A1
:1042C000100C11439CE870002343194329434268B2
:1042D000314347F6FF639A430A434260002070BDB2
:1042E00010B5032101600220FDF722FE002010BD61
:1042F000D0F8800070470A688260D1E901231A4330
:10430000D1E903310B43C1681A436FF30B01114329
:10431000C160002070470968C0F880100020704715
:1043200010B586B004463720CDE900104020029039
:10433000002003904FF48060049069462046FFF708
:10434000DAFF41F288323721204600F08DF906B0BD
:1043500010BD000010B504460A4886B0014329206C
:10436000CDE9001040200290002003904FF48060BF
:10437000049069462046FFF7BEFF204600F02CFA65
:1043800006B010BD0000108010B586B004461020A5
:10439000CDE9001040200290002003904FF480608F
:1043A000049069462046FFF7A6FF41F288321021AB
:1043B000204600F059F906B010BD000030B585B0B8
:1043C00000240546009401944FF480600294CDE9E6
:1043D000034069462846FFF78EFF0B484FF4FA5119
:1043E0000068B0FBF1F041F288314843401E03D22F
:1043F0004FF0004005B030BD696B0906F6D5C52009
:10440000A8632046F6E700008C00002070B585B058
:1044100004464FF4D570009001A9082040250026DD
:1044200081E86100C001049069462046FFF763FF00
:1044300012484FF4FA510068B0FBF1F041F28831B4
:104440004843401E03D24FF0004005B070BD616B81
:1044500011F0450FF5D00905F3D4606B400701D585
:10446000042003E0606BC00702D00120A063ECE7EA
:10447000606B400600D5A5633046E6E78C0000205F
:1044800010B586B004461220CDE9001040200290FD
:10449000002003904FF48060049069462046FFF7A7
:1044A0002AFF41F288321221204600F0DDF806B0E2
:1044B00010BD10B586B004461120CDE90010402093
:1044C0000290002003904FF48060049069462046DB
:1044D000FFF711FF41F288321121204600F0C4F8A5
:1044E00006B010BD10B586B004460720CDE9002007
:1044F00040200290002003904FF4806004906946B1
:104500002046FFF7F8FE41F288320721204600F0EE
:10451000ABF806B010BD10B586B0044600210220ED
:10452000CDE90010C020CDE902014FF48060049075
:1045300069462046FFF7DFFE204600F025F906B069
:1045400010BD10B586B004460920CDE90010C0208A
:104550000290002003904FF480600490694620464A
:10456000FFF7C9FE204600F00FF906B010BD10B5E8
:1045700086B004460D20CDE90010402002900020B6
:1045800003904FF48060049069462046FFF7B3FE25
:1045900041F288320D21204600F066F806B010BDC9
:1045A00030B585B00C46054600210320CDE900104A
:1045B0004020CDE902010001049069462846FFF73A
:1045C0009AFE22460321284600F028F905B030BDA6
:1045D00010B586B0044600210C20CDE90010402023
:1045E000CDE902010001049069462046FFF783FEF1
:1045F000034A0C21204600F037F806B010BD000039
:1046000000E1F50510B586B004461920CDE900108B
:1046100040200290002003904FF48060049069468F
:104620002046FFF768FE41F288321921204600F04B
:104630001BF806B010BD10B586B004461820CDE9B1
:10464000001040200290002003904FF480600490FE
:1046500069462046FFF74FFE41F288321821204676
:1046600000F002F806B010BD454B10B51B684FF4C2
:10467000FA54B3FBF4F353435B1E02D24FF00040F5
:1046800010BD426B12F0450FF6D01205F4D4426B08
:10469000520703D504218163084610BD426BD2073F
:1046A00002D00121816305E0C52282630269D2B292
:1046B0008A4201D0012010BD0021FFF7F5FD3149EC
:1046C000084201D1002010BD002802DA4FF000702E
:1046D00010BD410001D5402010BD810001D58020D2
:1046E00010BDC10002D54FF4807010BD010102D58C
:1046F0004FF4007010BD410102D54FF4806010BD31
:10470000C10102D54FF4006010BD010202D54FF483
:10471000805010BD410202D54FF4005010BD8102FF
:1047200002D54FF4804010BDC10202D54FF40040C5
:1047300010BD410302D54FF4003010BD810302D5F6
:104740004FF4802010BDC10302D54FF4002010BDEE
:10475000010402D54FF4801010BD410402D54FF47E
:10476000001010BD810402D54FF4800010BD000779
:1047700002D54FF4000010BD4FF4803010BD000092
:104780008C00002008E0FFFD12494FF4FA5209683E
:10479000B1FBF2F141F288325143491E02D24FF08F
:1047A00000407047426B12F0450FF6D01205F4D46A
:1047B000416B490703D50421816308467047416B6B
:1047C000C90703D00121816308467047C521816371
:1047D000002070478C0000200F494FF4FA520968FE
:1047E000B1FBF2F141F288325143491E02D24FF03F
:1047F00000407047426B12F0450FF6D01205F4D41A
:10480000416B490703D50421816308467047C521E0
:1048100081630020704700008C00002030B5204BE1
:104820004FF4FA541B68B3FBF4F341F2883463434A
:104830005B1E02D24FF0004030BD446B14F0450FB8
:10484000F6D02405F4D4436B5B0703D504218163C0
:10485000084630BD436BDB0702D00121816303E0D2
:104860000369DBB28B4201D0012030BDC5218163D9
:104870000021FFF719FD10F4604F04D0410406D564
:104880004FF4005030BD000C1080002030BD0004FB
:1048900002D54FF4805030BD4FF4803030BD000061
:1048A0008C00002010B5064C01202070FCF796FB10
:1048B00018B9207820F001002070207810BD000089
:1048C0007400002010B5846BFDF7BEF9022828D0D3
:1048D000206C416DE06B406D012901D001281DD194
:1048E0002168104888632068C16B21F49D71C16301
:1048F000A06B40F08040A0632046FEF7C7FA062870
:1049000001D0052805D12068FFF762FEA16B08439E
:10491000A063012084F83400002020632046FEF7C5
:10492000D6F910BDFF05400010B5846B206B8228BE
:1049300009D12068FFF74CFE28B1A16B0143A163A8
:104940002046FEF7C4F92068C16A21F00801C1625F
:10495000216840F23A508863012084F83400002036
:1049600020632046FEF740FD10BD10B5846B40F279
:104970003A50216888632046FEF788FA012184F8BE
:10498000341000212163062801D0052805D12068B4
:10499000FFF71EFEA16B0843A063A06B0028204612
:1049A00002D0FEF794F910BDFEF78DF910BD806BB3
:1049B0000068C16B41F48071C163704710B5846BAE
:1049C00040F23A50216888632046FEF75FFA0121E1
:1049D00084F8341000212163062801D0052805D170
:1049E0002068FFF7F5FDA16B0843A063A06B0028CA
:1049F000204602D0FEF76BF910BDFEF764F910BD3A
:104A000010B590B004460120ADF838002068FFF7DB
:104A100047FC002854D0606C032842D02068FFF780
:104A20007AFD00284AD100212068FFF73DFC60672D
:104A300004212068FFF738FCA06708212068FFF7F1
:104A400033FCE0670C212068FFF72EFCC4F88000DF
:104A5000606C032825D00EA92068FFF7A1FD00286F
:104A60002CD1606C03281CD0BDF8380020650104EF
:104A70002068FFF766FD002820D100212068FFF79D
:104A800013FC606604212068FFF70EFCA066082175
:104A90002068FFF709FCE0660C212068FFF704FCA2
:104AA000206704212068FFF7FFFB000DE06403A9E5
:104AB0002046FEF70DF930B14FF0805010B010BD18
:104AC0004FF08060FAE7B4F8500000230204206839
:104AD000FFF708FD0028F1D104F1100007C88DE8A8
:104AE000070094E80F00FFF7E9FB0020E6E700006D
:104AF0002DE9F84F0026044600963546B04600687A
:104B0000FFF75CFC002827D12068FFF77FFC4FF0FF
:104B1000805B4FF001094FF6FF7748B1A66420682B
:104B2000FFF74CFC002817D1A06C012802D020E030
:104B3000C4F8489000212068FFF7F2FB58B918E04C
:104B400000212068FFF7ECFB002805D151462068C2
:104B5000FFF700FC10B15846BDE8F88F002120682F
:104B6000FFF7A2FB05464FEAD0780098401C009062
:104B700002E0DFF82CA00098B84202D2B8F1000F92
:104B8000DED00098B84202D34FF08070E4E76800AE
:104B900002D5C4F8449000E066640020DCE7000021
:104BA000000010C170B5064C054601202070FCF7CE
:104BB00021FA18B92846FFF775FE2070207870BDDD
:104BC0007400002010B5124888B014460078C00761
:104BD00002D0032008B010BDC1B1012905D00229BF
:104BE00008D003290CD00420F4E76846FCF7F0F95C
:104BF00006980AE06846FCF7EBF90798208005E084
:104C00006846FCF7E5F90798400A20600020E1E7D4
:104C10007400002010B5144608461A462146FCF7D9
:104C2000FFF9002800D0012010BDFFF73BBE10B5F2
:104C3000144608461A462146FCF71EFA002800D002
:104C4000012010BD704770B5044642620D4608460B
:104C5000FBF751FB82B22946D4F8D801BDE8704079
:104C600041F27073FFF716B8FDF740BA30B5A3B044
:104C700034216846FBF70CFB14211CA8FBF708FB4A
:104C80003C210DA8FBF704FB1F480024016841F0FC
:104C900080510160006800F0805021901B4801683D
:104CA00041F4404101600068022500F44040219039
:104CB000052000904FF48030019001200290800583
:104CC000CDE906500C2008906020CDE909050420AC
:104CD000CDE90B056846FDF7BFFC0F20CDE91C05AB
:104CE000E802CDE91E4003211CA82094FDF7C8FB73
:104CF00068200D90E801CDE9140417940DA8FDF784
:104D00008FFA23B030BD00004038024000700040F0
:104D10000548016841F47001016003494FF00060EB
:104D2000803908607047000088ED00E00148FEF718
:104D3000A5BC00009C010020F0B50268254C264D62
:104D4000264E274F274B4FF0804CA04209D060459C
:104D500007D0A84205D0B04203D0B84201D0984253
:104D600004D122F0700E4A6842EA0E02A0421BD023
:104D7000604519D0A84217D0B04215D0B84213D020
:104D8000984211D0184DA8420ED0184DA8420BD011
:104D9000174DA84208D0174DA84205D0164DA8427D
:104DA00002D0164DA84203D122F44075CA682A43A6
:104DB0004D6922F080022A4302608A68C2620A6852
:104DC0008262A04201D0984201D1096901630121A8
:104DD0004161F0BD000001400004004000080040B7
:104DE000000C00400004014000400140004401402C
:104DF0000048014000180040001C00400020004016
:104E000010B5806B0021C185C184FEF70AFD10BD7D
:104E10000168CA6822F49072CA6001684A6922F087
:104E200001024A61202180F83A10704710B590F8CD
:104E30003A10222901D0022010BD8168B1F5805FAF
:104E400011D00169002901681FD0496801F07F0372
:104E5000816A4A1C82620B70C18D491E0904090CCB
:104E6000C18518D02BE00269816A002A0268526865
:104E700005D0D2B20A80816A491C8162ECE7C2F394
:104E800008020A80816A891CF7E74A68816A4B1C1C
:104E900083620A70E0E70168CA6822F02002CA60F3
:104EA0000168CA6822F48072CA6001684A6922F007
:104EB00001024A61202180F83A10FEF73BFE0020F3
:104EC00010BD00002DE9F041044600680169E26868
:104ED00021F44051114301612169A068E26908434E
:104EE0006169114308432168CA6849F20C639A4317
:104EF0000243CA6020684169A26921F440711143EC
:104F00004161E069192764253226B0F5004F354A22
:104F1000354920684FF0000806D0884201D0904201
:104F200036D1FDF757FB35E0884201D0904202D1DF
:104F3000FDF750FB01E0FDF73DFB61684A18A0FB5F
:104F4000070148EB0803FBF759F90146B0FBF5F000
:104F50000201B1FBF5F06FF01803584301EB80003C
:104F600006EBC000B0FBF5F000F0F80002EB4002E9
:104F7000B1FBF5F0584301EB800006EBC000B0FB3D
:104F8000F5F000F00700216810448860BDE8F0816A
:104F9000FDF710FB61688B0F8A00A0FB0701FBF790
:104FA0002DF90146B0FBF5F06FF01802504301EB0C
:104FB000800006EB0010B0FBF5F000F0F002B1FB52
:104FC000F5F002EB0012B1FBF5F06FF01803584357
:104FD00001EB800006EB0010B0FBF5F000F00F00D5
:104FE000D1E70000001401400010014090F8391092
:104FF000212901D0022070478168B1F5805F016AE4
:105000000BD04A1C0262026809785160C18C491EAB
:105010000904090CC1840ED017E009880268C1F3A5
:105020000801516001690029016A02D0491C01622E
:10503000ECE7891CFBE70168CA6822F08002CA60BD
:105040000068C16841F04001C160002070472DE94F
:10505000F041984617460E460446069D1DE0681C22
:105060001BD02DB1FDF73CF8A0EB0800A84214D9E5
:105070002068C16821F4D071C1602068416921F0C5
:1050800001014161202084F8390084F83A000020B1
:1050900084F838000320BDE8F0812068006836EA13
:1050A000000004D00020B842D9D00020F3E701204E
:1050B000F9E700000148FEF7B5BB0000DC01002065
:1050C0000148FEF7AFBB00001C0200200148FEF7BC
:1050D000A9BB00005C020020FEE700000FB4084BF3
:1050E00010B504A902AA039800F0C8F9044602A961
:1050F000002000F05AFD204610BC5DF814FB0000B3
:10510000AB5B000837B514460846064B6A46214695
:1051100000F0B4F904466946002000F046FD204640
:105120003EBD0000AB5B00080907090E002804DB48
:1051300000F1E02080F80014704700F00F0000F14B
:10514000E02080F8141D7047004870479800002048
:1051500030B583B0044600F0ABF89FED090B05466F
:105160008DED000B002221466846FBF71CFB28460C
:1051700000F0B4F89DED000B03B030BD000000005E
:10518000000000000000000010B52DED040B86B0FB
:105190009DED060B10EE100A10EE901A8DED000B2F
:1051A000002818BF0120084320F00040C0F17F60B4
:1051B00000F1E040C00F21D19DED080B10EE101A58
:1051C00010EE900A8DED000B002918BF0121084355
:1051D00020F00040C0F17F6000F1E040C00F0DD131
:1051E00029490798B1EB400F04BF0698002842D028
:1051F0000998400004BF089800283CD09DED080B9A
:1052000053EC102B9DED060B51EC100BFBF7CAFB7A
:10521000CDE902019DED020B40F2FF7110EE900A04
:105220008DED000B31EA105021D00798039900F062
:10523000004001F00041884219D09DED080B8DED32
:10524000040B9DED020B8DED000B10EE900A0599FD
:1052500061F31E0005909DED041B9DED020B51ECCA
:10526000110B53EC102BFBF7FEF8CDE902019DED7D
:10527000020B0AB010BD012000F030F80AB0BDE802
:10528000104000F005B800000000E0FF0000000042
:105290009FED050B10B553EC102B51EC100BFBF7E9
:1052A00057F941EC100B10BD000000000000000099
:1052B00001480068704700009800002002E008C81C
:1052C000121F08C1002AFAD170477047002001E080
:1052D00001C1121F002AFBD170470000014908607C
:1052E00070470000980000202DE9FF5F82B0002188
:1052F000DDE90430020DDDF840B0034318D044F678
:105300001050A2F2FF3242431514119801281FD009
:10531000A5EB0B00401C5FEA000A4FF000064E4F61
:10532000DFF83891B046504615D5CAF1000413E0B5
:10533000119801244AA3012801D16FEA0B010298B8
:10534000119AC0E90031C0E9024206B0BDE8F09F01
:10535000CBF10000DFE704460021404A491842EB48
:105360000450CDE9001012E0E00707D032463B467A
:1053700040464946FBF77AF88046894632463B4626
:1053800010461946FBF772F806460F466410002CCB
:10539000EAD1DDE90401DDE90023BAF1000F06DA04
:1053A000FBF764F842464B46FBF760F805E0FBF775
:1053B000CFF842464B46FBF7CBF804460E46002298
:1053C000284BFBF74BFB03D84FF0FF30014607E0BB
:1053D0000022254B20463146FAF7A1FFFBF725FBBB
:1053E000102409E0002C0ADB0A220023FAF706FF4A
:1053F000039B30321A55641E50EA0102F2D1641C3C
:10540000039AC4F111031444119A012A03D0012212
:1054100008430DD10AE0084304D000204FF0110BDF
:10542000119072E7A3EB0B056D1E0DE05B4504DDEB
:105430004FF0000205F1010504E003DA4FF000022D
:10544000A5F10105002AECD002981199C0E90231BA
:10545000C0E9004579E70000000014400000F03F7B
:10546000300000000000F0430000E03F30380A2820
:1054700001D2012070470020704700002DE9FF4F46
:1054800095B09B468946064600250FE2252877D130
:1054900000242746F84A0121059400E0044316F849
:1054A000013F203B01FA03F01042F7D130782A285F
:1054B00011D06FF02F033078A0F13002092A16D8EE
:1054C000059A44F0020402EB820203EB420210440C
:1054D000761C0590EFE759F8042B0592002A03DAB1
:1054E000504244F40054059044F00204761C307895
:1054F0002E2816D116F8010F44F004042A280DD0E6
:105500006FF02F023078A0F13003092B09D807EB98
:10551000870302EB4303C718761CF3E759F8047BB3
:10552000761C30786C280FD006DC4C2817D0682801
:105530000DD06A2814D104E0742810D07A280FD135
:105540000DE044F400140AE044F4801401E044F453
:1055500040147278824202D104F58014761C761CC5
:10556000307866280BD013DC582877D009DC002867
:1055700075D04528F6D04628F4D047281AD19DE1A9
:1055800018E0632835D0642879D0652812D195E1D8
:10559000702873D008DC6728F1D069286FD06E2896
:1055A0000DD06F2806D1B5E073282CD0752875D0A2
:1055B000782874D05A46179990476D1C75E1C4F34A
:1055C0000250022809D003280DD0D9F80010042871
:1055D0000DD00D6009F1040967E1D9F80010EA1750
:1055E000C1E90052F6E7D9F800100D80F2E70D701E
:1055F000F0E719F8041B8DF8001000208DF8010069
:10560000EA46012003E059F804AB4FF0FF30610790
:105610004FF0000102D40DE008F101018846B942C3
:105620000FDA8045F8DB1AF808100029F4D108E0F9
:1056300008F1010188468142FADB1AF808100029B6
:10564000F6D105985B46A0EB080721463846179A25
:1056500000F094FA284400EB080507E04DE029E14A
:105660000DE01AF8010B5A4617999047B8F1010856
:10567000F7D25B4621463846179A13E142E00A22E8
:105680000092C4F302524FF0000A022A08D059F8DF
:1056900004CB032A4FEAEC710AD00DE029E02AE09E
:1056A00009F1070121F00702F2E802C1914609E081
:1056B0000FFA8CFC4FEAEC71042A03D14FFA8CFCF0
:1056C0004FEAEC71002907DA0A460021DCF1000CF0
:1056D00061EB02012D2202E0220504D52B228DF878
:1056E0000420012203E0E20701D02022F7E79046E0
:1056F00059E00A2102E010220DE010214FF0000ACB
:1057000000910BE010224FF0000A44F00404082737
:10571000009203E008224FF0000A0092C4F3025204
:10572000022A05D059F804CB0021032A08D009E049
:1057300009F1070121F00702F2E802C1914605E0F4
:105740001FFA8CFC042A01D10CF0FF0C4FF000086A
:10575000220728D5702806D0009B83F0100353EA57
:105760000A0305D00EE040228DF80420012208E053
:105770005CEA010206D030228DF804208DF8050085
:1057800002229046009B83F0080353EA0A030AD1E1
:105790005CEA010201D1620705D530228DF80420B0
:1057A0004FF001087F1E582804D034A003900EA8A3
:1057B00002900DE036A0F9E753466046009AFAF7EA
:1057C0001DFD84460398825C0298401E0290027080
:1057D0005CEA0100F0D1029806A9081A00F1200A3B
:1057E000600702D524F4803400E00127574502DD2C
:1057F000A7EB0A0000E0002000EB0A0100900598EA
:105800004144401A0590E00306D45B462146179AAE
:10581000059800F0B3F90544002706E001A85A46B0
:10582000C05D179990476D1C7F1C4745F6DBE00370
:105830000CD55B462146179A059800F09FF9054460
:1058400004E030205A46179990476D1C0099481E75
:1058500000900029F5DC08E0029802995A46007889
:10586000491C0291179990476D1CBAF10001AAF1E9
:10587000010AF1DC65E10000092801003031323312
:10588000343536373839616263646566000000007C
:105890003031323334353637383941424344454666
:1058A0000000000000F058F90544761C307800280C
:1058B0007FF4ECAD19B02846BDE8F08F620700D444
:1058C000062709F1070222F0070CFCE80223E14653
:1058D00003F000485FEA080C02D00FF2702C0DE0D4
:1058E0005FEA045C02D50FF2682C07E05FEAC47C33
:1058F00002D00FF2602C01E0AFF2700C4FF0FF38D5
:1059000023F00043CDF850C065280CD006DC4528B4
:1059100009D046281DD047283DD13DE0662818D043
:1059200067287ED138E00021112F01DB112000E033
:10593000781CCDE9000106A90EA8FFF7D5FCDDE92A
:105940000F010E9A03910021009207F1010A0491C0
:105950004DE04FF000400097CDE9011006A90EA8D8
:10596000FFF7C2FCDDE90F0203920E9B11990022A2
:10597000DDF80CA00093049211B9791C00EB010A28
:10598000B7EB0A0004D4C0F1FF3007F1010A04901C
:10599000AAEB0700019044E0012F00DA0127002163
:1059A000112F01DD112000E03846CDE9000106A9E4
:1059B0000EA8FFF799FCDDE90F010E9A0391002173
:1059C00004910092BA4621070CD40399514500DA9C
:1059D0008A46BAF1010F05DD009AAAF10101515C76
:1059E000302908D0B84202DA10F1040F06DA01219A
:1059F000CDE9011015E0AAF10101E9E7002805DC75
:105A0000049901440491AAEB000102E0411C5145B4
:105A100000DD8A460499401A401C01904FF0004076
:105A20000290200704D40198504501DBCDF8048092
:105A300000208DF84F0002980DF14F07B0F1004F94
:105A400025D02B200E9002984FF0020800280CDA87
:105A5000404202902D200E9007E00A210298FAF7AA
:105A60003FFE3031029007F8011DB8F10001A8F1A6
:105A70000108F2DC02980028EFD1791E0E98087018
:105A8000307800F0200040F0450007F8020D12A821
:105A9000C01B00F107081498007800B1012000EB4A
:105AA0000A01019801EBE07105984144401A401E3B
:105AB0000590E00306D45B462146179A059800F04E
:105AC0005DF805441498007818B15A461799904724
:105AD0006D1CE00324D55B462146179A059800F01B
